{
  "contractName": "vcNFT",
  "abi": [
    {
      "inputs": [
        {
          "internalType": "string",
          "name": "name_",
          "type": "string"
        },
        {
          "internalType": "string",
          "name": "symbol_",
          "type": "string"
        },
        {
          "internalType": "string",
          "name": "portfolioURI_",
          "type": "string"
        }
      ],
      "stateMutability": "nonpayable",
      "type": "constructor"
    },
    {
      "anonymous": false,
      "inputs": [
        {
          "indexed": true,
          "internalType": "address",
          "name": "owner",
          "type": "address"
        },
        {
          "indexed": true,
          "internalType": "address",
          "name": "approved",
          "type": "address"
        },
        {
          "indexed": true,
          "internalType": "uint256",
          "name": "tokenId",
          "type": "uint256"
        }
      ],
      "name": "Approval",
      "type": "event"
    },
    {
      "anonymous": false,
      "inputs": [
        {
          "indexed": true,
          "internalType": "address",
          "name": "owner",
          "type": "address"
        },
        {
          "indexed": true,
          "internalType": "address",
          "name": "operator",
          "type": "address"
        },
        {
          "indexed": false,
          "internalType": "bool",
          "name": "approved",
          "type": "bool"
        }
      ],
      "name": "ApprovalForAll",
      "type": "event"
    },
    {
      "anonymous": false,
      "inputs": [
        {
          "indexed": true,
          "internalType": "uint256",
          "name": "tokenId",
          "type": "uint256"
        },
        {
          "indexed": false,
          "internalType": "string",
          "name": "coaURI",
          "type": "string"
        }
      ],
      "name": "CoaURISet",
      "type": "event"
    },
    {
      "anonymous": false,
      "inputs": [
        {
          "indexed": true,
          "internalType": "address",
          "name": "previousOwner",
          "type": "address"
        },
        {
          "indexed": true,
          "internalType": "address",
          "name": "newOwner",
          "type": "address"
        }
      ],
      "name": "OwnershipTransferred",
      "type": "event"
    },
    {
      "anonymous": false,
      "inputs": [
        {
          "indexed": false,
          "internalType": "address",
          "name": "account",
          "type": "address"
        }
      ],
      "name": "Paused",
      "type": "event"
    },
    {
      "anonymous": false,
      "inputs": [
        {
          "indexed": false,
          "internalType": "string",
          "name": "portfolioURI",
          "type": "string"
        }
      ],
      "name": "PortfolioURISet",
      "type": "event"
    },
    {
      "anonymous": false,
      "inputs": [
        {
          "indexed": true,
          "internalType": "address",
          "name": "from",
          "type": "address"
        },
        {
          "indexed": true,
          "internalType": "address",
          "name": "to",
          "type": "address"
        },
        {
          "indexed": true,
          "internalType": "uint256",
          "name": "tokenId",
          "type": "uint256"
        }
      ],
      "name": "Transfer",
      "type": "event"
    },
    {
      "anonymous": false,
      "inputs": [
        {
          "indexed": false,
          "internalType": "address",
          "name": "account",
          "type": "address"
        }
      ],
      "name": "Unpaused",
      "type": "event"
    },
    {
      "inputs": [],
      "name": "allTokens",
      "outputs": [
        {
          "internalType": "uint256[]",
          "name": "",
          "type": "uint256[]"
        }
      ],
      "stateMutability": "view",
      "type": "function"
    },
    {
      "inputs": [
        {
          "internalType": "address",
          "name": "to",
          "type": "address"
        },
        {
          "internalType": "uint256",
          "name": "tokenId",
          "type": "uint256"
        }
      ],
      "name": "approve",
      "outputs": [],
      "stateMutability": "nonpayable",
      "type": "function"
    },
    {
      "inputs": [
        {
          "internalType": "address",
          "name": "owner",
          "type": "address"
        }
      ],
      "name": "balanceOf",
      "outputs": [
        {
          "internalType": "uint256",
          "name": "",
          "type": "uint256"
        }
      ],
      "stateMutability": "view",
      "type": "function"
    },
    {
      "inputs": [
        {
          "internalType": "uint256",
          "name": "tokenId",
          "type": "uint256"
        }
      ],
      "name": "getApproved",
      "outputs": [
        {
          "internalType": "address",
          "name": "",
          "type": "address"
        }
      ],
      "stateMutability": "view",
      "type": "function"
    },
    {
      "inputs": [
        {
          "internalType": "address",
          "name": "owner",
          "type": "address"
        },
        {
          "internalType": "address",
          "name": "operator",
          "type": "address"
        }
      ],
      "name": "isApprovedForAll",
      "outputs": [
        {
          "internalType": "bool",
          "name": "",
          "type": "bool"
        }
      ],
      "stateMutability": "view",
      "type": "function"
    },
    {
      "inputs": [],
      "name": "name",
      "outputs": [
        {
          "internalType": "string",
          "name": "",
          "type": "string"
        }
      ],
      "stateMutability": "view",
      "type": "function"
    },
    {
      "inputs": [],
      "name": "owner",
      "outputs": [
        {
          "internalType": "address",
          "name": "",
          "type": "address"
        }
      ],
      "stateMutability": "view",
      "type": "function"
    },
    {
      "inputs": [
        {
          "internalType": "uint256",
          "name": "tokenId",
          "type": "uint256"
        }
      ],
      "name": "ownerOf",
      "outputs": [
        {
          "internalType": "address",
          "name": "",
          "type": "address"
        }
      ],
      "stateMutability": "view",
      "type": "function"
    },
    {
      "inputs": [],
      "name": "paused",
      "outputs": [
        {
          "internalType": "bool",
          "name": "",
          "type": "bool"
        }
      ],
      "stateMutability": "view",
      "type": "function"
    },
    {
      "inputs": [],
      "name": "renounceOwnership",
      "outputs": [],
      "stateMutability": "nonpayable",
      "type": "function"
    },
    {
      "inputs": [
        {
          "internalType": "address",
          "name": "from",
          "type": "address"
        },
        {
          "internalType": "address",
          "name": "to",
          "type": "address"
        },
        {
          "internalType": "uint256",
          "name": "tokenId",
          "type": "uint256"
        }
      ],
      "name": "safeTransferFrom",
      "outputs": [],
      "stateMutability": "nonpayable",
      "type": "function"
    },
    {
      "inputs": [
        {
          "internalType": "address",
          "name": "from",
          "type": "address"
        },
        {
          "internalType": "address",
          "name": "to",
          "type": "address"
        },
        {
          "internalType": "uint256",
          "name": "tokenId",
          "type": "uint256"
        },
        {
          "internalType": "bytes",
          "name": "_data",
          "type": "bytes"
        }
      ],
      "name": "safeTransferFrom",
      "outputs": [],
      "stateMutability": "nonpayable",
      "type": "function"
    },
    {
      "inputs": [
        {
          "internalType": "address",
          "name": "operator",
          "type": "address"
        },
        {
          "internalType": "bool",
          "name": "approved",
          "type": "bool"
        }
      ],
      "name": "setApprovalForAll",
      "outputs": [],
      "stateMutability": "nonpayable",
      "type": "function"
    },
    {
      "inputs": [
        {
          "internalType": "bytes4",
          "name": "interfaceId",
          "type": "bytes4"
        }
      ],
      "name": "supportsInterface",
      "outputs": [
        {
          "internalType": "bool",
          "name": "",
          "type": "bool"
        }
      ],
      "stateMutability": "view",
      "type": "function"
    },
    {
      "inputs": [],
      "name": "symbol",
      "outputs": [
        {
          "internalType": "string",
          "name": "",
          "type": "string"
        }
      ],
      "stateMutability": "view",
      "type": "function"
    },
    {
      "inputs": [
        {
          "internalType": "uint256",
          "name": "index",
          "type": "uint256"
        }
      ],
      "name": "tokenByIndex",
      "outputs": [
        {
          "internalType": "uint256",
          "name": "",
          "type": "uint256"
        }
      ],
      "stateMutability": "view",
      "type": "function"
    },
    {
      "inputs": [
        {
          "internalType": "address",
          "name": "owner",
          "type": "address"
        },
        {
          "internalType": "uint256",
          "name": "index",
          "type": "uint256"
        }
      ],
      "name": "tokenOfOwnerByIndex",
      "outputs": [
        {
          "internalType": "uint256",
          "name": "",
          "type": "uint256"
        }
      ],
      "stateMutability": "view",
      "type": "function"
    },
    {
      "inputs": [],
      "name": "totalSupply",
      "outputs": [
        {
          "internalType": "uint256",
          "name": "",
          "type": "uint256"
        }
      ],
      "stateMutability": "view",
      "type": "function"
    },
    {
      "inputs": [
        {
          "internalType": "address",
          "name": "from",
          "type": "address"
        },
        {
          "internalType": "address",
          "name": "to",
          "type": "address"
        },
        {
          "internalType": "uint256",
          "name": "tokenId",
          "type": "uint256"
        }
      ],
      "name": "transferFrom",
      "outputs": [],
      "stateMutability": "nonpayable",
      "type": "function"
    },
    {
      "inputs": [
        {
          "internalType": "address",
          "name": "newOwner",
          "type": "address"
        }
      ],
      "name": "transferOwnership",
      "outputs": [],
      "stateMutability": "nonpayable",
      "type": "function"
    },
    {
      "inputs": [],
      "name": "portfolioInfo",
      "outputs": [
        {
          "internalType": "address",
          "name": "",
          "type": "address"
        },
        {
          "internalType": "string",
          "name": "",
          "type": "string"
        },
        {
          "internalType": "string",
          "name": "",
          "type": "string"
        },
        {
          "internalType": "string",
          "name": "",
          "type": "string"
        },
        {
          "internalType": "uint256",
          "name": "",
          "type": "uint256"
        }
      ],
      "stateMutability": "view",
      "type": "function"
    },
    {
      "inputs": [],
      "name": "getPortfolioURI",
      "outputs": [
        {
          "internalType": "string",
          "name": "",
          "type": "string"
        }
      ],
      "stateMutability": "view",
      "type": "function"
    },
    {
      "inputs": [
        {
          "internalType": "string",
          "name": "portfolioURI_",
          "type": "string"
        }
      ],
      "name": "setPortfolioURI",
      "outputs": [],
      "stateMutability": "nonpayable",
      "type": "function"
    },
    {
      "inputs": [],
      "name": "getAllTokenIds",
      "outputs": [
        {
          "internalType": "uint256[]",
          "name": "",
          "type": "uint256[]"
        }
      ],
      "stateMutability": "view",
      "type": "function"
    },
    {
      "inputs": [
        {
          "internalType": "uint256",
          "name": "tokenId",
          "type": "uint256"
        }
      ],
      "name": "tokenURI",
      "outputs": [
        {
          "internalType": "string",
          "name": "",
          "type": "string"
        }
      ],
      "stateMutability": "view",
      "type": "function"
    },
    {
      "inputs": [
        {
          "internalType": "uint256",
          "name": "tokenId",
          "type": "uint256"
        }
      ],
      "name": "getCoaURI",
      "outputs": [
        {
          "internalType": "string",
          "name": "",
          "type": "string"
        }
      ],
      "stateMutability": "view",
      "type": "function"
    },
    {
      "inputs": [
        {
          "internalType": "uint256",
          "name": "tokenId",
          "type": "uint256"
        },
        {
          "internalType": "string",
          "name": "_coaURI",
          "type": "string"
        }
      ],
      "name": "setCoaURI",
      "outputs": [],
      "stateMutability": "nonpayable",
      "type": "function"
    },
    {
      "inputs": [
        {
          "internalType": "address",
          "name": "recipient",
          "type": "address"
        },
        {
          "internalType": "string",
          "name": "_coaURI",
          "type": "string"
        }
      ],
      "name": "mint",
      "outputs": [
        {
          "internalType": "uint256",
          "name": "",
          "type": "uint256"
        }
      ],
      "stateMutability": "nonpayable",
      "type": "function"
    },
    {
      "inputs": [
        {
          "internalType": "uint256",
          "name": "tokenId",
          "type": "uint256"
        }
      ],
      "name": "burn",
      "outputs": [],
      "stateMutability": "nonpayable",
      "type": "function"
    },
    {
      "inputs": [],
      "name": "pause",
      "outputs": [],
      "stateMutability": "nonpayable",
      "type": "function"
    },
    {
      "inputs": [],
      "name": "unpause",
      "outputs": [],
      "stateMutability": "nonpayable",
      "type": "function"
    }
  ],
  "bytecode": "0x60806040523480156200001157600080fd5b5060405162004904380380620049048339818101604052810190620000379190620002f0565b8282620000596200004d6200010260201b60201c565b6200010a60201b60201c565b60008060146101000a81548160ff02191690831515021790555081600190805190602001906200008b929190620001ce565b508060029080519060200190620000a4929190620001ce565b50505080600c9080519060200190620000bf929190620001ce565b507ff3e2b708151c70b357259eea74e89f8ed28e3f979b6f25537c4cd44b9f0d75ba81604051620000f19190620003d2565b60405180910390a150505062000582565b600033905090565b60008060009054906101000a900473ffffffffffffffffffffffffffffffffffffffff169050816000806101000a81548173ffffffffffffffffffffffffffffffffffffffff021916908373ffffffffffffffffffffffffffffffffffffffff1602179055508173ffffffffffffffffffffffffffffffffffffffff168173ffffffffffffffffffffffffffffffffffffffff167f8be0079c531659141344cd1fd0a4f28419497f9722a3daafe3b4186f6b6457e060405160405180910390a35050565b828054620001dc90620004a7565b90600052602060002090601f0160209004810192826200020057600085556200024c565b82601f106200021b57805160ff19168380011785556200024c565b828001600101855582156200024c579182015b828111156200024b5782518255916020019190600101906200022e565b5b5090506200025b91906200025f565b5090565b5b808211156200027a57600081600090555060010162000260565b5090565b6000620002956200028f846200041f565b620003f6565b905082815260208101848484011115620002ae57600080fd5b620002bb84828562000471565b509392505050565b600082601f830112620002d557600080fd5b8151620002e78482602086016200027e565b91505092915050565b6000806000606084860312156200030657600080fd5b600084015167ffffffffffffffff8111156200032157600080fd5b6200032f86828701620002c3565b935050602084015167ffffffffffffffff8111156200034d57600080fd5b6200035b86828701620002c3565b925050604084015167ffffffffffffffff8111156200037957600080fd5b6200038786828701620002c3565b9150509250925092565b60006200039e8262000455565b620003aa818562000460565b9350620003bc81856020860162000471565b620003c78162000571565b840191505092915050565b60006020820190508181036000830152620003ee818462000391565b905092915050565b60006200040262000415565b9050620004108282620004dd565b919050565b6000604051905090565b600067ffffffffffffffff8211156200043d576200043c62000542565b5b620004488262000571565b9050602081019050919050565b600081519050919050565b600082825260208201905092915050565b60005b838110156200049157808201518184015260208101905062000474565b83811115620004a1576000848401525b50505050565b60006002820490506001821680620004c057607f821691505b60208210811415620004d757620004d662000513565b5b50919050565b620004e88262000571565b810181811067ffffffffffffffff821117156200050a576200050962000542565b5b80604052505050565b7f4e487b7100000000000000000000000000000000000000000000000000000000600052602260045260246000fd5b7f4e487b7100000000000000000000000000000000000000000000000000000000600052604160045260246000fd5b6000601f19601f8301169050919050565b61437280620005926000396000f3fe608060405234801561001057600080fd5b50600436106101e55760003560e01c80636ff97f1d1161010f578063bdbed722116100a2578063d2d0b90011610071578063d2d0b90014610570578063e985e9c51461058e578063f150f4f3146105be578063f2fde38b146105da576101e5565b8063bdbed722146104c2578063bec68163146104e0578063c87b56dd14610510578063d0def52114610540576101e5565b80638da5cb5b116100de5780638da5cb5b1461044e57806395d89b411461046c578063a22cb4651461048a578063b88d4fde146104a6576101e5565b80636ff97f1d146103ec57806370a082311461040a578063715018a61461043a5780638456cb5914610444576101e5565b806325f65c471161018757806342966c681161015657806342966c68146103525780634f6ccce71461036e5780635c975abb1461039e5780636352211e146103bc576101e5565b806325f65c47146102e05780632f745c59146102fc5780633f4ba83a1461032c57806342842e0e14610336576101e5565b8063095ea7b3116101c3578063095ea7b31461026857806318160ddd146102845780631c5b11d6146102a257806323b872dd146102c4576101e5565b806301ffc9a7146101ea57806306fdde031461021a578063081812fc14610238575b600080fd5b61020460048036038101906101ff9190612f9b565b6105f6565b6040516102119190613616565b60405180910390f35b610222610670565b60405161022f9190613655565b60405180910390f35b610252600480360381019061024d9190613032565b610702565b60405161025f9190613525565b60405180910390f35b610282600480360381019061027d9190612f5f565b610787565b005b61028c61089f565b6040516102999190613957565b60405180910390f35b6102aa6108ac565b6040516102bb95949392919061358c565b60405180910390f35b6102de60048036038101906102d99190612e05565b6108ee565b005b6102fa60048036038101906102f5919061305b565b61094e565b005b61031660048036038101906103119190612f5f565b610ac1565b6040516103239190613957565b60405180910390f35b610334610b66565b005b610350600480360381019061034b9190612e05565b610bec565b005b61036c60048036038101906103679190613032565b610c0c565b005b61038860048036038101906103839190613032565b610d3d565b6040516103959190613957565b60405180910390f35b6103a6610dd4565b6040516103b39190613616565b60405180910390f35b6103d660048036038101906103d19190613032565b610dea565b6040516103e39190613525565b60405180910390f35b6103f4610e9c565b60405161040191906135f4565b60405180910390f35b610424600480360381019061041f9190612da0565b610ef4565b6040516104319190613957565b60405180910390f35b610442610fac565b005b61044c611034565b005b6104566110ba565b6040516104639190613525565b60405180910390f35b6104746110e3565b6040516104819190613655565b60405180910390f35b6104a4600480360381019061049f9190612ecf565b611175565b005b6104c060048036038101906104bb9190612e54565b61118b565b005b6104ca6111ed565b6040516104d791906135f4565b60405180910390f35b6104fa60048036038101906104f59190613032565b6111fc565b6040516105079190613655565b60405180910390f35b61052a60048036038101906105259190613032565b6112f2565b6040516105379190613655565b60405180910390f35b61055a60048036038101906105559190612f0b565b611304565b6040516105679190613957565b60405180910390f35b6105786113b8565b6040516105859190613655565b60405180910390f35b6105a860048036038101906105a39190612dc9565b61144a565b6040516105b59190613616565b60405180910390f35b6105d860048036038101906105d39190612fed565b6114de565b005b6105f460048036038101906105ef9190612da0565b6115f1565b005b60007f780e9d63000000000000000000000000000000000000000000000000000000007bffffffffffffffffffffffffffffffffffffffffffffffffffffffff1916827bffffffffffffffffffffffffffffffffffffffffffffffffffffffff191614806106695750610668826116e9565b5b9050919050565b60606001805461067f90613baa565b80601f01602080910402602001604051908101604052809291908181526020018280546106ab90613baa565b80156106f85780601f106106cd576101008083540402835291602001916106f8565b820191906000526020600020905b8154815290600101906020018083116106db57829003601f168201915b5050505050905090565b600061070d826117cb565b61074c576040517f08c379a0000000000000000000000000000000000000000000000000000000008152600401610743906138b7565b60405180910390fd5b6005600083815260200190815260200160002060009054906101000a900473ffffffffffffffffffffffffffffffffffffffff169050919050565b600061079282610dea565b90508073ffffffffffffffffffffffffffffffffffffffff168373ffffffffffffffffffffffffffffffffffffffff161415610803576040517f08c379a00000000000000000000000000000000000000000000000000000000081526004016107fa906138f7565b60405180910390fd5b8073ffffffffffffffffffffffffffffffffffffffff16610822611837565b73ffffffffffffffffffffffffffffffffffffffff16148061085157506108508161084b611837565b61144a565b5b610890576040517f08c379a000000000000000000000000000000000000000000000000000000000815260040161088790613817565b60405180910390fd5b61089a838361183f565b505050565b6000600980549050905090565b6000606080606060006108bd6110ba565b6108c5610670565b6108cd6110e3565b6108d56113b8565b6108dd61089f565b945094509450945094509091929394565b6108ff6108f9611837565b826118f8565b61093e576040517f08c379a000000000000000000000000000000000000000000000000000000000815260040161093590613917565b60405180910390fd5b6109498383836119d6565b505050565b610956610dd4565b15610996576040517f08c379a000000000000000000000000000000000000000000000000000000000815260040161098d906137d7565b60405180910390fd5b61099e611837565b73ffffffffffffffffffffffffffffffffffffffff166109bc6110ba565b73ffffffffffffffffffffffffffffffffffffffff1614610a12576040517f08c379a0000000000000000000000000000000000000000000000000000000008152600401610a09906138d7565b60405180910390fd5b610a1b826117cb565b610a5a576040517f08c379a0000000000000000000000000000000000000000000000000000000008152600401610a51906137f7565b60405180910390fd5b80600d60008481526020019081526020016000206000019080519060200190610a84929190612ab4565b50817fd928ee5a1c1a1be89ca77fe2819766be2f442085c437a34963f243f966024f3382604051610ab59190613655565b60405180910390a25050565b6000610acc83610ef4565b8210610b0d576040517f08c379a0000000000000000000000000000000000000000000000000000000008152600401610b04906136b7565b60405180910390fd5b600760008473ffffffffffffffffffffffffffffffffffffffff1673ffffffffffffffffffffffffffffffffffffffff168152602001908152602001600020600083815260200190815260200160002054905092915050565b610b6e611837565b73ffffffffffffffffffffffffffffffffffffffff16610b8c6110ba565b73ffffffffffffffffffffffffffffffffffffffff1614610be2576040517f08c379a0000000000000000000000000000000000000000000000000000000008152600401610bd9906138d7565b60405180910390fd5b610bea611c3d565b565b610c078383836040518060200160405280600081525061118b565b505050565b610c14611837565b73ffffffffffffffffffffffffffffffffffffffff16610c326110ba565b73ffffffffffffffffffffffffffffffffffffffff1614610c88576040517f08c379a0000000000000000000000000000000000000000000000000000000008152600401610c7f906138d7565b60405180910390fd5b610c91816117cb565b610cd0576040517f08c379a0000000000000000000000000000000000000000000000000000000008152600401610cc790613877565b60405180910390fd5b610cd981611cde565b6000600d60008381526020019081526020016000206000018054610cfc90613baa565b905014610d3a57600d600082815260200190815260200160002060008082016000610d279190612b3a565b600182016000610d379190612b3a565b50505b50565b6000610d4761089f565b8210610d88576040517f08c379a0000000000000000000000000000000000000000000000000000000008152600401610d7f90613937565b60405180910390fd5b60098281548110610dc2577f4e487b7100000000000000000000000000000000000000000000000000000000600052603260045260246000fd5b90600052602060002001549050919050565b60008060149054906101000a900460ff16905090565b6000806003600084815260200190815260200160002060009054906101000a900473ffffffffffffffffffffffffffffffffffffffff169050600073ffffffffffffffffffffffffffffffffffffffff168173ffffffffffffffffffffffffffffffffffffffff161415610e93576040517f08c379a0000000000000000000000000000000000000000000000000000000008152600401610e8a90613857565b60405180910390fd5b80915050919050565b60606009805480602002602001604051908101604052809291908181526020018280548015610eea57602002820191906000526020600020905b815481526020019060010190808311610ed6575b5050505050905090565b60008073ffffffffffffffffffffffffffffffffffffffff168273ffffffffffffffffffffffffffffffffffffffff161415610f65576040517f08c379a0000000000000000000000000000000000000000000000000000000008152600401610f5c90613837565b60405180910390fd5b600460008373ffffffffffffffffffffffffffffffffffffffff1673ffffffffffffffffffffffffffffffffffffffff168152602001908152602001600020549050919050565b610fb4611837565b73ffffffffffffffffffffffffffffffffffffffff16610fd26110ba565b73ffffffffffffffffffffffffffffffffffffffff1614611028576040517f08c379a000000000000000000000000000000000000000000000000000000000815260040161101f906138d7565b60405180910390fd5b6110326000611dfb565b565b61103c611837565b73ffffffffffffffffffffffffffffffffffffffff1661105a6110ba565b73ffffffffffffffffffffffffffffffffffffffff16146110b0576040517f08c379a00000000000000000000000000000000000000000000000000000000081526004016110a7906138d7565b60405180910390fd5b6110b8611ebf565b565b60008060009054906101000a900473ffffffffffffffffffffffffffffffffffffffff16905090565b6060600280546110f290613baa565b80601f016020809104026020016040519081016040528092919081815260200182805461111e90613baa565b801561116b5780601f106111405761010080835404028352916020019161116b565b820191906000526020600020905b81548152906001019060200180831161114e57829003601f168201915b5050505050905090565b611187611180611837565b8383611f62565b5050565b61119c611196611837565b836118f8565b6111db576040517f08c379a00000000000000000000000000000000000000000000000000000000081526004016111d290613917565b60405180910390fd5b6111e7848484846120cf565b50505050565b60606111f7610e9c565b905090565b6060611207826117cb565b611246576040517f08c379a000000000000000000000000000000000000000000000000000000000815260040161123d90613757565b60405180910390fd5b6000600d6000848152602001908152602001600020600001805461126990613baa565b80601f016020809104026020016040519081016040528092919081815260200182805461129590613baa565b80156112e25780601f106112b7576101008083540402835291602001916112e2565b820191906000526020600020905b8154815290600101906020018083116112c557829003601f168201915b5050505050905080915050919050565b60606112fd826111fc565b9050919050565b600061130e611837565b73ffffffffffffffffffffffffffffffffffffffff1661132c6110ba565b73ffffffffffffffffffffffffffffffffffffffff1614611382576040517f08c379a0000000000000000000000000000000000000000000000000000000008152600401611379906138d7565b60405180910390fd5b61138c600b61212b565b6000611398600b612141565b90506113a4848261214f565b6113ae818461094e565b8091505092915050565b6060600c80546113c790613baa565b80601f01602080910402602001604051908101604052809291908181526020018280546113f390613baa565b80156114405780601f1061141557610100808354040283529160200191611440565b820191906000526020600020905b81548152906001019060200180831161142357829003601f168201915b5050505050905090565b6000600660008473ffffffffffffffffffffffffffffffffffffffff1673ffffffffffffffffffffffffffffffffffffffff16815260200190815260200160002060008373ffffffffffffffffffffffffffffffffffffffff1673ffffffffffffffffffffffffffffffffffffffff16815260200190815260200160002060009054906101000a900460ff16905092915050565b6114e6610dd4565b15611526576040517f08c379a000000000000000000000000000000000000000000000000000000000815260040161151d906137d7565b60405180910390fd5b61152e611837565b73ffffffffffffffffffffffffffffffffffffffff1661154c6110ba565b73ffffffffffffffffffffffffffffffffffffffff16146115a2576040517f08c379a0000000000000000000000000000000000000000000000000000000008152600401611599906138d7565b60405180910390fd5b8181600c91906115b3929190612b7a565b507ff3e2b708151c70b357259eea74e89f8ed28e3f979b6f25537c4cd44b9f0d75ba82826040516115e5929190613631565b60405180910390a15050565b6115f9611837565b73ffffffffffffffffffffffffffffffffffffffff166116176110ba565b73ffffffffffffffffffffffffffffffffffffffff161461166d576040517f08c379a0000000000000000000000000000000000000000000000000000000008152600401611664906138d7565b60405180910390fd5b600073ffffffffffffffffffffffffffffffffffffffff168173ffffffffffffffffffffffffffffffffffffffff1614156116dd576040517f08c379a00000000000000000000000000000000000000000000000000000000081526004016116d4906136f7565b60405180910390fd5b6116e681611dfb565b50565b60007f80ac58cd000000000000000000000000000000000000000000000000000000007bffffffffffffffffffffffffffffffffffffffffffffffffffffffff1916827bffffffffffffffffffffffffffffffffffffffffffffffffffffffff191614806117b457507f5b5e139f000000000000000000000000000000000000000000000000000000007bffffffffffffffffffffffffffffffffffffffffffffffffffffffff1916827bffffffffffffffffffffffffffffffffffffffffffffffffffffffff1916145b806117c457506117c38261216d565b5b9050919050565b60008073ffffffffffffffffffffffffffffffffffffffff166003600084815260200190815260200160002060009054906101000a900473ffffffffffffffffffffffffffffffffffffffff1673ffffffffffffffffffffffffffffffffffffffff1614159050919050565b600033905090565b816005600083815260200190815260200160002060006101000a81548173ffffffffffffffffffffffffffffffffffffffff021916908373ffffffffffffffffffffffffffffffffffffffff160217905550808273ffffffffffffffffffffffffffffffffffffffff166118b283610dea565b73ffffffffffffffffffffffffffffffffffffffff167f8c5be1e5ebec7d5bd14f71427d1e84f3dd0314c0f7b2291e5b200ac8c7c3b92560405160405180910390a45050565b6000611903826117cb565b611942576040517f08c379a0000000000000000000000000000000000000000000000000000000008152600401611939906137b7565b60405180910390fd5b600061194d83610dea565b90508073ffffffffffffffffffffffffffffffffffffffff168473ffffffffffffffffffffffffffffffffffffffff1614806119bc57508373ffffffffffffffffffffffffffffffffffffffff166119a484610702565b73ffffffffffffffffffffffffffffffffffffffff16145b806119cd57506119cc818561144a565b5b91505092915050565b8273ffffffffffffffffffffffffffffffffffffffff166119f682610dea565b73ffffffffffffffffffffffffffffffffffffffff1614611a4c576040517f08c379a0000000000000000000000000000000000000000000000000000000008152600401611a4390613717565b60405180910390fd5b600073ffffffffffffffffffffffffffffffffffffffff168273ffffffffffffffffffffffffffffffffffffffff161415611abc576040517f08c379a0000000000000000000000000000000000000000000000000000000008152600401611ab390613777565b60405180910390fd5b611ac78383836121d7565b611ad260008261183f565b6001600460008573ffffffffffffffffffffffffffffffffffffffff1673ffffffffffffffffffffffffffffffffffffffff1681526020019081526020016000206000828254611b229190613ac0565b925050819055506001600460008473ffffffffffffffffffffffffffffffffffffffff1673ffffffffffffffffffffffffffffffffffffffff1681526020019081526020016000206000828254611b799190613a6a565b92505081905550816003600083815260200190815260200160002060006101000a81548173ffffffffffffffffffffffffffffffffffffffff021916908373ffffffffffffffffffffffffffffffffffffffff160217905550808273ffffffffffffffffffffffffffffffffffffffff168473ffffffffffffffffffffffffffffffffffffffff167fddf252ad1be2c89b69c2b068fc378daa952ba7f163c4a11628f55a4df523b3ef60405160405180910390a4611c3883838361222f565b505050565b611c45610dd4565b611c84576040517f08c379a0000000000000000000000000000000000000000000000000000000008152600401611c7b90613677565b60405180910390fd5b60008060146101000a81548160ff0219169083151502179055507f5db9ee0a495bf2e6ff9c91a7834c1ba4fdd244a5e8aa4e537bd38aeae4b073aa611cc7611837565b604051611cd49190613525565b60405180910390a1565b6000611ce982610dea565b9050611cf7816000846121d7565b611d0260008361183f565b6001600460008373ffffffffffffffffffffffffffffffffffffffff1673ffffffffffffffffffffffffffffffffffffffff1681526020019081526020016000206000828254611d529190613ac0565b925050819055506003600083815260200190815260200160002060006101000a81549073ffffffffffffffffffffffffffffffffffffffff021916905581600073ffffffffffffffffffffffffffffffffffffffff168273ffffffffffffffffffffffffffffffffffffffff167fddf252ad1be2c89b69c2b068fc378daa952ba7f163c4a11628f55a4df523b3ef60405160405180910390a4611df78160008461222f565b5050565b60008060009054906101000a900473ffffffffffffffffffffffffffffffffffffffff169050816000806101000a81548173ffffffffffffffffffffffffffffffffffffffff021916908373ffffffffffffffffffffffffffffffffffffffff1602179055508173ffffffffffffffffffffffffffffffffffffffff168173ffffffffffffffffffffffffffffffffffffffff167f8be0079c531659141344cd1fd0a4f28419497f9722a3daafe3b4186f6b6457e060405160405180910390a35050565b611ec7610dd4565b15611f07576040517f08c379a0000000000000000000000000000000000000000000000000000000008152600401611efe906137d7565b60405180910390fd5b6001600060146101000a81548160ff0219169083151502179055507f62e78cea01bee320cd4e420270b5ea74000d11b0c9f74754ebdbfc544b05a258611f4b611837565b604051611f589190613525565b60405180910390a1565b8173ffffffffffffffffffffffffffffffffffffffff168373ffffffffffffffffffffffffffffffffffffffff161415611fd1576040517f08c379a0000000000000000000000000000000000000000000000000000000008152600401611fc890613797565b60405180910390fd5b80600660008573ffffffffffffffffffffffffffffffffffffffff1673ffffffffffffffffffffffffffffffffffffffff16815260200190815260200160002060008473ffffffffffffffffffffffffffffffffffffffff1673ffffffffffffffffffffffffffffffffffffffff16815260200190815260200160002060006101000a81548160ff0219169083151502179055508173ffffffffffffffffffffffffffffffffffffffff168373ffffffffffffffffffffffffffffffffffffffff167f17307eab39ab6107e8899845ad3d59bd9653f200f220920489ca2b5937696c31836040516120c29190613616565b60405180910390a3505050565b6120da8484846119d6565b6120e684848484612234565b612125576040517f08c379a000000000000000000000000000000000000000000000000000000000815260040161211c906136d7565b60405180910390fd5b50505050565b6001816000016000828254019250508190555050565b600081600001549050919050565b6121698282604051806020016040528060008152506123cb565b5050565b60007f01ffc9a7000000000000000000000000000000000000000000000000000000007bffffffffffffffffffffffffffffffffffffffffffffffffffffffff1916827bffffffffffffffffffffffffffffffffffffffffffffffffffffffff1916149050919050565b6121df610dd4565b1561221f576040517f08c379a000000000000000000000000000000000000000000000000000000000815260040161221690613697565b60405180910390fd5b61222a838383612426565b505050565b505050565b60006122558473ffffffffffffffffffffffffffffffffffffffff1661253a565b156123be578373ffffffffffffffffffffffffffffffffffffffff1663150b7a0261227e611837565b8786866040518563ffffffff1660e01b81526004016122a09493929190613540565b602060405180830381600087803b1580156122ba57600080fd5b505af19250505080156122eb57506040513d601f19601f820116820180604052508101906122e89190612fc4565b60015b61236e573d806000811461231b576040519150601f19603f3d011682016040523d82523d6000602084013e612320565b606091505b50600081511415612366576040517f08c379a000000000000000000000000000000000000000000000000000000000815260040161235d906136d7565b60405180910390fd5b805181602001fd5b63150b7a0260e01b7bffffffffffffffffffffffffffffffffffffffffffffffffffffffff1916817bffffffffffffffffffffffffffffffffffffffffffffffffffffffff1916149150506123c3565b600190505b949350505050565b6123d5838361255d565b6123e26000848484612234565b612421576040517f08c379a0000000000000000000000000000000000000000000000000000000008152600401612418906136d7565b60405180910390fd5b505050565b612431838383612737565b600073ffffffffffffffffffffffffffffffffffffffff168373ffffffffffffffffffffffffffffffffffffffff1614156124745761246f8161273c565b6124b3565b8173ffffffffffffffffffffffffffffffffffffffff168373ffffffffffffffffffffffffffffffffffffffff16146124b2576124b18382612785565b5b5b600073ffffffffffffffffffffffffffffffffffffffff168273ffffffffffffffffffffffffffffffffffffffff1614156124f6576124f1816128f2565b612535565b8273ffffffffffffffffffffffffffffffffffffffff168273ffffffffffffffffffffffffffffffffffffffff1614612534576125338282612a35565b5b5b505050565b6000808273ffffffffffffffffffffffffffffffffffffffff163b119050919050565b600073ffffffffffffffffffffffffffffffffffffffff168273ffffffffffffffffffffffffffffffffffffffff1614156125cd576040517f08c379a00000000000000000000000000000000000000000000000000000000081526004016125c490613897565b60405180910390fd5b6125d6816117cb565b15612616576040517f08c379a000000000000000000000000000000000000000000000000000000000815260040161260d90613737565b60405180910390fd5b612622600083836121d7565b6001600460008473ffffffffffffffffffffffffffffffffffffffff1673ffffffffffffffffffffffffffffffffffffffff16815260200190815260200160002060008282546126729190613a6a565b92505081905550816003600083815260200190815260200160002060006101000a81548173ffffffffffffffffffffffffffffffffffffffff021916908373ffffffffffffffffffffffffffffffffffffffff160217905550808273ffffffffffffffffffffffffffffffffffffffff16600073ffffffffffffffffffffffffffffffffffffffff167fddf252ad1be2c89b69c2b068fc378daa952ba7f163c4a11628f55a4df523b3ef60405160405180910390a46127336000838361222f565b5050565b505050565b600980549050600a600083815260200190815260200160002081905550600981908060018154018082558091505060019003906000526020600020016000909190919091505550565b6000600161279284610ef4565b61279c9190613ac0565b9050600060086000848152602001908152602001600020549050818114612881576000600760008673ffffffffffffffffffffffffffffffffffffffff1673ffffffffffffffffffffffffffffffffffffffff168152602001908152602001600020600084815260200190815260200160002054905080600760008773ffffffffffffffffffffffffffffffffffffffff1673ffffffffffffffffffffffffffffffffffffffff168152602001908152602001600020600084815260200190815260200160002081905550816008600083815260200190815260200160002081905550505b6008600084815260200190815260200160002060009055600760008573ffffffffffffffffffffffffffffffffffffffff1673ffffffffffffffffffffffffffffffffffffffff16815260200190815260200160002060008381526020019081526020016000206000905550505050565b600060016009805490506129069190613ac0565b90506000600a600084815260200190815260200160002054905060006009838154811061295c577f4e487b7100000000000000000000000000000000000000000000000000000000600052603260045260246000fd5b9060005260206000200154905080600983815481106129a4577f4e487b7100000000000000000000000000000000000000000000000000000000600052603260045260246000fd5b906000526020600020018190555081600a600083815260200190815260200160002081905550600a6000858152602001908152602001600020600090556009805480612a19577f4e487b7100000000000000000000000000000000000000000000000000000000600052603160045260246000fd5b6001900381819060005260206000200160009055905550505050565b6000612a4083610ef4565b905081600760008573ffffffffffffffffffffffffffffffffffffffff1673ffffffffffffffffffffffffffffffffffffffff168152602001908152602001600020600083815260200190815260200160002081905550806008600084815260200190815260200160002081905550505050565b828054612ac090613baa565b90600052602060002090601f016020900481019282612ae25760008555612b29565b82601f10612afb57805160ff1916838001178555612b29565b82800160010185558215612b29579182015b82811115612b28578251825591602001919060010190612b0d565b5b509050612b369190612c00565b5090565b508054612b4690613baa565b6000825580601f10612b585750612b77565b601f016020900490600052602060002090810190612b769190612c00565b5b50565b828054612b8690613baa565b90600052602060002090601f016020900481019282612ba85760008555612bef565b82601f10612bc157803560ff1916838001178555612bef565b82800160010185558215612bef579182015b82811115612bee578235825591602001919060010190612bd3565b5b509050612bfc9190612c00565b5090565b5b80821115612c19576000816000905550600101612c01565b5090565b6000612c30612c2b84613997565b613972565b905082815260208101848484011115612c4857600080fd5b612c53848285613b68565b509392505050565b6000612c6e612c69846139c8565b613972565b905082815260208101848484011115612c8657600080fd5b612c91848285613b68565b509392505050565b600081359050612ca8816142e0565b92915050565b600081359050612cbd816142f7565b92915050565b600081359050612cd28161430e565b92915050565b600081519050612ce78161430e565b92915050565b600082601f830112612cfe57600080fd5b8135612d0e848260208601612c1d565b91505092915050565b60008083601f840112612d2957600080fd5b8235905067ffffffffffffffff811115612d4257600080fd5b602083019150836001820283011115612d5a57600080fd5b9250929050565b600082601f830112612d7257600080fd5b8135612d82848260208601612c5b565b91505092915050565b600081359050612d9a81614325565b92915050565b600060208284031215612db257600080fd5b6000612dc084828501612c99565b91505092915050565b60008060408385031215612ddc57600080fd5b6000612dea85828601612c99565b9250506020612dfb85828601612c99565b9150509250929050565b600080600060608486031215612e1a57600080fd5b6000612e2886828701612c99565b9350506020612e3986828701612c99565b9250506040612e4a86828701612d8b565b9150509250925092565b60008060008060808587031215612e6a57600080fd5b6000612e7887828801612c99565b9450506020612e8987828801612c99565b9350506040612e9a87828801612d8b565b925050606085013567ffffffffffffffff811115612eb757600080fd5b612ec387828801612ced565b91505092959194509250565b60008060408385031215612ee257600080fd5b6000612ef085828601612c99565b9250506020612f0185828601612cae565b9150509250929050565b60008060408385031215612f1e57600080fd5b6000612f2c85828601612c99565b925050602083013567ffffffffffffffff811115612f4957600080fd5b612f5585828601612d61565b9150509250929050565b60008060408385031215612f7257600080fd5b6000612f8085828601612c99565b9250506020612f9185828601612d8b565b9150509250929050565b600060208284031215612fad57600080fd5b6000612fbb84828501612cc3565b91505092915050565b600060208284031215612fd657600080fd5b6000612fe484828501612cd8565b91505092915050565b6000806020838503121561300057600080fd5b600083013567ffffffffffffffff81111561301a57600080fd5b61302685828601612d17565b92509250509250929050565b60006020828403121561304457600080fd5b600061305284828501612d8b565b91505092915050565b6000806040838503121561306e57600080fd5b600061307c85828601612d8b565b925050602083013567ffffffffffffffff81111561309957600080fd5b6130a585828601612d61565b9150509250929050565b60006130bb8383613507565b60208301905092915050565b6130d081613af4565b82525050565b60006130e182613a09565b6130eb8185613a37565b93506130f6836139f9565b8060005b8381101561312757815161310e88826130af565b975061311983613a2a565b9250506001810190506130fa565b5085935050505092915050565b61313d81613b06565b82525050565b600061314e82613a14565b6131588185613a48565b9350613168818560208601613b77565b61317181613c9a565b840191505092915050565b60006131888385613a59565b9350613195838584613b68565b61319e83613c9a565b840190509392505050565b60006131b482613a1f565b6131be8185613a59565b93506131ce818560208601613b77565b6131d781613c9a565b840191505092915050565b60006131ef601483613a59565b91506131fa82613cab565b602082019050919050565b6000613212604283613a59565b915061321d82613cd4565b606082019050919050565b6000613235602b83613a59565b915061324082613d49565b604082019050919050565b6000613258603283613a59565b915061326382613d98565b604082019050919050565b600061327b602683613a59565b915061328682613de7565b604082019050919050565b600061329e602583613a59565b91506132a982613e36565b604082019050919050565b60006132c1601c83613a59565b91506132cc82613e85565b602082019050919050565b60006132e4602583613a59565b91506132ef82613eae565b604082019050919050565b6000613307602483613a59565b915061331282613efd565b604082019050919050565b600061332a601983613a59565b915061333582613f4c565b602082019050919050565b600061334d602c83613a59565b915061335882613f75565b604082019050919050565b6000613370601083613a59565b915061337b82613fc4565b602082019050919050565b6000613393602583613a59565b915061339e82613fed565b604082019050919050565b60006133b6603883613a59565b91506133c18261403c565b604082019050919050565b60006133d9602a83613a59565b91506133e48261408b565b604082019050919050565b60006133fc602983613a59565b9150613407826140da565b604082019050919050565b600061341f602083613a59565b915061342a82614129565b602082019050919050565b6000613442602083613a59565b915061344d82614152565b602082019050919050565b6000613465602c83613a59565b91506134708261417b565b604082019050919050565b6000613488602083613a59565b9150613493826141ca565b602082019050919050565b60006134ab602183613a59565b91506134b6826141f3565b604082019050919050565b60006134ce603183613a59565b91506134d982614242565b604082019050919050565b60006134f1602c83613a59565b91506134fc82614291565b604082019050919050565b61351081613b5e565b82525050565b61351f81613b5e565b82525050565b600060208201905061353a60008301846130c7565b92915050565b600060808201905061355560008301876130c7565b61356260208301866130c7565b61356f6040830185613516565b81810360608301526135818184613143565b905095945050505050565b600060a0820190506135a160008301886130c7565b81810360208301526135b381876131a9565b905081810360408301526135c781866131a9565b905081810360608301526135db81856131a9565b90506135ea6080830184613516565b9695505050505050565b6000602082019050818103600083015261360e81846130d6565b905092915050565b600060208201905061362b6000830184613134565b92915050565b6000602082019050818103600083015261364c81848661317c565b90509392505050565b6000602082019050818103600083015261366f81846131a9565b905092915050565b60006020820190508181036000830152613690816131e2565b9050919050565b600060208201905081810360008301526136b081613205565b9050919050565b600060208201905081810360008301526136d081613228565b9050919050565b600060208201905081810360008301526136f08161324b565b9050919050565b600060208201905081810360008301526137108161326e565b9050919050565b6000602082019050818103600083015261373081613291565b9050919050565b60006020820190508181036000830152613750816132b4565b9050919050565b60006020820190508181036000830152613770816132d7565b9050919050565b60006020820190508181036000830152613790816132fa565b9050919050565b600060208201905081810360008301526137b08161331d565b9050919050565b600060208201905081810360008301526137d081613340565b9050919050565b600060208201905081810360008301526137f081613363565b9050919050565b6000602082019050818103600083015261381081613386565b9050919050565b60006020820190508181036000830152613830816133a9565b9050919050565b60006020820190508181036000830152613850816133cc565b9050919050565b60006020820190508181036000830152613870816133ef565b9050919050565b6000602082019050818103600083015261389081613412565b9050919050565b600060208201905081810360008301526138b081613435565b9050919050565b600060208201905081810360008301526138d081613458565b9050919050565b600060208201905081810360008301526138f08161347b565b9050919050565b600060208201905081810360008301526139108161349e565b9050919050565b60006020820190508181036000830152613930816134c1565b9050919050565b60006020820190508181036000830152613950816134e4565b9050919050565b600060208201905061396c6000830184613516565b92915050565b600061397c61398d565b90506139888282613bdc565b919050565b6000604051905090565b600067ffffffffffffffff8211156139b2576139b1613c6b565b5b6139bb82613c9a565b9050602081019050919050565b600067ffffffffffffffff8211156139e3576139e2613c6b565b5b6139ec82613c9a565b9050602081019050919050565b6000819050602082019050919050565b600081519050919050565b600081519050919050565b600081519050919050565b6000602082019050919050565b600082825260208201905092915050565b600082825260208201905092915050565b600082825260208201905092915050565b6000613a7582613b5e565b9150613a8083613b5e565b9250827fffffffffffffffffffffffffffffffffffffffffffffffffffffffffffffffff03821115613ab557613ab4613c0d565b5b828201905092915050565b6000613acb82613b5e565b9150613ad683613b5e565b925082821015613ae957613ae8613c0d565b5b828203905092915050565b6000613aff82613b3e565b9050919050565b60008115159050919050565b60007fffffffff0000000000000000000000000000000000000000000000000000000082169050919050565b600073ffffffffffffffffffffffffffffffffffffffff82169050919050565b6000819050919050565b82818337600083830152505050565b60005b83811015613b95578082015181840152602081019050613b7a565b83811115613ba4576000848401525b50505050565b60006002820490506001821680613bc257607f821691505b60208210811415613bd657613bd5613c3c565b5b50919050565b613be582613c9a565b810181811067ffffffffffffffff82111715613c0457613c03613c6b565b5b80604052505050565b7f4e487b7100000000000000000000000000000000000000000000000000000000600052601160045260246000fd5b7f4e487b7100000000000000000000000000000000000000000000000000000000600052602260045260246000fd5b7f4e487b7100000000000000000000000000000000000000000000000000000000600052604160045260246000fd5b6000601f19601f8301169050919050565b7f5061757361626c653a206e6f7420706175736564000000000000000000000000600082015250565b7f56634e46545061757361626c653a205f6265666f7265546f6b656e5472616e7360008201527f666572203d3e20746f6b656e207472616e73666572207768696c65207061757360208201527f6564000000000000000000000000000000000000000000000000000000000000604082015250565b7f455243373231456e756d657261626c653a206f776e657220696e646578206f7560008201527f74206f6620626f756e6473000000000000000000000000000000000000000000602082015250565b7f4552433732313a207472616e7366657220746f206e6f6e20455243373231526560008201527f63656976657220696d706c656d656e7465720000000000000000000000000000602082015250565b7f4f776e61626c653a206e6577206f776e657220697320746865207a65726f206160008201527f6464726573730000000000000000000000000000000000000000000000000000602082015250565b7f4552433732313a207472616e736665722066726f6d20696e636f72726563742060008201527f6f776e6572000000000000000000000000000000000000000000000000000000602082015250565b7f4552433732313a20746f6b656e20616c7265616479206d696e74656400000000600082015250565b7f56634e46543a20676574436f61555249203d3e206e6f6e6578697374656e742060008201527f746f6b656e000000000000000000000000000000000000000000000000000000602082015250565b7f4552433732313a207472616e7366657220746f20746865207a65726f2061646460008201527f7265737300000000000000000000000000000000000000000000000000000000602082015250565b7f4552433732313a20617070726f766520746f2063616c6c657200000000000000600082015250565b7f4552433732313a206f70657261746f7220717565727920666f72206e6f6e657860008201527f697374656e7420746f6b656e0000000000000000000000000000000000000000602082015250565b7f5061757361626c653a2070617573656400000000000000000000000000000000600082015250565b7f76634e46543a20736574436f61555249203d3e206e6f6e6578697374656e742060008201527f746f6b656e000000000000000000000000000000000000000000000000000000602082015250565b7f4552433732313a20617070726f76652063616c6c6572206973206e6f74206f7760008201527f6e6572206e6f7220617070726f76656420666f7220616c6c0000000000000000602082015250565b7f4552433732313a2062616c616e636520717565727920666f7220746865207a6560008201527f726f206164647265737300000000000000000000000000000000000000000000602082015250565b7f4552433732313a206f776e657220717565727920666f72206e6f6e657869737460008201527f656e7420746f6b656e0000000000000000000000000000000000000000000000602082015250565b7f56634e46543a206275726e203d3e206e6f6e6578697374656e7420746f6b656e600082015250565b7f4552433732313a206d696e7420746f20746865207a65726f2061646472657373600082015250565b7f4552433732313a20617070726f76656420717565727920666f72206e6f6e657860008201527f697374656e7420746f6b656e0000000000000000000000000000000000000000602082015250565b7f4f776e61626c653a2063616c6c6572206973206e6f7420746865206f776e6572600082015250565b7f4552433732313a20617070726f76616c20746f2063757272656e74206f776e6560008201527f7200000000000000000000000000000000000000000000000000000000000000602082015250565b7f4552433732313a207472616e736665722063616c6c6572206973206e6f74206f60008201527f776e6572206e6f7220617070726f766564000000000000000000000000000000602082015250565b7f455243373231456e756d657261626c653a20676c6f62616c20696e646578206f60008201527f7574206f6620626f756e64730000000000000000000000000000000000000000602082015250565b6142e981613af4565b81146142f457600080fd5b50565b61430081613b06565b811461430b57600080fd5b50565b61431781613b12565b811461432257600080fd5b50565b61432e81613b5e565b811461433957600080fd5b5056fea26469706673582212208298131f8d6317a76b2d349b465a0c05874d6fb4fb9cf7add6575cbeec1078e764736f6c63430008010033",
  "immutableReferences": {},
  "source": "// SPDX-License-Identifier: MIT\npragma solidity 0.8.1;\n\nimport \"@openzeppelin/contracts/utils/Counters.sol\";\nimport \"@openzeppelin/contracts/access/Ownable.sol\";\nimport \"@openzeppelin/contracts/security/Pausable.sol\";\nimport \"./ERC721Enumerable2.sol\";\n\n\n/// @title Portoflio of Verifiable NFTs Contract.\n/// @author D Collette.\n/// @notice You can use this contract to create/mint and store Verifiable NFTs: Certificate of Authenticity, Certificate of Ownership, etc. A tokenId is a location (space) in the contract (portfolio).\n/// @dev Need to support Certificate Of Ownership (ownership information in COO - JSON Web Token stored on IPFS like the COA). \n/// @dev Support of COO will make the NFT transferable to another portfolio/Chain (unchained NFT: burned from origin and created at destination): can be moved to another compatible portfolios/wallets.\n\ncontract vcNFT is Ownable, Pausable, ERC721Enumerable  {\n  using Counters for Counters.Counter;\n\n  /// @dev Counter used to count the number of 'tokenId' minted.  \n  Counters.Counter private _tokenIds;\n  \n  /// @dev Counter used to count the number of 'tokenId' minted.  \n  string private _portfolioURI;\n\n  /// @dev Structure to store the Verifiable credentials of one NFT: Certificate Of Authenticity and Certificate Of Ownership.  \n  struct VerifiableCredentials {\n    // string issuerDid; // DID of Author/Artist can be extracted from COA.\n    // string subjectDid; // NFT is subject and holder at the same time - DID of NFT: can be extracted from COA.\n    string coaURI; //Current implementation: IPFS-CID of Certificate Of Authenticity (Verifiable Credentials in JSON format).\n    string cooURI; ///Current implementation : IPFS-CID of Certificate Of Onwership  (Verifiable Credential).\n  }\n\n  /// @dev Verifiabl Credentials for NFTs: mapping between a TokenID (location) and its asscoiated VerifiableCredentials.\n  mapping(uint256 => VerifiableCredentials) private _vcs; // Verifiabl Credentials of NFTs.\n\n  /// @notice Emitted when a Certificate Of Authority is set.\n  /// @dev Emitted when a Certificate Of Authority is set for a tokenId (location).\n  event CoaURISet(uint256 indexed tokenId, string coaURI);\n\n  /// @notice Emitted when PortfolioURI is set.\n  /// @dev Emitted when PortfolioURI is set.\n  event PortfolioURISet(string portfolioURI);\n\n  constructor(string memory name_, string memory symbol_, string memory portfolioURI_) ERC721(name_, symbol_) {\n    _portfolioURI = portfolioURI_;\n    emit PortfolioURISet(portfolioURI_);\n  }\n\n    /// @notice Get Portfolio information.\n    /// @dev Get Portfolio info: owner, name, symbol, portfolio URI, total supply. \n    /// @return array with information: address:owner, string:name, string:symbol , string:portfolioURI, uint256:totalSupply\n    function portfolioInfo() external view returns (address, string memory, string memory, string memory, uint256) {\n      return (owner(), name(), symbol(), getPortfolioURI(), totalSupply());\n    }\n\n    /// @notice Get Portfolio URI.\n    /// @dev Get Portfolio URI.\n    /// @return string:portfolioURI.\n    function getPortfolioURI() public view returns (string memory) {\n      return _portfolioURI;\n    }\n\n    /// @notice Set Portfolio URI.\n    /// @dev Set Portfolio URI and emits an event 'PortfolioURISet'.\n    /// @dev Requirements: whenNotPaused and onlyOwner\n    /// @param portfolioURI_ URI of the portfolio - current implementation IPFS-CID of image.\n    function setPortfolioURI(string calldata portfolioURI_) external whenNotPaused onlyOwner {\n      _portfolioURI = portfolioURI_;\n      emit PortfolioURISet(portfolioURI_);\n    }\n\n    /// @notice Get all TokenIds in use.\n    /// @dev Get all TokenIds with an NFT: verifiable credentials COA and COO.\n    /// @return uint256[]:tokenIds.\n    function getAllTokenIds() external view returns (uint256[] memory) {\n      return allTokens();\n    }\n\n    /// @notice See {vcNFT-getCoaURI}.\n    /// @dev See {vcNFT-getCoaURI}.\n    function tokenURI(uint256 tokenId) public view override returns (string memory) {\n      return getCoaURI(tokenId);\n    }\n\n    /// @notice Get COA URI for a tokenId.\n    /// @dev Get COA URI for a tokenId if tokenId exists. Current implementation of COA URI is IPFS-CID of COA\n    /// @dev Requirements: TokenId must exist.\n    /// @param tokenId location.\n    /// @return string:COA URI\n    function getCoaURI(uint256 tokenId) public view returns (string memory) {\n        require(_exists(tokenId), \"VcNFT: getCoaURI => nonexistent token\");\n        string memory _coaURI = _vcs[tokenId].coaURI;\n        return _coaURI;\n    }\n\n    /// @notice Get COA URI for a tokenId.\n    /// @dev Get COA URI for a tokenId if tokenId exists and emits an event 'CoaURISet'. Current implementation of COA URI is IPFS-CID of COA.\n    /// @dev Requirements: whenNotPaused and onlyOwner. 'tokenId' must exist.\n    /// @param tokenId location.\n    /// @param _coaURI URI of COA - Current implementation is IPFS-CID of COA.\n    function setCoaURI(uint256 tokenId, string memory _coaURI) public whenNotPaused onlyOwner  {\n        require(_exists(tokenId), \"vcNFT: setCoaURI => nonexistent token\");\n        _vcs[tokenId].coaURI = _coaURI;\n        emit CoaURISet(tokenId, _coaURI);\n    }\n\n    /// @notice Mint an NFT.\n    /// @dev Mint an NFT. Current implementation does not have the Certificate of Ownership. Should become MOVE an NFT to toa new location in the portfolio.\n    /// @dev Still using the owner concept of ERC721. Should be replaced by COO JSON Web Token signed (Verifiable Credential).\n    /// @dev Requirements: whenNotPaused and onlyOwner.\n    /// @param recipient address of owner - current implementation it is an ethereum address. Should be a DID.\n    /// @param _coaURI URI of COA - Current implementation is IPFS-CID of COA.\n    /// @return uint256:new tokenId (new location where NFT is stored).\n    function mint(address recipient, string memory _coaURI) external onlyOwner returns (uint256)\n    {\n        _tokenIds.increment();\n        uint256 newTokenId = _tokenIds.current();\n        _safeMint(recipient, newTokenId);\n        setCoaURI(newTokenId, _coaURI);\n        return newTokenId;\n    }\n\n    /// @notice Destroy an NFT.\n    /// @dev Destroys 'tokenId'. Emits an event 'trasnfer'. Current implementation is still burning an NFT. Should become moving out an NFT (move an nft from one location to another one).\n    /// @dev Still using the owner concept of ERC721. Should be replaced by COO JSON Web Token signed (Verifiable Credential).\n    /// @dev Requirements: whenNotPaused and onlyOwner. 'tokenId' must exist.\n    /// @param tokenId Location of NFT to be burned.\n    function burn(uint256 tokenId) external onlyOwner {\n      require(_exists(tokenId), \"VcNFT: burn => nonexistent token\");\n      ERC721._burn(tokenId);\n      if (bytes(_vcs[tokenId].coaURI).length != 0) {\n          delete _vcs[tokenId];\n      }\n    }\n    \n    /// @dev Internal helper: compare two strings.\n    function _equalStrings(string memory a, string memory b) internal pure returns( bool ) {\n        return keccak256(bytes(a)) == keccak256(bytes(b));\n    }\n\n    /// @notice Pause vcNFT Contract.\n    /// @dev Pause all token transfers (mint - burn), setPortfolioURI and setCoaURI.\n    /// @dev Requirements: whenNotPaused and onlyOwner.\n    function pause() external onlyOwner {\n        _pause();\n    }\n\n    /// @notice Unpause vcNFT Contract.\n    /// @dev Unpause all token transfers (mint - burn), setPortfolioURI and setCoaURI.\n    /// @dev Requirements: whenPaused and onlyOwner.\n    function unpause() external onlyOwner {\n        _unpause();\n    }\n\n    /// @dev See {ERC721-_beforeTokenTransfer}. Internal.\n    /// @dev Requirements: The contract must not be paused.\n    function _beforeTokenTransfer(address from, address to, uint256 tokenId) internal virtual override {\n        require(!paused(), \"VcNFTPausable: _beforeTokenTransfer => token transfer while paused\");\n        super._beforeTokenTransfer(from, to, tokenId);\n    }\n\n}",
  "sourcePath": "C:\\Users\\didier.collette\\git\\blockchain-developer-bootcamp-final-project\\chain\\contracts\\vcNFT.sol",
  "compiler": {
    "name": "solc",
    "version": "0.8.1+commit.df193b15.Emscripten.clang"
  },
  "schemaVersion": "3.4.4",
  "updatedAt": "2022-03-03T11:49:08.114Z",
  "devdoc": {
    "author": "D Collette.",
    "details": "Need to support Certificate Of Ownership (ownership information in COO - JSON Web Token stored on IPFS like the COA). Support of COO will make the NFT transferable to another portfolio/Chain (unchained NFT: burned from origin and created at destination): can be moved to another compatible portfolios/wallets.",
    "events": {
      "CoaURISet(uint256,string)": {
        "details": "Emitted when a Certificate Of Authority is set for a tokenId (location)."
      },
      "PortfolioURISet(string)": {
        "details": "Emitted when PortfolioURI is set."
      }
    },
    "kind": "dev",
    "methods": {
      "allTokens()": {
        "details": "Get _allTokens array with tokenIds used in Portfolio. ",
        "returns": {
          "_0": "uint256[]:array."
        }
      },
      "approve(address,uint256)": {
        "details": "See {IERC721-approve}."
      },
      "balanceOf(address)": {
        "details": "See {IERC721-balanceOf}."
      },
      "burn(uint256)": {
        "details": "Destroys 'tokenId'. Emits an event 'trasnfer'. Current implementation is still burning an NFT. Should become moving out an NFT (move an nft from one location to another one).Still using the owner concept of ERC721. Should be replaced by COO JSON Web Token signed (Verifiable Credential).Requirements: whenNotPaused and onlyOwner. 'tokenId' must exist.",
        "params": {
          "tokenId": "Location of NFT to be burned."
        }
      },
      "getAllTokenIds()": {
        "details": "Get all TokenIds with an NFT: verifiable credentials COA and COO.",
        "returns": {
          "_0": "uint256[]:tokenIds."
        }
      },
      "getApproved(uint256)": {
        "details": "See {IERC721-getApproved}."
      },
      "getCoaURI(uint256)": {
        "details": "Get COA URI for a tokenId if tokenId exists. Current implementation of COA URI is IPFS-CID of COARequirements: TokenId must exist.",
        "params": {
          "tokenId": "location."
        },
        "returns": {
          "_0": "string:COA URI"
        }
      },
      "getPortfolioURI()": {
        "details": "Get Portfolio URI.",
        "returns": {
          "_0": "string:portfolioURI."
        }
      },
      "isApprovedForAll(address,address)": {
        "details": "See {IERC721-isApprovedForAll}."
      },
      "mint(address,string)": {
        "details": "Mint an NFT. Current implementation does not have the Certificate of Ownership. Should become MOVE an NFT to toa new location in the portfolio.Still using the owner concept of ERC721. Should be replaced by COO JSON Web Token signed (Verifiable Credential).Requirements: whenNotPaused and onlyOwner.",
        "params": {
          "_coaURI": "URI of COA - Current implementation is IPFS-CID of COA.",
          "recipient": "address of owner - current implementation it is an ethereum address. Should be a DID."
        },
        "returns": {
          "_0": "uint256:new tokenId (new location where NFT is stored)."
        }
      },
      "name()": {
        "details": "See {IERC721Metadata-name}."
      },
      "owner()": {
        "details": "Returns the address of the current owner."
      },
      "ownerOf(uint256)": {
        "details": "See {IERC721-ownerOf}."
      },
      "pause()": {
        "details": "Pause all token transfers (mint - burn), setPortfolioURI and setCoaURI.Requirements: whenNotPaused and onlyOwner."
      },
      "paused()": {
        "details": "Returns true if the contract is paused, and false otherwise."
      },
      "portfolioInfo()": {
        "details": "Get Portfolio info: owner, name, symbol, portfolio URI, total supply. ",
        "returns": {
          "_0": "array with information: address:owner, string:name, string:symbol , string:portfolioURI, uint256:totalSupply"
        }
      },
      "renounceOwnership()": {
        "details": "Leaves the contract without owner. It will not be possible to call `onlyOwner` functions anymore. Can only be called by the current owner. NOTE: Renouncing ownership will leave the contract without an owner, thereby removing any functionality that is only available to the owner."
      },
      "safeTransferFrom(address,address,uint256)": {
        "details": "See {IERC721-safeTransferFrom}."
      },
      "safeTransferFrom(address,address,uint256,bytes)": {
        "details": "See {IERC721-safeTransferFrom}."
      },
      "setApprovalForAll(address,bool)": {
        "details": "See {IERC721-setApprovalForAll}."
      },
      "setCoaURI(uint256,string)": {
        "details": "Get COA URI for a tokenId if tokenId exists and emits an event 'CoaURISet'. Current implementation of COA URI is IPFS-CID of COA.Requirements: whenNotPaused and onlyOwner. 'tokenId' must exist.",
        "params": {
          "_coaURI": "URI of COA - Current implementation is IPFS-CID of COA.",
          "tokenId": "location."
        }
      },
      "setPortfolioURI(string)": {
        "details": "Set Portfolio URI and emits an event 'PortfolioURISet'.Requirements: whenNotPaused and onlyOwner",
        "params": {
          "portfolioURI_": "URI of the portfolio - current implementation IPFS-CID of image."
        }
      },
      "supportsInterface(bytes4)": {
        "details": "See {IERC165-supportsInterface}."
      },
      "symbol()": {
        "details": "See {IERC721Metadata-symbol}."
      },
      "tokenByIndex(uint256)": {
        "details": "See {IERC721Enumerable-tokenByIndex}."
      },
      "tokenOfOwnerByIndex(address,uint256)": {
        "details": "See {IERC721Enumerable-tokenOfOwnerByIndex}."
      },
      "tokenURI(uint256)": {
        "details": "See {vcNFT-getCoaURI}."
      },
      "totalSupply()": {
        "details": "See {IERC721Enumerable-totalSupply}."
      },
      "transferFrom(address,address,uint256)": {
        "details": "See {IERC721-transferFrom}."
      },
      "transferOwnership(address)": {
        "details": "Transfers ownership of the contract to a new account (`newOwner`). Can only be called by the current owner."
      },
      "unpause()": {
        "details": "Unpause all token transfers (mint - burn), setPortfolioURI and setCoaURI.Requirements: whenPaused and onlyOwner."
      }
    },
    "stateVariables": {
      "_portfolioURI": {
        "details": "Counter used to count the number of 'tokenId' minted.  "
      },
      "_tokenIds": {
        "details": "Counter used to count the number of 'tokenId' minted.  "
      },
      "_vcs": {
        "details": "Verifiabl Credentials for NFTs: mapping between a TokenID (location) and its asscoiated VerifiableCredentials."
      }
    },
    "title": "Portoflio of Verifiable NFTs Contract.",
    "version": 1
  },
  "userdoc": {
    "events": {
      "CoaURISet(uint256,string)": {
        "notice": "Emitted when a Certificate Of Authority is set."
      },
      "PortfolioURISet(string)": {
        "notice": "Emitted when PortfolioURI is set."
      }
    },
    "kind": "user",
    "methods": {
      "allTokens()": {
        "notice": "Get all tokenIds used in Portfolio."
      },
      "burn(uint256)": {
        "notice": "Destroy an NFT."
      },
      "getAllTokenIds()": {
        "notice": "Get all TokenIds in use."
      },
      "getCoaURI(uint256)": {
        "notice": "Get COA URI for a tokenId."
      },
      "getPortfolioURI()": {
        "notice": "Get Portfolio URI."
      },
      "mint(address,string)": {
        "notice": "Mint an NFT."
      },
      "pause()": {
        "notice": "Pause vcNFT Contract."
      },
      "portfolioInfo()": {
        "notice": "Get Portfolio information."
      },
      "setCoaURI(uint256,string)": {
        "notice": "Get COA URI for a tokenId."
      },
      "setPortfolioURI(string)": {
        "notice": "Set Portfolio URI."
      },
      "tokenURI(uint256)": {
        "notice": "See {vcNFT-getCoaURI}."
      },
      "unpause()": {
        "notice": "Unpause vcNFT Contract."
      }
    },
    "notice": "You can use this contract to create/mint and store Verifiable NFTs: Certificate of Authenticity, Certificate of Ownership, etc. A tokenId is a location (space) in the contract (portfolio).",
    "version": 1
  }
}