{
  "contractName": "EthereumDIDRegistry",
  "abi": [
    {
      "anonymous": false,
      "inputs": [
        {
          "indexed": true,
          "internalType": "address",
          "name": "identity",
          "type": "address"
        },
        {
          "indexed": false,
          "internalType": "bytes32",
          "name": "name",
          "type": "bytes32"
        },
        {
          "indexed": false,
          "internalType": "bytes",
          "name": "value",
          "type": "bytes"
        },
        {
          "indexed": false,
          "internalType": "uint256",
          "name": "validTo",
          "type": "uint256"
        },
        {
          "indexed": false,
          "internalType": "uint256",
          "name": "previousChange",
          "type": "uint256"
        }
      ],
      "name": "DIDAttributeChanged",
      "type": "event"
    },
    {
      "anonymous": false,
      "inputs": [
        {
          "indexed": true,
          "internalType": "address",
          "name": "identity",
          "type": "address"
        },
        {
          "indexed": false,
          "internalType": "bytes32",
          "name": "delegateType",
          "type": "bytes32"
        },
        {
          "indexed": false,
          "internalType": "address",
          "name": "delegate",
          "type": "address"
        },
        {
          "indexed": false,
          "internalType": "uint256",
          "name": "validTo",
          "type": "uint256"
        },
        {
          "indexed": false,
          "internalType": "uint256",
          "name": "previousChange",
          "type": "uint256"
        }
      ],
      "name": "DIDDelegateChanged",
      "type": "event"
    },
    {
      "anonymous": false,
      "inputs": [
        {
          "indexed": true,
          "internalType": "address",
          "name": "identity",
          "type": "address"
        },
        {
          "indexed": false,
          "internalType": "address",
          "name": "owner",
          "type": "address"
        },
        {
          "indexed": false,
          "internalType": "uint256",
          "name": "previousChange",
          "type": "uint256"
        }
      ],
      "name": "DIDOwnerChanged",
      "type": "event"
    },
    {
      "inputs": [
        {
          "internalType": "address",
          "name": "",
          "type": "address"
        }
      ],
      "name": "changed",
      "outputs": [
        {
          "internalType": "uint256",
          "name": "",
          "type": "uint256"
        }
      ],
      "stateMutability": "view",
      "type": "function",
      "constant": true
    },
    {
      "inputs": [
        {
          "internalType": "address",
          "name": "",
          "type": "address"
        },
        {
          "internalType": "bytes32",
          "name": "",
          "type": "bytes32"
        },
        {
          "internalType": "address",
          "name": "",
          "type": "address"
        }
      ],
      "name": "delegates",
      "outputs": [
        {
          "internalType": "uint256",
          "name": "",
          "type": "uint256"
        }
      ],
      "stateMutability": "view",
      "type": "function",
      "constant": true
    },
    {
      "inputs": [
        {
          "internalType": "address",
          "name": "",
          "type": "address"
        }
      ],
      "name": "nonce",
      "outputs": [
        {
          "internalType": "uint256",
          "name": "",
          "type": "uint256"
        }
      ],
      "stateMutability": "view",
      "type": "function",
      "constant": true
    },
    {
      "inputs": [
        {
          "internalType": "address",
          "name": "",
          "type": "address"
        }
      ],
      "name": "owners",
      "outputs": [
        {
          "internalType": "address",
          "name": "",
          "type": "address"
        }
      ],
      "stateMutability": "view",
      "type": "function",
      "constant": true
    },
    {
      "inputs": [
        {
          "internalType": "address",
          "name": "identity",
          "type": "address"
        }
      ],
      "name": "identityOwner",
      "outputs": [
        {
          "internalType": "address",
          "name": "",
          "type": "address"
        }
      ],
      "stateMutability": "view",
      "type": "function",
      "constant": true
    },
    {
      "inputs": [
        {
          "internalType": "address",
          "name": "identity",
          "type": "address"
        },
        {
          "internalType": "bytes32",
          "name": "delegateType",
          "type": "bytes32"
        },
        {
          "internalType": "address",
          "name": "delegate",
          "type": "address"
        }
      ],
      "name": "validDelegate",
      "outputs": [
        {
          "internalType": "bool",
          "name": "",
          "type": "bool"
        }
      ],
      "stateMutability": "view",
      "type": "function",
      "constant": true
    },
    {
      "inputs": [
        {
          "internalType": "address",
          "name": "identity",
          "type": "address"
        },
        {
          "internalType": "address",
          "name": "newOwner",
          "type": "address"
        }
      ],
      "name": "changeOwner",
      "outputs": [],
      "stateMutability": "nonpayable",
      "type": "function"
    },
    {
      "inputs": [
        {
          "internalType": "address",
          "name": "identity",
          "type": "address"
        },
        {
          "internalType": "uint8",
          "name": "sigV",
          "type": "uint8"
        },
        {
          "internalType": "bytes32",
          "name": "sigR",
          "type": "bytes32"
        },
        {
          "internalType": "bytes32",
          "name": "sigS",
          "type": "bytes32"
        },
        {
          "internalType": "address",
          "name": "newOwner",
          "type": "address"
        }
      ],
      "name": "changeOwnerSigned",
      "outputs": [],
      "stateMutability": "nonpayable",
      "type": "function"
    },
    {
      "inputs": [
        {
          "internalType": "address",
          "name": "identity",
          "type": "address"
        },
        {
          "internalType": "bytes32",
          "name": "delegateType",
          "type": "bytes32"
        },
        {
          "internalType": "address",
          "name": "delegate",
          "type": "address"
        },
        {
          "internalType": "uint256",
          "name": "validity",
          "type": "uint256"
        }
      ],
      "name": "addDelegate",
      "outputs": [],
      "stateMutability": "nonpayable",
      "type": "function"
    },
    {
      "inputs": [
        {
          "internalType": "address",
          "name": "identity",
          "type": "address"
        },
        {
          "internalType": "uint8",
          "name": "sigV",
          "type": "uint8"
        },
        {
          "internalType": "bytes32",
          "name": "sigR",
          "type": "bytes32"
        },
        {
          "internalType": "bytes32",
          "name": "sigS",
          "type": "bytes32"
        },
        {
          "internalType": "bytes32",
          "name": "delegateType",
          "type": "bytes32"
        },
        {
          "internalType": "address",
          "name": "delegate",
          "type": "address"
        },
        {
          "internalType": "uint256",
          "name": "validity",
          "type": "uint256"
        }
      ],
      "name": "addDelegateSigned",
      "outputs": [],
      "stateMutability": "nonpayable",
      "type": "function"
    },
    {
      "inputs": [
        {
          "internalType": "address",
          "name": "identity",
          "type": "address"
        },
        {
          "internalType": "bytes32",
          "name": "delegateType",
          "type": "bytes32"
        },
        {
          "internalType": "address",
          "name": "delegate",
          "type": "address"
        }
      ],
      "name": "revokeDelegate",
      "outputs": [],
      "stateMutability": "nonpayable",
      "type": "function"
    },
    {
      "inputs": [
        {
          "internalType": "address",
          "name": "identity",
          "type": "address"
        },
        {
          "internalType": "uint8",
          "name": "sigV",
          "type": "uint8"
        },
        {
          "internalType": "bytes32",
          "name": "sigR",
          "type": "bytes32"
        },
        {
          "internalType": "bytes32",
          "name": "sigS",
          "type": "bytes32"
        },
        {
          "internalType": "bytes32",
          "name": "delegateType",
          "type": "bytes32"
        },
        {
          "internalType": "address",
          "name": "delegate",
          "type": "address"
        }
      ],
      "name": "revokeDelegateSigned",
      "outputs": [],
      "stateMutability": "nonpayable",
      "type": "function"
    },
    {
      "inputs": [
        {
          "internalType": "address",
          "name": "identity",
          "type": "address"
        },
        {
          "internalType": "bytes32",
          "name": "name",
          "type": "bytes32"
        },
        {
          "internalType": "bytes",
          "name": "value",
          "type": "bytes"
        },
        {
          "internalType": "uint256",
          "name": "validity",
          "type": "uint256"
        }
      ],
      "name": "setAttribute",
      "outputs": [],
      "stateMutability": "nonpayable",
      "type": "function"
    },
    {
      "inputs": [
        {
          "internalType": "address",
          "name": "identity",
          "type": "address"
        },
        {
          "internalType": "uint8",
          "name": "sigV",
          "type": "uint8"
        },
        {
          "internalType": "bytes32",
          "name": "sigR",
          "type": "bytes32"
        },
        {
          "internalType": "bytes32",
          "name": "sigS",
          "type": "bytes32"
        },
        {
          "internalType": "bytes32",
          "name": "name",
          "type": "bytes32"
        },
        {
          "internalType": "bytes",
          "name": "value",
          "type": "bytes"
        },
        {
          "internalType": "uint256",
          "name": "validity",
          "type": "uint256"
        }
      ],
      "name": "setAttributeSigned",
      "outputs": [],
      "stateMutability": "nonpayable",
      "type": "function"
    },
    {
      "inputs": [
        {
          "internalType": "address",
          "name": "identity",
          "type": "address"
        },
        {
          "internalType": "bytes32",
          "name": "name",
          "type": "bytes32"
        },
        {
          "internalType": "bytes",
          "name": "value",
          "type": "bytes"
        }
      ],
      "name": "revokeAttribute",
      "outputs": [],
      "stateMutability": "nonpayable",
      "type": "function"
    },
    {
      "inputs": [
        {
          "internalType": "address",
          "name": "identity",
          "type": "address"
        },
        {
          "internalType": "uint8",
          "name": "sigV",
          "type": "uint8"
        },
        {
          "internalType": "bytes32",
          "name": "sigR",
          "type": "bytes32"
        },
        {
          "internalType": "bytes32",
          "name": "sigS",
          "type": "bytes32"
        },
        {
          "internalType": "bytes32",
          "name": "name",
          "type": "bytes32"
        },
        {
          "internalType": "bytes",
          "name": "value",
          "type": "bytes"
        }
      ],
      "name": "revokeAttributeSigned",
      "outputs": [],
      "stateMutability": "nonpayable",
      "type": "function"
    }
  ],
  "bytecode": "0x608060405234801561001057600080fd5b5061220b806100206000396000f3fe608060405234801561001057600080fd5b50600436106100ff5760003560e01c806380b29f7c11610097578063a7068d6611610066578063a7068d66146102b8578063e476af5c146102d4578063f00d4b5d146102f0578063f96d0f9f1461030c576100ff565b806380b29f7c146102345780638733d4e81461025057806393072684146102805780639c2c1b2b1461029c576100ff565b8063240cf1fa116100d3578063240cf1fa1461019c578063622b2a3c146101b857806370ae92d2146101e85780637ad4b0a414610218576100ff565b8062c023da14610104578063022914a7146101205780630d44625b14610150578063123b5e9814610180575b600080fd5b61011e6004803603810190610119919061135a565b61033c565b005b61013a60048036038101906101359190611243565b61034d565b6040516101479190611bdc565b60405180910390f35b61016a600480360381019061016591906112a8565b610380565b6040516101779190611d78565b60405180910390f35b61019a6004803603810190610195919061167b565b6103b2565b005b6101b660048036038101906101b1919061143c565b61045d565b005b6101d260048036038101906101cd91906112a8565b610500565b6040516101df9190611c20565b60405180910390f35b61020260048036038101906101fd9190611243565b6105c6565b60405161020f9190611d78565b60405180910390f35b610232600480360381019061022d91906113c1565b6105de565b005b61024e600480360381019061024991906112a8565b6105f1565b005b61026a60048036038101906102659190611243565b610602565b6040516102779190611bdc565b60405180910390f35b61029a600480360381019061029591906114b3565b6106ad565b005b6102b660048036038101906102b1919061153c565b610754565b005b6102d260048036038101906102cd91906112f7565b6107ff565b005b6102ee60048036038101906102e991906115da565b610812565b005b61030a6004803603810190610305919061126c565b6108b9565b005b61032660048036038101906103219190611243565b6108c8565b6040516103339190611d78565b60405180910390f35b610348833384846108e0565b505050565b60006020528060005260406000206000915054906101000a900473ffffffffffffffffffffffffffffffffffffffff1681565b600160205282600052604060002060205281600052604060002060205280600052604060002060009250925050505481565b6000601960f81b600060f81b30600360006103cc8d610602565b73ffffffffffffffffffffffffffffffffffffffff1673ffffffffffffffffffffffffffffffffffffffff168152602001908152602001600020548b888888604051602001610422989796959493929190611ab7565b6040516020818303038152906040528051906020012090506104538861044b8a8a8a8a87610a02565b868686610af8565b5050505050505050565b6000601960f81b600060f81b30600360006104778b610602565b73ffffffffffffffffffffffffffffffffffffffff1673ffffffffffffffffffffffffffffffffffffffff1681526020019081526020016000205489866040516020016104c99695949392919061199f565b6040516020818303038152906040528051906020012090506104f8866104f28888888887610a02565b84610c25565b505050505050565b600080600160008673ffffffffffffffffffffffffffffffffffffffff1673ffffffffffffffffffffffffffffffffffffffff1681526020019081526020016000206000856040516020016105559190611c3b565b60405160208183030381529060405280519060200120815260200190815260200160002060008473ffffffffffffffffffffffffffffffffffffffff1673ffffffffffffffffffffffffffffffffffffffff1681526020019081526020016000205490504281119150509392505050565b60036020528060005260406000206000915090505481565b6105eb8433858585610af8565b50505050565b6105fd83338484610dbe565b505050565b6000806000808473ffffffffffffffffffffffffffffffffffffffff1673ffffffffffffffffffffffffffffffffffffffff16815260200190815260200160002060009054906101000a900473ffffffffffffffffffffffffffffffffffffffff169050600073ffffffffffffffffffffffffffffffffffffffff168173ffffffffffffffffffffffffffffffffffffffff16146106a357809150506106a8565b829150505b919050565b6000601960f81b600060f81b30600360006106c78c610602565b73ffffffffffffffffffffffffffffffffffffffff1673ffffffffffffffffffffffffffffffffffffffff168152602001908152602001600020548a878760405160200161071b9796959493929190611b50565b60405160208183030381529060405280519060200120905061074b876107448989898987610a02565b8585610dbe565b50505050505050565b6000601960f81b600060f81b306003600061076e8d610602565b73ffffffffffffffffffffffffffffffffffffffff1673ffffffffffffffffffffffffffffffffffffffff168152602001908152602001600020548b8888886040516020016107c4989796959493929190611a1a565b6040516020818303038152906040528051906020012090506107f5886107ed8a8a8a8a87610a02565b868686610f97565b5050505050505050565b61080c8433858585610f97565b50505050565b6000601960f81b600060f81b306003600061082c8c610602565b73ffffffffffffffffffffffffffffffffffffffff1673ffffffffffffffffffffffffffffffffffffffff168152602001908152602001600020548a87876040516020016108809796959493929190611917565b6040516020818303038152906040528051906020012090506108b0876108a98989898987610a02565b85856108e0565b50505050505050565b6108c4823383610c25565b5050565b60026020528060005260406000206000915090505481565b83836108eb82610602565b73ffffffffffffffffffffffffffffffffffffffff168173ffffffffffffffffffffffffffffffffffffffff161461092257600080fd5b8573ffffffffffffffffffffffffffffffffffffffff167f18ab6b2ae3d64306c00ce663125f2bd680e441a098de1635bd7ad8b0d44965e485856000600260008c73ffffffffffffffffffffffffffffffffffffffff1673ffffffffffffffffffffffffffffffffffffffff168152602001908152602001600020546040516109ae9493929190611c9b565b60405180910390a243600260008873ffffffffffffffffffffffffffffffffffffffff1673ffffffffffffffffffffffffffffffffffffffff16815260200190815260200160002081905550505050505050565b60008060018387878760405160008152602001604052604051610a289493929190611d33565b6020604051602081039080840390855afa158015610a4a573d6000803e3d6000fd5b505050602060405103519050610a5f87610602565b73ffffffffffffffffffffffffffffffffffffffff168173ffffffffffffffffffffffffffffffffffffffff1614610a9657600080fd5b600360008273ffffffffffffffffffffffffffffffffffffffff1673ffffffffffffffffffffffffffffffffffffffff1681526020019081526020016000206000815480929190610ae690611fa5565b91905055508091505095945050505050565b8484610b0382610602565b73ffffffffffffffffffffffffffffffffffffffff168173ffffffffffffffffffffffffffffffffffffffff1614610b3a57600080fd5b8673ffffffffffffffffffffffffffffffffffffffff167f18ab6b2ae3d64306c00ce663125f2bd680e441a098de1635bd7ad8b0d44965e486868642610b809190611e1b565b600260008d73ffffffffffffffffffffffffffffffffffffffff1673ffffffffffffffffffffffffffffffffffffffff16815260200190815260200160002054604051610bd09493929190611ce7565b60405180910390a243600260008973ffffffffffffffffffffffffffffffffffffffff1673ffffffffffffffffffffffffffffffffffffffff1681526020019081526020016000208190555050505050505050565b8282610c3082610602565b73ffffffffffffffffffffffffffffffffffffffff168173ffffffffffffffffffffffffffffffffffffffff1614610c6757600080fd5b826000808773ffffffffffffffffffffffffffffffffffffffff1673ffffffffffffffffffffffffffffffffffffffff16815260200190815260200160002060006101000a81548173ffffffffffffffffffffffffffffffffffffffff021916908373ffffffffffffffffffffffffffffffffffffffff1602179055508473ffffffffffffffffffffffffffffffffffffffff167f38a5a6e68f30ed1ab45860a4afb34bcb2fc00f22ca462d249b8a8d40cda6f7a384600260008973ffffffffffffffffffffffffffffffffffffffff1673ffffffffffffffffffffffffffffffffffffffff16815260200190815260200160002054604051610d6b929190611bf7565b60405180910390a243600260008773ffffffffffffffffffffffffffffffffffffffff1673ffffffffffffffffffffffffffffffffffffffff168152602001908152602001600020819055505050505050565b8383610dc982610602565b73ffffffffffffffffffffffffffffffffffffffff168173ffffffffffffffffffffffffffffffffffffffff1614610e0057600080fd5b42600160008873ffffffffffffffffffffffffffffffffffffffff1673ffffffffffffffffffffffffffffffffffffffff168152602001908152602001600020600086604051602001610e539190611c3b565b60405160208183030381529060405280519060200120815260200190815260200160002060008573ffffffffffffffffffffffffffffffffffffffff1673ffffffffffffffffffffffffffffffffffffffff168152602001908152602001600020819055508573ffffffffffffffffffffffffffffffffffffffff167f5a5084339536bcab65f20799fcc58724588145ca054bd2be626174b27ba156f7858542600260008c73ffffffffffffffffffffffffffffffffffffffff1673ffffffffffffffffffffffffffffffffffffffff16815260200190815260200160002054604051610f439493929190611c56565b60405180910390a243600260008873ffffffffffffffffffffffffffffffffffffffff1673ffffffffffffffffffffffffffffffffffffffff16815260200190815260200160002081905550505050505050565b8484610fa282610602565b73ffffffffffffffffffffffffffffffffffffffff168173ffffffffffffffffffffffffffffffffffffffff1614610fd957600080fd5b8242610fe59190611e1b565b600160008973ffffffffffffffffffffffffffffffffffffffff1673ffffffffffffffffffffffffffffffffffffffff1681526020019081526020016000206000876040516020016110379190611c3b565b60405160208183030381529060405280519060200120815260200190815260200160002060008673ffffffffffffffffffffffffffffffffffffffff1673ffffffffffffffffffffffffffffffffffffffff168152602001908152602001600020819055508673ffffffffffffffffffffffffffffffffffffffff167f5a5084339536bcab65f20799fcc58724588145ca054bd2be626174b27ba156f7868686426110e29190611e1b565b600260008d73ffffffffffffffffffffffffffffffffffffffff1673ffffffffffffffffffffffffffffffffffffffff168152602001908152602001600020546040516111329493929190611c56565b60405180910390a243600260008973ffffffffffffffffffffffffffffffffffffffff1673ffffffffffffffffffffffffffffffffffffffff1681526020019081526020016000208190555050505050505050565b600061119a61119584611db8565b611d93565b9050828152602081018484840111156111b257600080fd5b6111bd848285611f32565b509392505050565b6000813590506111d481612179565b92915050565b6000813590506111e981612190565b92915050565b600082601f83011261120057600080fd5b8135611210848260208601611187565b91505092915050565b600081359050611228816121a7565b92915050565b60008135905061123d816121be565b92915050565b60006020828403121561125557600080fd5b6000611263848285016111c5565b91505092915050565b6000806040838503121561127f57600080fd5b600061128d858286016111c5565b925050602061129e858286016111c5565b9150509250929050565b6000806000606084860312156112bd57600080fd5b60006112cb868287016111c5565b93505060206112dc868287016111da565b92505060406112ed868287016111c5565b9150509250925092565b6000806000806080858703121561130d57600080fd5b600061131b878288016111c5565b945050602061132c878288016111da565b935050604061133d878288016111c5565b925050606061134e87828801611219565b91505092959194509250565b60008060006060848603121561136f57600080fd5b600061137d868287016111c5565b935050602061138e868287016111da565b925050604084013567ffffffffffffffff8111156113ab57600080fd5b6113b7868287016111ef565b9150509250925092565b600080600080608085870312156113d757600080fd5b60006113e5878288016111c5565b94505060206113f6878288016111da565b935050604085013567ffffffffffffffff81111561141357600080fd5b61141f878288016111ef565b925050606061143087828801611219565b91505092959194509250565b600080600080600060a0868803121561145457600080fd5b6000611462888289016111c5565b95505060206114738882890161122e565b9450506040611484888289016111da565b9350506060611495888289016111da565b92505060806114a6888289016111c5565b9150509295509295909350565b60008060008060008060c087890312156114cc57600080fd5b60006114da89828a016111c5565b96505060206114eb89828a0161122e565b95505060406114fc89828a016111da565b945050606061150d89828a016111da565b935050608061151e89828a016111da565b92505060a061152f89828a016111c5565b9150509295509295509295565b600080600080600080600060e0888a03121561155757600080fd5b60006115658a828b016111c5565b97505060206115768a828b0161122e565b96505060406115878a828b016111da565b95505060606115988a828b016111da565b94505060806115a98a828b016111da565b93505060a06115ba8a828b016111c5565b92505060c06115cb8a828b01611219565b91505092959891949750929550565b60008060008060008060c087890312156115f357600080fd5b600061160189828a016111c5565b965050602061161289828a0161122e565b955050604061162389828a016111da565b945050606061163489828a016111da565b935050608061164589828a016111da565b92505060a087013567ffffffffffffffff81111561166257600080fd5b61166e89828a016111ef565b9150509295509295509295565b600080600080600080600060e0888a03121561169657600080fd5b60006116a48a828b016111c5565b97505060206116b58a828b0161122e565b96505060406116c68a828b016111da565b95505060606116d78a828b016111da565b94505060806116e88a828b016111da565b93505060a088013567ffffffffffffffff81111561170557600080fd5b6117118a828b016111ef565b92505060c06117228a828b01611219565b91505092959891949750929550565b61173a81611e71565b82525050565b61175161174c82611e71565b611fee565b82525050565b61176081611e83565b82525050565b61177761177282611e8f565b612000565b82525050565b61178681611ebb565b82525050565b61179d61179882611ebb565b61200a565b82525050565b60006117ae82611de9565b6117b88185611df4565b93506117c8818560208601611f41565b6117d18161208e565b840191505092915050565b60006117e782611de9565b6117f18185611e05565b9350611801818560208601611f41565b80840191505092915050565b61181e61181982611efc565b611fee565b82525050565b61182d81611f20565b82525050565b6000611840600f83611e10565b915061184b826120ac565b600f82019050919050565b6000611863600b83611e10565b915061186e826120d5565b600b82019050919050565b6000611886600b83611e10565b9150611891826120fe565b600b82019050919050565b60006118a9600c83611e10565b91506118b482612127565b600c82019050919050565b60006118cc600e83611e10565b91506118d782612150565b600e82019050919050565b6118eb81611ee5565b82525050565b6119026118fd82611ee5565b612026565b82525050565b61191181611eef565b82525050565b6000611923828a611766565b6001820191506119338289611766565b600182019150611943828861180d565b60148201915061195382876118f1565b6020820191506119638286611740565b60148201915061197282611833565b915061197e828561178c565b60208201915061198e82846117dc565b915081905098975050505050505050565b60006119ab8289611766565b6001820191506119bb8288611766565b6001820191506119cb828761180d565b6014820191506119db82866118f1565b6020820191506119eb8285611740565b6014820191506119fa82611856565b9150611a068284611740565b601482019150819050979650505050505050565b6000611a26828b611766565b600182019150611a36828a611766565b600182019150611a46828961180d565b601482019150611a5682886118f1565b602082019150611a668287611740565b601482019150611a7582611879565b9150611a81828661178c565b602082019150611a918285611740565b601482019150611aa182846118f1565b6020820191508190509998505050505050505050565b6000611ac3828b611766565b600182019150611ad3828a611766565b600182019150611ae3828961180d565b601482019150611af382886118f1565b602082019150611b038287611740565b601482019150611b128261189c565b9150611b1e828661178c565b602082019150611b2e82856117dc565b9150611b3a82846118f1565b6020820191508190509998505050505050505050565b6000611b5c828a611766565b600182019150611b6c8289611766565b600182019150611b7c828861180d565b601482019150611b8c82876118f1565b602082019150611b9c8286611740565b601482019150611bab826118bf565b9150611bb7828561178c565b602082019150611bc78284611740565b60148201915081905098975050505050505050565b6000602082019050611bf16000830184611731565b92915050565b6000604082019050611c0c6000830185611731565b611c1960208301846118e2565b9392505050565b6000602082019050611c356000830184611757565b92915050565b6000602082019050611c50600083018461177d565b92915050565b6000608082019050611c6b600083018761177d565b611c786020830186611731565b611c8560408301856118e2565b611c9260608301846118e2565b95945050505050565b6000608082019050611cb0600083018761177d565b8181036020830152611cc281866117a3565b9050611cd16040830185611824565b611cde60608301846118e2565b95945050505050565b6000608082019050611cfc600083018761177d565b8181036020830152611d0e81866117a3565b9050611d1d60408301856118e2565b611d2a60608301846118e2565b95945050505050565b6000608082019050611d48600083018761177d565b611d556020830186611908565b611d62604083018561177d565b611d6f606083018461177d565b95945050505050565b6000602082019050611d8d60008301846118e2565b92915050565b6000611d9d611dae565b9050611da98282611f74565b919050565b6000604051905090565b600067ffffffffffffffff821115611dd357611dd261205f565b5b611ddc8261208e565b9050602081019050919050565b600081519050919050565b600082825260208201905092915050565b600081905092915050565b600081905092915050565b6000611e2682611ee5565b9150611e3183611ee5565b9250827fffffffffffffffffffffffffffffffffffffffffffffffffffffffffffffffff03821115611e6657611e65612030565b5b828201905092915050565b6000611e7c82611ec5565b9050919050565b60008115159050919050565b60007fff0000000000000000000000000000000000000000000000000000000000000082169050919050565b6000819050919050565b600073ffffffffffffffffffffffffffffffffffffffff82169050919050565b6000819050919050565b600060ff82169050919050565b6000611f0782611f0e565b9050919050565b6000611f1982611ec5565b9050919050565b6000611f2b82611ee5565b9050919050565b82818337600083830152505050565b60005b83811015611f5f578082015181840152602081019050611f44565b83811115611f6e576000848401525b50505050565b611f7d8261208e565b810181811067ffffffffffffffff82111715611f9c57611f9b61205f565b5b80604052505050565b6000611fb082611ee5565b91507fffffffffffffffffffffffffffffffffffffffffffffffffffffffffffffffff821415611fe357611fe2612030565b5b600182019050919050565b6000611ff982612014565b9050919050565b6000819050919050565b6000819050919050565b600061201f8261209f565b9050919050565b6000819050919050565b7f4e487b7100000000000000000000000000000000000000000000000000000000600052601160045260246000fd5b7f4e487b7100000000000000000000000000000000000000000000000000000000600052604160045260246000fd5b6000601f19601f8301169050919050565b60008160601b9050919050565b7f7265766f6b654174747269627574650000000000000000000000000000000000600082015250565b7f6368616e67654f776e6572000000000000000000000000000000000000000000600082015250565b7f61646444656c6567617465000000000000000000000000000000000000000000600082015250565b7f7365744174747269627574650000000000000000000000000000000000000000600082015250565b7f7265766f6b6544656c6567617465000000000000000000000000000000000000600082015250565b61218281611e71565b811461218d57600080fd5b50565b61219981611ebb565b81146121a457600080fd5b50565b6121b081611ee5565b81146121bb57600080fd5b50565b6121c781611eef565b81146121d257600080fd5b5056fea2646970667358221220c601d7f89aaad9f2ff8e67128b6ca359897501d7c18450d7f67f5d69560d7b3b64736f6c63430008020033",
  "immutableReferences": {},
  "source": "/* SPDX-License-Identifier: MIT */\r\npragma solidity ^0.8.1;\r\n\r\ncontract EthereumDIDRegistry {\r\n\r\n  mapping(address => address) public owners;\r\n  mapping(address => mapping(bytes32 => mapping(address => uint))) public delegates;\r\n  mapping(address => uint) public changed;\r\n  mapping(address => uint) public nonce;\r\n\r\n  modifier onlyOwner(address identity, address actor) {\r\n    require (actor == identityOwner(identity));\r\n    _;\r\n  }\r\n\r\n  event DIDOwnerChanged(\r\n    address indexed identity,\r\n    address owner,\r\n    uint previousChange\r\n  );\r\n\r\n  event DIDDelegateChanged(\r\n    address indexed identity,\r\n    bytes32 delegateType,\r\n    address delegate,\r\n    uint validTo,\r\n    uint previousChange\r\n  );\r\n\r\n  event DIDAttributeChanged(\r\n    address indexed identity,\r\n    bytes32 name,\r\n    bytes value,\r\n    uint validTo,\r\n    uint previousChange\r\n  );\r\n\r\n  function identityOwner(address identity) public view returns(address) {\r\n     address owner = owners[identity];\r\n     if (owner != 0x0000000000000000000000000000000000000000) {\r\n       return owner;\r\n     }\r\n     return identity;\r\n  }\r\n\r\n  function checkSignature(address identity, uint8 sigV, bytes32 sigR, bytes32 sigS, bytes32 hash) internal returns(address) {\r\n    address signer = ecrecover(hash, sigV, sigR, sigS);\r\n    require(signer == identityOwner(identity));\r\n    nonce[signer]++;\r\n    return signer;\r\n  }\r\n\r\n  function validDelegate(address identity, bytes32 delegateType, address delegate) public view returns(bool) {\r\n    uint validity = delegates[identity][keccak256(abi.encode(delegateType))][delegate];\r\n    return (validity > block.timestamp);\r\n  }\r\n\r\n  function changeOwner(address identity, address actor, address newOwner) internal onlyOwner(identity, actor) {\r\n    owners[identity] = newOwner;\r\n    emit DIDOwnerChanged(identity, newOwner, changed[identity]);\r\n    changed[identity] = block.number;\r\n  }\r\n\r\n  function changeOwner(address identity, address newOwner) public {\r\n    changeOwner(identity, msg.sender, newOwner);\r\n  }\r\n\r\n  function changeOwnerSigned(address identity, uint8 sigV, bytes32 sigR, bytes32 sigS, address newOwner) public {\r\n    bytes32 hash = keccak256(abi.encodePacked(bytes1(0x19), bytes1(0), this, nonce[identityOwner(identity)], identity, \"changeOwner\", newOwner));\r\n    changeOwner(identity, checkSignature(identity, sigV, sigR, sigS, hash), newOwner);\r\n  }\r\n\r\n  function addDelegate(address identity, address actor, bytes32 delegateType, address delegate, uint validity) internal onlyOwner(identity, actor) {\r\n    delegates[identity][keccak256(abi.encode(delegateType))][delegate] = block.timestamp + validity;\r\n    emit DIDDelegateChanged(identity, delegateType, delegate, block.timestamp + validity, changed[identity]);\r\n    changed[identity] = block.number;\r\n  }\r\n\r\n  function addDelegate(address identity, bytes32 delegateType, address delegate, uint validity) public {\r\n    addDelegate(identity, msg.sender, delegateType, delegate, validity);\r\n  }\r\n\r\n  function addDelegateSigned(address identity, uint8 sigV, bytes32 sigR, bytes32 sigS, bytes32 delegateType, address delegate, uint validity) public {\r\n    bytes32 hash = keccak256(abi.encodePacked(bytes1(0x19), bytes1(0), this, nonce[identityOwner(identity)], identity, \"addDelegate\", delegateType, delegate, validity));\r\n    addDelegate(identity, checkSignature(identity, sigV, sigR, sigS, hash), delegateType, delegate, validity);\r\n  }\r\n\r\n  function revokeDelegate(address identity, address actor, bytes32 delegateType, address delegate) internal onlyOwner(identity, actor) {\r\n    delegates[identity][keccak256(abi.encode(delegateType))][delegate] = block.timestamp;\r\n    emit DIDDelegateChanged(identity, delegateType, delegate, block.timestamp, changed[identity]);\r\n    changed[identity] = block.number;\r\n  }\r\n\r\n  function revokeDelegate(address identity, bytes32 delegateType, address delegate) public {\r\n    revokeDelegate(identity, msg.sender, delegateType, delegate);\r\n  }\r\n\r\n  function revokeDelegateSigned(address identity, uint8 sigV, bytes32 sigR, bytes32 sigS, bytes32 delegateType, address delegate) public {\r\n    bytes32 hash = keccak256(abi.encodePacked(bytes1(0x19), bytes1(0), this, nonce[identityOwner(identity)], identity, \"revokeDelegate\", delegateType, delegate));\r\n    revokeDelegate(identity, checkSignature(identity, sigV, sigR, sigS, hash), delegateType, delegate);\r\n  }\r\n\r\n  function setAttribute(address identity, address actor, bytes32 name, bytes memory value, uint validity ) internal onlyOwner(identity, actor) {\r\n    emit DIDAttributeChanged(identity, name, value, block.timestamp + validity, changed[identity]);\r\n    changed[identity] = block.number;\r\n  }\r\n\r\n  function setAttribute(address identity, bytes32 name, bytes memory value, uint validity) public {\r\n    setAttribute(identity, msg.sender, name, value, validity);\r\n  }\r\n\r\n  function setAttributeSigned(address identity, uint8 sigV, bytes32 sigR, bytes32 sigS, bytes32 name, bytes memory value, uint validity) public {\r\n    bytes32 hash = keccak256(abi.encodePacked(bytes1(0x19), bytes1(0), this, nonce[identityOwner(identity)], identity, \"setAttribute\", name, value, validity));\r\n    setAttribute(identity, checkSignature(identity, sigV, sigR, sigS, hash), name, value, validity);\r\n  }\r\n\r\n  function revokeAttribute(address identity, address actor, bytes32 name, bytes memory value ) internal onlyOwner(identity, actor) {\r\n    emit DIDAttributeChanged(identity, name, value, 0, changed[identity]);\r\n    changed[identity] = block.number;\r\n  }\r\n\r\n  function revokeAttribute(address identity, bytes32 name, bytes memory value) public {\r\n    revokeAttribute(identity, msg.sender, name, value);\r\n  }\r\n\r\n function revokeAttributeSigned(address identity, uint8 sigV, bytes32 sigR, bytes32 sigS, bytes32 name, bytes memory value) public {\r\n    bytes32 hash = keccak256(abi.encodePacked(bytes1(0x19), bytes1(0), this, nonce[identityOwner(identity)], identity, \"revokeAttribute\", name, value)); \r\n    revokeAttribute(identity, checkSignature(identity, sigV, sigR, sigS, hash), name, value);\r\n  }\r\n\r\n}",
  "sourcePath": "C:\\Users\\didier.collette\\git\\blockchain-developer-bootcamp-final-project\\chain\\contracts\\EthereumDIDRegistry.sol",
  "compiler": {
    "name": "solc",
    "version": "0.8.2+commit.661d1103.Emscripten.clang"
  },
  "schemaVersion": "3.4.3",
  "updatedAt": "2022-06-07T19:30:05.550Z",
  "networkType": "ethereum",
  "devdoc": {
    "kind": "dev",
    "methods": {},
    "version": 1
  },
  "userdoc": {
    "kind": "user",
    "methods": {},
    "version": 1
  }
}