{
  "contractName": "Registry",
  "abi": [
    {
      "anonymous": false,
      "inputs": [
        {
          "indexed": false,
          "internalType": "address",
          "name": "previousAdmin",
          "type": "address"
        },
        {
          "indexed": false,
          "internalType": "address",
          "name": "newAdmin",
          "type": "address"
        }
      ],
      "name": "AdminChanged",
      "type": "event"
    },
    {
      "anonymous": false,
      "inputs": [
        {
          "indexed": true,
          "internalType": "address",
          "name": "beacon",
          "type": "address"
        }
      ],
      "name": "BeaconUpgraded",
      "type": "event"
    },
    {
      "anonymous": false,
      "inputs": [
        {
          "indexed": false,
          "internalType": "uint8",
          "name": "version",
          "type": "uint8"
        }
      ],
      "name": "Initialized",
      "type": "event"
    },
    {
      "anonymous": false,
      "inputs": [
        {
          "indexed": true,
          "internalType": "address",
          "name": "previousOwner",
          "type": "address"
        },
        {
          "indexed": true,
          "internalType": "address",
          "name": "newOwner",
          "type": "address"
        }
      ],
      "name": "OwnershipTransferred",
      "type": "event"
    },
    {
      "anonymous": false,
      "inputs": [
        {
          "indexed": false,
          "internalType": "address",
          "name": "account",
          "type": "address"
        }
      ],
      "name": "Paused",
      "type": "event"
    },
    {
      "anonymous": false,
      "inputs": [
        {
          "indexed": false,
          "internalType": "address",
          "name": "account",
          "type": "address"
        }
      ],
      "name": "Unpaused",
      "type": "event"
    },
    {
      "anonymous": false,
      "inputs": [
        {
          "indexed": true,
          "internalType": "address",
          "name": "implementation",
          "type": "address"
        }
      ],
      "name": "Upgraded",
      "type": "event"
    },
    {
      "anonymous": false,
      "inputs": [
        {
          "indexed": false,
          "internalType": "string",
          "name": "contractName",
          "type": "string"
        },
        {
          "indexed": true,
          "internalType": "address",
          "name": "implementationAddress",
          "type": "address"
        },
        {
          "indexed": true,
          "internalType": "address",
          "name": "portfolioAddress",
          "type": "address"
        },
        {
          "indexed": true,
          "internalType": "address",
          "name": "owner",
          "type": "address"
        }
      ],
      "name": "portfolioDeployed",
      "type": "event"
    },
    {
      "anonymous": false,
      "inputs": [
        {
          "indexed": false,
          "internalType": "string",
          "name": "contractName",
          "type": "string"
        },
        {
          "indexed": true,
          "internalType": "address",
          "name": "implementationAddress",
          "type": "address"
        },
        {
          "indexed": true,
          "internalType": "address",
          "name": "portfolioAddress",
          "type": "address"
        },
        {
          "indexed": true,
          "internalType": "address",
          "name": "owner",
          "type": "address"
        }
      ],
      "name": "portfolioRegistered",
      "type": "event"
    },
    {
      "anonymous": false,
      "inputs": [
        {
          "indexed": false,
          "internalType": "string",
          "name": "contractName",
          "type": "string"
        },
        {
          "indexed": true,
          "internalType": "address",
          "name": "beaconAddress",
          "type": "address"
        },
        {
          "indexed": true,
          "internalType": "address",
          "name": "implementationAddress",
          "type": "address"
        }
      ],
      "name": "portfolioSupportAdded",
      "type": "event"
    },
    {
      "anonymous": false,
      "inputs": [
        {
          "indexed": false,
          "internalType": "string",
          "name": "contractName",
          "type": "string"
        },
        {
          "indexed": true,
          "internalType": "address",
          "name": "beaconAddress",
          "type": "address"
        },
        {
          "indexed": true,
          "internalType": "address",
          "name": "implementationAddress",
          "type": "address"
        }
      ],
      "name": "portfolioSupportDeleted",
      "type": "event"
    },
    {
      "anonymous": false,
      "inputs": [
        {
          "indexed": true,
          "internalType": "address",
          "name": "portfolioAddress",
          "type": "address"
        },
        {
          "indexed": true,
          "internalType": "address",
          "name": "owner",
          "type": "address"
        }
      ],
      "name": "portfolioUnregistered",
      "type": "event"
    },
    {
      "inputs": [
        {
          "internalType": "address",
          "name": "newAdmin",
          "type": "address"
        }
      ],
      "name": "changeAdmin",
      "outputs": [],
      "stateMutability": "nonpayable",
      "type": "function"
    },
    {
      "inputs": [],
      "name": "getAdmin",
      "outputs": [
        {
          "internalType": "address",
          "name": "",
          "type": "address"
        }
      ],
      "stateMutability": "view",
      "type": "function",
      "constant": true
    },
    {
      "inputs": [],
      "name": "getImplementation",
      "outputs": [
        {
          "internalType": "address",
          "name": "",
          "type": "address"
        }
      ],
      "stateMutability": "view",
      "type": "function",
      "constant": true
    },
    {
      "inputs": [],
      "name": "owner",
      "outputs": [
        {
          "internalType": "address",
          "name": "",
          "type": "address"
        }
      ],
      "stateMutability": "view",
      "type": "function",
      "constant": true
    },
    {
      "inputs": [],
      "name": "paused",
      "outputs": [
        {
          "internalType": "bool",
          "name": "",
          "type": "bool"
        }
      ],
      "stateMutability": "view",
      "type": "function",
      "constant": true
    },
    {
      "inputs": [],
      "name": "proxiableUUID",
      "outputs": [
        {
          "internalType": "bytes32",
          "name": "",
          "type": "bytes32"
        }
      ],
      "stateMutability": "view",
      "type": "function",
      "constant": true
    },
    {
      "inputs": [],
      "name": "renounceOwnership",
      "outputs": [],
      "stateMutability": "nonpayable",
      "type": "function"
    },
    {
      "inputs": [
        {
          "internalType": "address",
          "name": "newOwner",
          "type": "address"
        }
      ],
      "name": "transferOwnership",
      "outputs": [],
      "stateMutability": "nonpayable",
      "type": "function"
    },
    {
      "inputs": [
        {
          "internalType": "address",
          "name": "newImplementation",
          "type": "address"
        }
      ],
      "name": "upgradeTo",
      "outputs": [],
      "stateMutability": "nonpayable",
      "type": "function"
    },
    {
      "inputs": [
        {
          "internalType": "address",
          "name": "newImplementation",
          "type": "address"
        },
        {
          "internalType": "bytes",
          "name": "data",
          "type": "bytes"
        }
      ],
      "name": "upgradeToAndCall",
      "outputs": [],
      "stateMutability": "payable",
      "type": "function",
      "payable": true
    },
    {
      "inputs": [],
      "name": "version",
      "outputs": [
        {
          "internalType": "uint256",
          "name": "",
          "type": "uint256"
        }
      ],
      "stateMutability": "pure",
      "type": "function",
      "constant": true
    },
    {
      "inputs": [],
      "name": "initialize",
      "outputs": [],
      "stateMutability": "nonpayable",
      "type": "function"
    },
    {
      "inputs": [
        {
          "internalType": "string",
          "name": "contractName_",
          "type": "string"
        },
        {
          "internalType": "address",
          "name": "owner_",
          "type": "address"
        },
        {
          "internalType": "string",
          "name": "name_",
          "type": "string"
        },
        {
          "internalType": "string",
          "name": "symbol_",
          "type": "string"
        },
        {
          "internalType": "string",
          "name": "portfolioURI_",
          "type": "string"
        }
      ],
      "name": "createPortfolio",
      "outputs": [
        {
          "internalType": "address",
          "name": "",
          "type": "address"
        }
      ],
      "stateMutability": "nonpayable",
      "type": "function"
    },
    {
      "inputs": [
        {
          "internalType": "address",
          "name": "portfolioAddress",
          "type": "address"
        }
      ],
      "name": "isPortoflioRegistered",
      "outputs": [
        {
          "internalType": "bool",
          "name": "",
          "type": "bool"
        }
      ],
      "stateMutability": "view",
      "type": "function",
      "constant": true
    },
    {
      "inputs": [
        {
          "internalType": "address",
          "name": "portfolioAddress",
          "type": "address"
        }
      ],
      "name": "unregisterPortfolio",
      "outputs": [
        {
          "internalType": "bool",
          "name": "",
          "type": "bool"
        }
      ],
      "stateMutability": "nonpayable",
      "type": "function"
    },
    {
      "inputs": [],
      "name": "getAllPortofliosRegistered",
      "outputs": [
        {
          "internalType": "address[]",
          "name": "",
          "type": "address[]"
        }
      ],
      "stateMutability": "view",
      "type": "function",
      "constant": true
    },
    {
      "inputs": [
        {
          "internalType": "bytes",
          "name": "byteCode_",
          "type": "bytes"
        }
      ],
      "name": "getHashByteCode",
      "outputs": [
        {
          "internalType": "bytes32",
          "name": "",
          "type": "bytes32"
        }
      ],
      "stateMutability": "pure",
      "type": "function",
      "constant": true
    },
    {
      "inputs": [
        {
          "internalType": "string",
          "name": "contractName_",
          "type": "string"
        },
        {
          "internalType": "address",
          "name": "newImplementation_",
          "type": "address"
        }
      ],
      "name": "upgradePortfolioSupport",
      "outputs": [
        {
          "internalType": "bool",
          "name": "",
          "type": "bool"
        }
      ],
      "stateMutability": "nonpayable",
      "type": "function"
    },
    {
      "inputs": [
        {
          "internalType": "string",
          "name": "contractName_",
          "type": "string"
        }
      ],
      "name": "getBeaconPortoflioSupported",
      "outputs": [
        {
          "internalType": "address",
          "name": "",
          "type": "address"
        }
      ],
      "stateMutability": "view",
      "type": "function",
      "constant": true
    },
    {
      "inputs": [
        {
          "internalType": "string",
          "name": "contractName_",
          "type": "string"
        },
        {
          "internalType": "address",
          "name": "implementation_",
          "type": "address"
        }
      ],
      "name": "addPortfolioSupport",
      "outputs": [
        {
          "internalType": "address",
          "name": "",
          "type": "address"
        }
      ],
      "stateMutability": "nonpayable",
      "type": "function"
    },
    {
      "inputs": [
        {
          "internalType": "string",
          "name": "contractName_",
          "type": "string"
        }
      ],
      "name": "delPortfolioSupport",
      "outputs": [
        {
          "internalType": "bool",
          "name": "",
          "type": "bool"
        }
      ],
      "stateMutability": "nonpayable",
      "type": "function"
    },
    {
      "inputs": [
        {
          "internalType": "string",
          "name": "contractName_",
          "type": "string"
        }
      ],
      "name": "isPortoflioSupported",
      "outputs": [
        {
          "internalType": "bool",
          "name": "",
          "type": "bool"
        }
      ],
      "stateMutability": "view",
      "type": "function",
      "constant": true
    },
    {
      "inputs": [
        {
          "internalType": "string",
          "name": "contractName_",
          "type": "string"
        },
        {
          "internalType": "address",
          "name": "implementation_",
          "type": "address"
        }
      ],
      "name": "isPortoflioImplementationSupported",
      "outputs": [
        {
          "internalType": "bool",
          "name": "",
          "type": "bool"
        }
      ],
      "stateMutability": "view",
      "type": "function",
      "constant": true
    },
    {
      "inputs": [],
      "name": "pause",
      "outputs": [],
      "stateMutability": "nonpayable",
      "type": "function"
    },
    {
      "inputs": [],
      "name": "unpause",
      "outputs": [],
      "stateMutability": "nonpayable",
      "type": "function"
    }
  ],
  "bytecode": "0x60a06040523073ffffffffffffffffffffffffffffffffffffffff1660809073ffffffffffffffffffffffffffffffffffffffff1660601b81525034801561004657600080fd5b5060805160601c615bc8610081600039600081816107760152818161080801528181610a2701528181610ab90152610b720152615bc86000f3fe608060405260043610620001885760003560e01c80638129fc1c11620000e5578063aaf10f421162000097578063c35b9669116200006d578063c35b9669146200059d578063eba195f614620005e1578063f00901431462000625578063f2fde38b14620006695762000188565b8063aaf10f4214620004e5578063b50cd4b61462000515578063bd6be1fd14620005595762000188565b80638129fc1c14620003cb5780638456cb5914620003e55780638da5cb5b14620003ff5780638ed1ec19146200042f5780638f28397014620004735780639488088f14620004a15762000188565b806354fd4d50116200013f57806354fd4d50146200029957806355ee93c214620002c95780635c975abb146200030d5780636e9960c3146200033d578063715018a6146200036d5780637be16bc414620003875762000188565b80631aa90f10146200018d5780633659cfe614620001bd5780633db9bcdb14620001eb5780633f4ba83a146200022f5780634f1ef286146200024957806352d1902d1462000269575b600080fd5b3480156200019a57600080fd5b50620001a562000697565b604051620001b49190620034d4565b60405180910390f35b348015620001ca57600080fd5b50620001e96004803603810190620001e3919062002c9c565b62000774565b005b348015620001f857600080fd5b5062000217600480360381019062000211919062002c9c565b62000931565b604051620002269190620034f8565b60405180910390f35b3480156200023c57600080fd5b506200024762000996565b005b62000267600480360381019062000261919062002cf4565b62000a25565b005b3480156200027657600080fd5b506200028162000b6e565b60405162000290919062003515565b60405180910390f35b348015620002a657600080fd5b50620002b162000c2a565b604051620002c0919062003829565b60405180910390f35b348015620002d657600080fd5b50620002f56004803603810190620002ef919062002d7a565b62000c33565b60405162000304919062003515565b60405180910390f35b3480156200031a57600080fd5b506200032562000c57565b604051620003349190620034f8565b60405180910390f35b3480156200034a57600080fd5b506200035562000c6e565b60405162000364919062003456565b60405180910390f35b3480156200037a57600080fd5b506200038562000c7f565b005b3480156200039457600080fd5b50620003b36004803603810190620003ad919062002e08565b62000d10565b604051620003c2919062003456565b60405180910390f35b348015620003d857600080fd5b50620003e362000f83565b005b348015620003f257600080fd5b50620003fd6200101f565b005b3480156200040c57600080fd5b5062000417620010ae565b60405162000426919062003456565b60405180910390f35b3480156200043c57600080fd5b506200045b600480360381019062000455919062002e62565b620010d8565b6040516200046a919062003456565b60405180910390f35b3480156200048057600080fd5b506200049f600480360381019062000499919062002c9c565b62001522565b005b348015620004ae57600080fd5b50620004cd6004803603810190620004c7919062002dc3565b620015b3565b604051620004dc919062003456565b60405180910390f35b348015620004f257600080fd5b50620004fd62001600565b6040516200050c919062003456565b60405180910390f35b3480156200052257600080fd5b506200054160048036038101906200053b919062002e08565b62001611565b604051620005509190620034f8565b60405180910390f35b3480156200056657600080fd5b506200058560048036038101906200057f919062002e08565b620016a0565b604051620005949190620034f8565b60405180910390f35b348015620005aa57600080fd5b50620005c96004803603810190620005c3919062002dc3565b620017fd565b604051620005d89190620034f8565b60405180910390f35b348015620005ee57600080fd5b506200060d600480360381019062000607919062002dc3565b6200188a565b6040516200061c9190620034f8565b60405180910390f35b3480156200063257600080fd5b506200065160048036038101906200064b919062002c9c565b62001a92565b604051620006609190620034f8565b60405180910390f35b3480156200067657600080fd5b506200069560048036038101906200068f919062002c9c565b62001da4565b005b6060620006a362000c57565b15620006e6576040517f08c379a0000000000000000000000000000000000000000000000000000000008152600401620006dd90620036f7565b60405180910390fd5b60fb8054806020026020016040519081016040528092919081815260200182805480156200076a57602002820191906000526020600020905b8160009054906101000a900473ffffffffffffffffffffffffffffffffffffffff1673ffffffffffffffffffffffffffffffffffffffff16815260200190600101908083116200071f575b5050505050905090565b7f000000000000000000000000000000000000000000000000000000000000000073ffffffffffffffffffffffffffffffffffffffff163073ffffffffffffffffffffffffffffffffffffffff16141562000806576040517f08c379a0000000000000000000000000000000000000000000000000000000008152600401620007fd906200362b565b60405180910390fd5b7f000000000000000000000000000000000000000000000000000000000000000073ffffffffffffffffffffffffffffffffffffffff166200084762001ea8565b73ffffffffffffffffffffffffffffffffffffffff1614620008a0576040517f08c379a0000000000000000000000000000000000000000000000000000000008152600401620008979062003691565b60405180910390fd5b620008ab8162001f01565b6200092e81600067ffffffffffffffff811115620008f2577f4e487b7100000000000000000000000000000000000000000000000000000000600052604160045260246000fd5b6040519080825280601f01601f191660200182016040528015620009255781602001600182028036833780820191505090505b50600062001f87565b50565b60008060fc60008473ffffffffffffffffffffffffffffffffffffffff1673ffffffffffffffffffffffffffffffffffffffff16815260200190815260200160002054905060008114156200098b57600091505062000991565b60019150505b919050565b620009a062002116565b73ffffffffffffffffffffffffffffffffffffffff16620009c0620010ae565b73ffffffffffffffffffffffffffffffffffffffff161462000a19576040517f08c379a000000000000000000000000000000000000000000000000000000000815260040162000a1090620037a1565b60405180910390fd5b62000a236200211e565b565b7f000000000000000000000000000000000000000000000000000000000000000073ffffffffffffffffffffffffffffffffffffffff163073ffffffffffffffffffffffffffffffffffffffff16141562000ab7576040517f08c379a000000000000000000000000000000000000000000000000000000000815260040162000aae906200362b565b60405180910390fd5b7f000000000000000000000000000000000000000000000000000000000000000073ffffffffffffffffffffffffffffffffffffffff1662000af862001ea8565b73ffffffffffffffffffffffffffffffffffffffff161462000b51576040517f08c379a000000000000000000000000000000000000000000000000000000000815260040162000b489062003691565b60405180910390fd5b62000b5c8262001f01565b62000b6a8282600162001f87565b5050565b60007f000000000000000000000000000000000000000000000000000000000000000073ffffffffffffffffffffffffffffffffffffffff163073ffffffffffffffffffffffffffffffffffffffff161462000c01576040517f08c379a000000000000000000000000000000000000000000000000000000000815260040162000bf890620036d5565b60405180910390fd5b7f360894a13ba1a3210667c828492db98dca3e2076cc3735a920a3ca505d382bbc60001b905090565b60006001905090565b6000828260405162000c4792919062003409565b6040518091039020905092915050565b600060c960009054906101000a900460ff16905090565b600062000c7a620021c9565b905090565b62000c8962002116565b73ffffffffffffffffffffffffffffffffffffffff1662000ca9620010ae565b73ffffffffffffffffffffffffffffffffffffffff161462000d02576040517f08c379a000000000000000000000000000000000000000000000000000000000815260040162000cf990620037a1565b60405180910390fd5b62000d0e600062002222565b565b600062000d1c62002116565b73ffffffffffffffffffffffffffffffffffffffff1662000d3c620010ae565b73ffffffffffffffffffffffffffffffffffffffff161462000d95576040517f08c379a000000000000000000000000000000000000000000000000000000000815260040162000d8c90620037a1565b60405180910390fd5b62000da083620017fd565b1562000de3576040517f08c379a000000000000000000000000000000000000000000000000000000000815260040162000dda906200366f565b60405180910390fd5b60008260405162000df49062002b0a565b62000e00919062003456565b604051809103906000f08015801562000e1d573d6000803e3d6000fd5b50905060405180604001604052808273ffffffffffffffffffffffffffffffffffffffff1681526020018473ffffffffffffffffffffffffffffffffffffffff1681525060fd8560405162000e7391906200343d565b908152602001604051809103902060008201518160000160006101000a81548173ffffffffffffffffffffffffffffffffffffffff021916908373ffffffffffffffffffffffffffffffffffffffff16021790555060208201518160010160006101000a81548173ffffffffffffffffffffffffffffffffffffffff021916908373ffffffffffffffffffffffffffffffffffffffff1602179055509050508273ffffffffffffffffffffffffffffffffffffffff168173ffffffffffffffffffffffffffffffffffffffff167f0cf91ad4bea2942598753b623faf1fd633fadd4c76e8b96b02f8af2c3edd32eb8660405162000f7191906200354f565b60405180910390a38091505092915050565b600062000f916001620022e8565b9050801562000fb6576001600060016101000a81548160ff0219169083151502179055505b62000fc0620023e3565b80156200101c5760008060016101000a81548160ff0219169083151502179055507f7f26b83ff96e1f2b6a682f133852f6798a09c465da95921460cefb3847402498600160405162001013919062003532565b60405180910390a15b50565b6200102962002116565b73ffffffffffffffffffffffffffffffffffffffff1662001049620010ae565b73ffffffffffffffffffffffffffffffffffffffff1614620010a2576040517f08c379a00000000000000000000000000000000000000000000000000000000081526004016200109990620037a1565b60405180910390fd5b620010ac62002469565b565b6000609760009054906101000a900473ffffffffffffffffffffffffffffffffffffffff16905090565b6000620010e462000c57565b1562001127576040517f08c379a00000000000000000000000000000000000000000000000000000000081526004016200111e90620036f7565b60405180910390fd5b6200113286620017fd565b62001174576040517f08c379a00000000000000000000000000000000000000000000000000000000081526004016200116b9062003609565b60405180910390fd5b600060fd876040516200118891906200343d565b908152602001604051809103902060000160009054906101000a900473ffffffffffffffffffffffffffffffffffffffff1660405180602001604052806000815250604051620011d89062002b18565b620011e5929190620034a0565b604051809103906000f08015801562001202573d6000803e3d6000fd5b5090508073ffffffffffffffffffffffffffffffffffffffff1663a6487c538686866040518463ffffffff1660e01b8152600401620012449392919062003573565b600060405180830381600087803b1580156200125f57600080fd5b505af115801562001274573d6000803e3d6000fd5b505050508073ffffffffffffffffffffffffffffffffffffffff1663f2fde38b876040518263ffffffff1660e01b8152600401620012b3919062003456565b600060405180830381600087803b158015620012ce57600080fd5b505af1158015620012e3573d6000803e3d6000fd5b5050505060fb819080600181540180825580915050600190039060005260206000200160009091909190916101000a81548173ffffffffffffffffffffffffffffffffffffffff021916908373ffffffffffffffffffffffffffffffffffffffff16021790555060fb8054905060fc60008373ffffffffffffffffffffffffffffffffffffffff1673ffffffffffffffffffffffffffffffffffffffff168152602001908152602001600020819055508573ffffffffffffffffffffffffffffffffffffffff168173ffffffffffffffffffffffffffffffffffffffff1660fd89604051620013d391906200343d565b908152602001604051809103902060010160009054906101000a900473ffffffffffffffffffffffffffffffffffffffff1673ffffffffffffffffffffffffffffffffffffffff167f9d82051e39e1e581c17ee66dece8b44eac27c6667534d946a31ed982277f57158a6040516200144c91906200354f565b60405180910390a48573ffffffffffffffffffffffffffffffffffffffff168173ffffffffffffffffffffffffffffffffffffffff1660fd896040516200149491906200343d565b908152602001604051809103902060010160009054906101000a900473ffffffffffffffffffffffffffffffffffffffff1673ffffffffffffffffffffffffffffffffffffffff167fa033188dbcf04bcfcb05ba71bca6eeb0716d494a2e4f91a35c439a95b04903db8a6040516200150d91906200354f565b60405180910390a48091505095945050505050565b6200152c620021c9565b73ffffffffffffffffffffffffffffffffffffffff166200154c62002116565b73ffffffffffffffffffffffffffffffffffffffff1614620015a5576040517f08c379a00000000000000000000000000000000000000000000000000000000081526004016200159c9062003807565b60405180910390fd5b620015b08162002515565b50565b600060fd82604051620015c791906200343d565b908152602001604051809103902060000160009054906101000a900473ffffffffffffffffffffffffffffffffffffffff169050919050565b60006200160c62001ea8565b905090565b60008173ffffffffffffffffffffffffffffffffffffffff1660fd846040516200163c91906200343d565b908152602001604051809103902060010160009054906101000a900473ffffffffffffffffffffffffffffffffffffffff1673ffffffffffffffffffffffffffffffffffffffff1614156200169557600190506200169a565b600090505b92915050565b6000620016ac62002116565b73ffffffffffffffffffffffffffffffffffffffff16620016cc620010ae565b73ffffffffffffffffffffffffffffffffffffffff161462001725576040517f08c379a00000000000000000000000000000000000000000000000000000000081526004016200171c90620037a1565b60405180910390fd5b6200173083620017fd565b15620017f25760fd836040516200174891906200343d565b908152602001604051809103902060000160009054906101000a900473ffffffffffffffffffffffffffffffffffffffff1673ffffffffffffffffffffffffffffffffffffffff16633659cfe6836040518263ffffffff1660e01b8152600401620017b4919062003456565b600060405180830381600087803b158015620017cf57600080fd5b505af1158015620017e4573d6000803e3d6000fd5b5050505060019050620017f7565b600090505b92915050565b60008073ffffffffffffffffffffffffffffffffffffffff1660fd836040516200182891906200343d565b908152602001604051809103902060000160009054906101000a900473ffffffffffffffffffffffffffffffffffffffff1673ffffffffffffffffffffffffffffffffffffffff161462001880576001905062001885565b600090505b919050565b60006200189662002116565b73ffffffffffffffffffffffffffffffffffffffff16620018b6620010ae565b73ffffffffffffffffffffffffffffffffffffffff16146200190f576040517f08c379a00000000000000000000000000000000000000000000000000000000081526004016200190690620037a1565b60405180910390fd5b6200191a82620017fd565b1562001a885760fd826040516200193291906200343d565b908152602001604051809103902060010160009054906101000a900473ffffffffffffffffffffffffffffffffffffffff1673ffffffffffffffffffffffffffffffffffffffff1660fd836040516200198c91906200343d565b908152602001604051809103902060000160009054906101000a900473ffffffffffffffffffffffffffffffffffffffff1673ffffffffffffffffffffffffffffffffffffffff167f4e06bb4b0039b8ea44266d1e3ddf7bd1ec312dd6cb79cfde285478ceec013e058460405162001a0591906200354f565b60405180910390a360fd8260405162001a1f91906200343d565b9081526020016040518091039020600080820160006101000a81549073ffffffffffffffffffffffffffffffffffffffff02191690556001820160006101000a81549073ffffffffffffffffffffffffffffffffffffffff021916905550506001905062001a8d565b600090505b919050565b600062001a9e62000c57565b1562001ae1576040517f08c379a000000000000000000000000000000000000000000000000000000000815260040162001ad890620036f7565b60405180910390fd5b600060fc60008473ffffffffffffffffffffffffffffffffffffffff1673ffffffffffffffffffffffffffffffffffffffff168152602001908152602001600020549050600081141562001b3a57600091505062001d9f565b60008373ffffffffffffffffffffffffffffffffffffffff16638da5cb5b6040518163ffffffff1660e01b815260040160206040518083038186803b15801562001b8357600080fd5b505afa15801562001b98573d6000803e3d6000fd5b505050506040513d601f19601f8201168201806040525081019062001bbe919062002cc8565b905062001bca62002116565b73ffffffffffffffffffffffffffffffffffffffff168173ffffffffffffffffffffffffffffffffffffffff16148062001c41575062001c0962002116565b73ffffffffffffffffffffffffffffffffffffffff1662001c29620010ae565b73ffffffffffffffffffffffffffffffffffffffff16145b62001c83576040517f08c379a000000000000000000000000000000000000000000000000000000000815260040162001c7a90620036b3565b60405180910390fd5b60fb60018362001c94919062003962565b8154811062001ccc577f4e487b7100000000000000000000000000000000000000000000000000000000600052603260045260246000fd5b9060005260206000200160006101000a81549073ffffffffffffffffffffffffffffffffffffffff0219169055600060fc60008673ffffffffffffffffffffffffffffffffffffffff1673ffffffffffffffffffffffffffffffffffffffff168152602001908152602001600020819055508073ffffffffffffffffffffffffffffffffffffffff168473ffffffffffffffffffffffffffffffffffffffff167f4bca1ac1ce7e7e8525b3cf4338d084b0c829c52d8562079b4730a67dc6c3be8360405160405180910390a36001925050505b919050565b62001dae62002116565b73ffffffffffffffffffffffffffffffffffffffff1662001dce620010ae565b73ffffffffffffffffffffffffffffffffffffffff161462001e27576040517f08c379a000000000000000000000000000000000000000000000000000000000815260040162001e1e90620037a1565b60405180910390fd5b600073ffffffffffffffffffffffffffffffffffffffff168173ffffffffffffffffffffffffffffffffffffffff16141562001e9a576040517f08c379a000000000000000000000000000000000000000000000000000000000815260040162001e9190620035e7565b60405180910390fd5b62001ea58162002222565b50565b600062001ed87f360894a13ba1a3210667c828492db98dca3e2076cc3735a920a3ca505d382bbc60001b62002567565b60000160009054906101000a900473ffffffffffffffffffffffffffffffffffffffff16905090565b62001f0b620021c9565b73ffffffffffffffffffffffffffffffffffffffff1662001f2b62002116565b73ffffffffffffffffffffffffffffffffffffffff161462001f84576040517f08c379a000000000000000000000000000000000000000000000000000000000815260040162001f7b9062003807565b60405180910390fd5b50565b62001fb57f4910fdfa16fed3260ed0e7147f7cc6da11a60208b5b9406d12a635614ffd914360001b62002571565b60000160009054906101000a900460ff161562001fdd5762001fd7836200257b565b62002111565b8273ffffffffffffffffffffffffffffffffffffffff166352d1902d6040518163ffffffff1660e01b815260040160206040518083038186803b1580156200202457600080fd5b505afa9250505080156200205857506040513d601f19601f8201168201806040525081019062002055919062002d4e565b60015b6200209a576040517f08c379a000000000000000000000000000000000000000000000000000000000815260040162002091906200375d565b60405180910390fd5b7f360894a13ba1a3210667c828492db98dca3e2076cc3735a920a3ca505d382bbc60001b811462002102576040517f08c379a0000000000000000000000000000000000000000000000000000000008152600401620020f99062003719565b60405180910390fd5b50620021108383836200263b565b5b505050565b600033905090565b6200212862000c57565b6200216a576040517f08c379a00000000000000000000000000000000000000000000000000000000081526004016200216190620035c5565b60405180910390fd5b600060c960006101000a81548160ff0219169083151502179055507f5db9ee0a495bf2e6ff9c91a7834c1ba4fdd244a5e8aa4e537bd38aeae4b073aa620021b062002116565b604051620021bf919062003456565b60405180910390a1565b6000620021f97fb53127684a568b3173ae13b9f8a6016e243e63b6e8ee1178d6a717850b5d610360001b62002567565b60000160009054906101000a900473ffffffffffffffffffffffffffffffffffffffff16905090565b6000609760009054906101000a900473ffffffffffffffffffffffffffffffffffffffff16905081609760006101000a81548173ffffffffffffffffffffffffffffffffffffffff021916908373ffffffffffffffffffffffffffffffffffffffff1602179055508173ffffffffffffffffffffffffffffffffffffffff168173ffffffffffffffffffffffffffffffffffffffff167f8be0079c531659141344cd1fd0a4f28419497f9722a3daafe3b4186f6b6457e060405160405180910390a35050565b60008060019054906101000a900460ff1615620023675760018260ff161480156200231b575062002319306200266d565b155b6200235d576040517f08c379a000000000000000000000000000000000000000000000000000000000815260040162002354906200373b565b60405180910390fd5b60009050620023de565b8160ff1660008054906101000a900460ff1660ff1610620023bf576040517f08c379a0000000000000000000000000000000000000000000000000000000008152600401620023b6906200373b565b60405180910390fd5b816000806101000a81548160ff021916908360ff160217905550600190505b919050565b600060019054906101000a900460ff1662002435576040517f08c379a00000000000000000000000000000000000000000000000000000000081526004016200242c90620037e5565b60405180910390fd5b6200243f62002690565b62002449620026ee565b620024536200274c565b620024676200246162002116565b62002515565b565b6200247362000c57565b15620024b6576040517f08c379a0000000000000000000000000000000000000000000000000000000008152600401620024ad90620036f7565b60405180910390fd5b600160c960006101000a81548160ff0219169083151502179055507f62e78cea01bee320cd4e420270b5ea74000d11b0c9f74754ebdbfc544b05a258620024fc62002116565b6040516200250b919062003456565b60405180910390a1565b7f7e644d79422f17c01e4894b5f4f588d331ebfa28653d42ae832dc59e38c9798f62002540620021c9565b826040516200255192919062003473565b60405180910390a16200256481620027a0565b50565b6000819050919050565b6000819050919050565b62002586816200266d565b620025c8576040517f08c379a0000000000000000000000000000000000000000000000000000000008152600401620025bf906200377f565b60405180910390fd5b80620025f77f360894a13ba1a3210667c828492db98dca3e2076cc3735a920a3ca505d382bbc60001b62002567565b60000160006101000a81548173ffffffffffffffffffffffffffffffffffffffff021916908373ffffffffffffffffffffffffffffffffffffffff16021790555050565b620026468362002886565b600082511180620026545750805b156200266857620026668383620028d7565b505b505050565b6000808273ffffffffffffffffffffffffffffffffffffffff163b119050919050565b600060019054906101000a900460ff16620026e2576040517f08c379a0000000000000000000000000000000000000000000000000000000008152600401620026d990620037e5565b60405180910390fd5b620026ec620029c7565b565b600060019054906101000a900460ff1662002740576040517f08c379a00000000000000000000000000000000000000000000000000000000081526004016200273790620037e5565b60405180910390fd5b6200274a62002a36565b565b600060019054906101000a900460ff166200279e576040517f08c379a00000000000000000000000000000000000000000000000000000000081526004016200279590620037e5565b60405180910390fd5b565b600073ffffffffffffffffffffffffffffffffffffffff168173ffffffffffffffffffffffffffffffffffffffff16141562002813576040517f08c379a00000000000000000000000000000000000000000000000000000000081526004016200280a906200364d565b60405180910390fd5b80620028427fb53127684a568b3173ae13b9f8a6016e243e63b6e8ee1178d6a717850b5d610360001b62002567565b60000160006101000a81548173ffffffffffffffffffffffffffffffffffffffff021916908373ffffffffffffffffffffffffffffffffffffffff16021790555050565b62002891816200257b565b8073ffffffffffffffffffffffffffffffffffffffff167fbc7cd75a20ee27fd9adebab32041f755214dbc6bffa90cc0225b39da2e5c2d3b60405160405180910390a250565b6060620028e4836200266d565b62002926576040517f08c379a00000000000000000000000000000000000000000000000000000000081526004016200291d90620037c3565b60405180910390fd5b6000808473ffffffffffffffffffffffffffffffffffffffff168460405162002950919062003424565b600060405180830381855af49150503d80600081146200298d576040519150601f19603f3d011682016040523d82523d6000602084013e62002992565b606091505b5091509150620029bd828260405180606001604052806027815260200162005b6c6027913962002a9e565b9250505092915050565b600060019054906101000a900460ff1662002a19576040517f08c379a000000000000000000000000000000000000000000000000000000000815260040162002a1090620037e5565b60405180910390fd5b600060c960006101000a81548160ff021916908315150217905550565b600060019054906101000a900460ff1662002a88576040517f08c379a000000000000000000000000000000000000000000000000000000000815260040162002a7f90620037e5565b60405180910390fd5b62002a9c62002a9662002116565b62002222565b565b6060831562002ab05782905062002b03565b60008351111562002ac45782518084602001fd5b816040517f08c379a000000000000000000000000000000000000000000000000000000000815260040162002afa91906200354f565b60405180910390fd5b9392505050565b610a9c806200407383390190565b61105d8062004b0f83390190565b600062002b3d62002b37846200386f565b62003846565b90508281526020810184848401111562002b5657600080fd5b62002b6384828562003a12565b509392505050565b600062002b8262002b7c84620038a5565b62003846565b90508281526020810184848401111562002b9b57600080fd5b62002ba884828562003a12565b509392505050565b60008135905062002bc1816200403e565b92915050565b60008151905062002bd8816200403e565b92915050565b60008151905062002bef8162004058565b92915050565b60008083601f84011262002c0857600080fd5b8235905067ffffffffffffffff81111562002c2257600080fd5b60208301915083600182028301111562002c3b57600080fd5b9250929050565b600082601f83011262002c5457600080fd5b813562002c6684826020860162002b26565b91505092915050565b600082601f83011262002c8157600080fd5b813562002c9384826020860162002b6b565b91505092915050565b60006020828403121562002caf57600080fd5b600062002cbf8482850162002bb0565b91505092915050565b60006020828403121562002cdb57600080fd5b600062002ceb8482850162002bc7565b91505092915050565b6000806040838503121562002d0857600080fd5b600062002d188582860162002bb0565b925050602083013567ffffffffffffffff81111562002d3657600080fd5b62002d448582860162002c42565b9150509250929050565b60006020828403121562002d6157600080fd5b600062002d718482850162002bde565b91505092915050565b6000806020838503121562002d8e57600080fd5b600083013567ffffffffffffffff81111562002da957600080fd5b62002db78582860162002bf5565b92509250509250929050565b60006020828403121562002dd657600080fd5b600082013567ffffffffffffffff81111562002df157600080fd5b62002dff8482850162002c6f565b91505092915050565b6000806040838503121562002e1c57600080fd5b600083013567ffffffffffffffff81111562002e3757600080fd5b62002e458582860162002c6f565b925050602062002e588582860162002bb0565b9150509250929050565b600080600080600060a0868803121562002e7b57600080fd5b600086013567ffffffffffffffff81111562002e9657600080fd5b62002ea48882890162002c6f565b955050602062002eb78882890162002bb0565b945050604086013567ffffffffffffffff81111562002ed557600080fd5b62002ee38882890162002c6f565b935050606086013567ffffffffffffffff81111562002f0157600080fd5b62002f0f8882890162002c6f565b925050608086013567ffffffffffffffff81111562002f2d57600080fd5b62002f3b8882890162002c6f565b9150509295509295909350565b600062002f56838362002f62565b60208301905092915050565b62002f6d816200399d565b82525050565b62002f7e816200399d565b82525050565b600062002f9182620038eb565b62002f9d818562003919565b935062002faa83620038db565b8060005b8381101562002fe157815162002fc5888262002f48565b975062002fd2836200390c565b92505060018101905062002fae565b5085935050505092915050565b62002ff981620039b1565b82525050565b6200300a81620039bd565b82525050565b60006200301e83856200393b565b93506200302d83858462003a12565b82840190509392505050565b60006200304682620038f6565b6200305281856200392a565b93506200306481856020860162003a21565b6200306f8162003aeb565b840191505092915050565b60006200308782620038f6565b6200309381856200393b565b9350620030a581856020860162003a21565b80840191505092915050565b620030bc81620039fe565b82525050565b6000620030cf8262003901565b620030db818562003946565b9350620030ed81856020860162003a21565b620030f88162003aeb565b840191505092915050565b6000620031108262003901565b6200311c818562003957565b93506200312e81856020860162003a21565b80840191505092915050565b60006200314960148362003946565b9150620031568262003afc565b602082019050919050565b60006200317060268362003946565b91506200317d8262003b25565b604082019050919050565b60006200319760338362003946565b9150620031a48262003b74565b604082019050919050565b6000620031be602c8362003946565b9150620031cb8262003bc3565b604082019050919050565b6000620031e560268362003946565b9150620031f28262003c12565b604082019050919050565b60006200320c60308362003946565b9150620032198262003c61565b604082019050919050565b600062003233602c8362003946565b9150620032408262003cb0565b604082019050919050565b60006200325a60518362003946565b9150620032678262003cff565b606082019050919050565b60006200328160388362003946565b91506200328e8262003d74565b604082019050919050565b6000620032a860108362003946565b9150620032b58262003dc3565b602082019050919050565b6000620032cf60298362003946565b9150620032dc8262003dec565b604082019050919050565b6000620032f6602e8362003946565b9150620033038262003e3b565b604082019050919050565b60006200331d602e8362003946565b91506200332a8262003e8a565b604082019050919050565b600062003344602d8362003946565b9150620033518262003ed9565b604082019050919050565b60006200336b60208362003946565b9150620033788262003f28565b602082019050919050565b60006200339260268362003946565b91506200339f8262003f51565b604082019050919050565b6000620033b9602b8362003946565b9150620033c68262003fa0565b604082019050919050565b6000620033e060248362003946565b9150620033ed8262003fef565b604082019050919050565b6200340381620039e7565b82525050565b60006200341882848662003010565b91508190509392505050565b60006200343282846200307a565b915081905092915050565b60006200344b828462003103565b915081905092915050565b60006020820190506200346d600083018462002f73565b92915050565b60006040820190506200348a600083018562002f73565b62003499602083018462002f73565b9392505050565b6000604082019050620034b7600083018562002f73565b8181036020830152620034cb818462003039565b90509392505050565b60006020820190508181036000830152620034f0818462002f84565b905092915050565b60006020820190506200350f600083018462002fee565b92915050565b60006020820190506200352c600083018462002fff565b92915050565b6000602082019050620035496000830184620030b1565b92915050565b600060208201905081810360008301526200356b8184620030c2565b905092915050565b600060608201905081810360008301526200358f8186620030c2565b90508181036020830152620035a58185620030c2565b90508181036040830152620035bb8184620030c2565b9050949350505050565b60006020820190508181036000830152620035e0816200313a565b9050919050565b60006020820190508181036000830152620036028162003161565b9050919050565b60006020820190508181036000830152620036248162003188565b9050919050565b600060208201905081810360008301526200364681620031af565b9050919050565b600060208201905081810360008301526200366881620031d6565b9050919050565b600060208201905081810360008301526200368a81620031fd565b9050919050565b60006020820190508181036000830152620036ac8162003224565b9050919050565b60006020820190508181036000830152620036ce816200324b565b9050919050565b60006020820190508181036000830152620036f08162003272565b9050919050565b60006020820190508181036000830152620037128162003299565b9050919050565b600060208201905081810360008301526200373481620032c0565b9050919050565b600060208201905081810360008301526200375681620032e7565b9050919050565b6000602082019050818103600083015262003778816200330e565b9050919050565b600060208201905081810360008301526200379a8162003335565b9050919050565b60006020820190508181036000830152620037bc816200335c565b9050919050565b60006020820190508181036000830152620037de8162003383565b9050919050565b600060208201905081810360008301526200380081620033aa565b9050919050565b600060208201905081810360008301526200382281620033d1565b9050919050565b6000602082019050620038406000830184620033f8565b92915050565b60006200385262003865565b905062003860828262003a57565b919050565b6000604051905090565b600067ffffffffffffffff8211156200388d576200388c62003abc565b5b620038988262003aeb565b9050602081019050919050565b600067ffffffffffffffff821115620038c357620038c262003abc565b5b620038ce8262003aeb565b9050602081019050919050565b6000819050602082019050919050565b600081519050919050565b600081519050919050565b600081519050919050565b6000602082019050919050565b600082825260208201905092915050565b600082825260208201905092915050565b600081905092915050565b600082825260208201905092915050565b600081905092915050565b60006200396f82620039e7565b91506200397c83620039e7565b92508282101562003992576200399162003a8d565b5b828203905092915050565b6000620039aa82620039c7565b9050919050565b60008115159050919050565b6000819050919050565b600073ffffffffffffffffffffffffffffffffffffffff82169050919050565b6000819050919050565b600060ff82169050919050565b600062003a0b82620039f1565b9050919050565b82818337600083830152505050565b60005b8381101562003a4157808201518184015260208101905062003a24565b8381111562003a51576000848401525b50505050565b62003a628262003aeb565b810181811067ffffffffffffffff8211171562003a845762003a8362003abc565b5b80604052505050565b7f4e487b7100000000000000000000000000000000000000000000000000000000600052601160045260246000fd5b7f4e487b7100000000000000000000000000000000000000000000000000000000600052604160045260246000fd5b6000601f19601f8301169050919050565b7f5061757361626c653a206e6f7420706175736564000000000000000000000000600082015250565b7f4f776e61626c653a206e6577206f776e657220697320746865207a65726f206160008201527f6464726573730000000000000000000000000000000000000000000000000000602082015250565b7f52656769737472793a20637265617465506f72666f6c696f203d3e20506f727460008201527f666f6c696f206e6f7420737570706f7274656400000000000000000000000000602082015250565b7f46756e6374696f6e206d7573742062652063616c6c6564207468726f7567682060008201527f64656c656761746563616c6c0000000000000000000000000000000000000000602082015250565b7f455243313936373a206e65772061646d696e20697320746865207a65726f206160008201527f6464726573730000000000000000000000000000000000000000000000000000602082015250565b7f616464506f7274666f6c696f537570706f72743a20506f7274666f6c696f206160008201527f6c726561647920737570706f7274656400000000000000000000000000000000602082015250565b7f46756e6374696f6e206d7573742062652063616c6c6564207468726f7567682060008201527f6163746976652070726f78790000000000000000000000000000000000000000602082015250565b7f52656769737472793a20756e7265676973746572506f7274666f6c696f203d3e60008201527f2063616c6c6572206973206e6f7420746865206f776e6572206f6620506f727460208201527f666f6c696f206f72205265676973747279000000000000000000000000000000604082015250565b7f555550535570677261646561626c653a206d757374206e6f742062652063616c60008201527f6c6564207468726f7567682064656c656761746563616c6c0000000000000000602082015250565b7f5061757361626c653a2070617573656400000000000000000000000000000000600082015250565b7f45524331393637557067726164653a20756e737570706f727465642070726f7860008201527f6961626c65555549440000000000000000000000000000000000000000000000602082015250565b7f496e697469616c697a61626c653a20636f6e747261637420697320616c72656160008201527f647920696e697469616c697a6564000000000000000000000000000000000000602082015250565b7f45524331393637557067726164653a206e657720696d706c656d656e7461746960008201527f6f6e206973206e6f742055555053000000000000000000000000000000000000602082015250565b7f455243313936373a206e657720696d706c656d656e746174696f6e206973206e60008201527f6f74206120636f6e747261637400000000000000000000000000000000000000602082015250565b7f4f776e61626c653a2063616c6c6572206973206e6f7420746865206f776e6572600082015250565b7f416464726573733a2064656c65676174652063616c6c20746f206e6f6e2d636f60008201527f6e74726163740000000000000000000000000000000000000000000000000000602082015250565b7f496e697469616c697a61626c653a20636f6e7472616374206973206e6f74206960008201527f6e697469616c697a696e67000000000000000000000000000000000000000000602082015250565b7f5570677261646561626c653a2063616c6c6572206973206e6f7420746865206160008201527f646d696e00000000000000000000000000000000000000000000000000000000602082015250565b62004049816200399d565b81146200405557600080fd5b50565b6200406381620039bd565b81146200406f57600080fd5b5056fe608060405234801561001057600080fd5b50604051610a9c380380610a9c833981810160405281019061003291906101fd565b61004e61004361006360201b60201c565b61006b60201b60201c565b61005d8161012f60201b60201c565b50610312565b600033905090565b60008060009054906101000a900473ffffffffffffffffffffffffffffffffffffffff169050816000806101000a81548173ffffffffffffffffffffffffffffffffffffffff021916908373ffffffffffffffffffffffffffffffffffffffff1602179055508173ffffffffffffffffffffffffffffffffffffffff168173ffffffffffffffffffffffffffffffffffffffff167f8be0079c531659141344cd1fd0a4f28419497f9722a3daafe3b4186f6b6457e060405160405180910390a35050565b610142816101c560201b6103781760201c565b610181576040517f08c379a000000000000000000000000000000000000000000000000000000000815260040161017890610249565b60405180910390fd5b80600160006101000a81548173ffffffffffffffffffffffffffffffffffffffff021916908373ffffffffffffffffffffffffffffffffffffffff16021790555050565b6000808273ffffffffffffffffffffffffffffffffffffffff163b119050919050565b6000815190506101f7816102fb565b92915050565b60006020828403121561020f57600080fd5b600061021d848285016101e8565b91505092915050565b6000610233603383610269565b915061023e826102ac565b604082019050919050565b6000602082019050818103600083015261026281610226565b9050919050565b600082825260208201905092915050565b60006102858261028c565b9050919050565b600073ffffffffffffffffffffffffffffffffffffffff82169050919050565b7f5570677261646561626c65426561636f6e3a20696d706c656d656e746174696f60008201527f6e206973206e6f74206120636f6e747261637400000000000000000000000000602082015250565b6103048161027a565b811461030f57600080fd5b50565b61077b806103216000396000f3fe608060405234801561001057600080fd5b50600436106100575760003560e01c80633659cfe61461005c5780635c60da1b14610078578063715018a6146100965780638da5cb5b146100a0578063f2fde38b146100be575b600080fd5b61007660048036038101906100719190610508565b6100da565b005b6100806101a5565b60405161008d91906105a9565b60405180910390f35b61009e6101cf565b005b6100a8610257565b6040516100b591906105a9565b60405180910390f35b6100d860048036038101906100d39190610508565b610280565b005b6100e261039b565b73ffffffffffffffffffffffffffffffffffffffff16610100610257565b73ffffffffffffffffffffffffffffffffffffffff1614610156576040517f08c379a000000000000000000000000000000000000000000000000000000000815260040161014d90610604565b60405180910390fd5b61015f816103a3565b8073ffffffffffffffffffffffffffffffffffffffff167fbc7cd75a20ee27fd9adebab32041f755214dbc6bffa90cc0225b39da2e5c2d3b60405160405180910390a250565b6000600160009054906101000a900473ffffffffffffffffffffffffffffffffffffffff16905090565b6101d761039b565b73ffffffffffffffffffffffffffffffffffffffff166101f5610257565b73ffffffffffffffffffffffffffffffffffffffff161461024b576040517f08c379a000000000000000000000000000000000000000000000000000000000815260040161024290610604565b60405180910390fd5b610255600061042f565b565b60008060009054906101000a900473ffffffffffffffffffffffffffffffffffffffff16905090565b61028861039b565b73ffffffffffffffffffffffffffffffffffffffff166102a6610257565b73ffffffffffffffffffffffffffffffffffffffff16146102fc576040517f08c379a00000000000000000000000000000000000000000000000000000000081526004016102f390610604565b60405180910390fd5b600073ffffffffffffffffffffffffffffffffffffffff168173ffffffffffffffffffffffffffffffffffffffff16141561036c576040517f08c379a0000000000000000000000000000000000000000000000000000000008152600401610363906105c4565b60405180910390fd5b6103758161042f565b50565b6000808273ffffffffffffffffffffffffffffffffffffffff163b119050919050565b600033905090565b6103ac81610378565b6103eb576040517f08c379a00000000000000000000000000000000000000000000000000000000081526004016103e2906105e4565b60405180910390fd5b80600160006101000a81548173ffffffffffffffffffffffffffffffffffffffff021916908373ffffffffffffffffffffffffffffffffffffffff16021790555050565b60008060009054906101000a900473ffffffffffffffffffffffffffffffffffffffff169050816000806101000a81548173ffffffffffffffffffffffffffffffffffffffff021916908373ffffffffffffffffffffffffffffffffffffffff1602179055508173ffffffffffffffffffffffffffffffffffffffff168173ffffffffffffffffffffffffffffffffffffffff167f8be0079c531659141344cd1fd0a4f28419497f9722a3daafe3b4186f6b6457e060405160405180910390a35050565b6000813590506105028161072e565b92915050565b60006020828403121561051a57600080fd5b6000610528848285016104f3565b91505092915050565b61053a81610635565b82525050565b600061054d602683610624565b915061055882610667565b604082019050919050565b6000610570603383610624565b915061057b826106b6565b604082019050919050565b6000610593602083610624565b915061059e82610705565b602082019050919050565b60006020820190506105be6000830184610531565b92915050565b600060208201905081810360008301526105dd81610540565b9050919050565b600060208201905081810360008301526105fd81610563565b9050919050565b6000602082019050818103600083015261061d81610586565b9050919050565b600082825260208201905092915050565b600061064082610647565b9050919050565b600073ffffffffffffffffffffffffffffffffffffffff82169050919050565b7f4f776e61626c653a206e6577206f776e657220697320746865207a65726f206160008201527f6464726573730000000000000000000000000000000000000000000000000000602082015250565b7f5570677261646561626c65426561636f6e3a20696d706c656d656e746174696f60008201527f6e206973206e6f74206120636f6e747261637400000000000000000000000000602082015250565b7f4f776e61626c653a2063616c6c6572206973206e6f7420746865206f776e6572600082015250565b61073781610635565b811461074257600080fd5b5056fea26469706673582212205793dfc04b0f5ee0bac405e797da436e51cdd1667e77478c4a52e80f856a429764736f6c6343000802003360806040526040516200105d3803806200105d8339818101604052810190620000299190620005f1565b60017fa3f0ad74e5423aebfd80d3ef4346578335a9a72aeaee59ff6cb3582b35133d5160001c6200005b91906200086c565b60001b7fa3f0ad74e5423aebfd80d3ef4346578335a9a72aeaee59ff6cb3582b35133d5060001b14620000b7577f4e487b7100000000000000000000000000000000000000000000000000000000600052600160045260246000fd5b620000cb82826000620000d360201b60201c565b505062000ac7565b620000e483620001da60201b60201c565b8273ffffffffffffffffffffffffffffffffffffffff167f1cf3b03a6cf19fa2baba4df148e9dcabedea7f8a5c07840e207e5c089be95d3e60405160405180910390a2600082511180620001355750805b15620001d557620001d38373ffffffffffffffffffffffffffffffffffffffff16635c60da1b6040518163ffffffff1660e01b815260040160206040518083038186803b1580156200018657600080fd5b505afa1580156200019b573d6000803e3d6000fd5b505050506040513d601f19601f82011682018060405250810190620001c19190620005c5565b836200038960201b620000371760201c565b505b505050565b620001f081620003bf60201b620000641760201c565b62000232576040517f08c379a0000000000000000000000000000000000000000000000000000000008152600401620002299062000775565b60405180910390fd5b620002c98173ffffffffffffffffffffffffffffffffffffffff16635c60da1b6040518163ffffffff1660e01b815260040160206040518083038186803b1580156200027d57600080fd5b505afa15801562000292573d6000803e3d6000fd5b505050506040513d601f19601f82011682018060405250810190620002b89190620005c5565b620003bf60201b620000641760201c565b6200030b576040517f08c379a00000000000000000000000000000000000000000000000000000000081526004016200030290620007b9565b60405180910390fd5b80620003457fa3f0ad74e5423aebfd80d3ef4346578335a9a72aeaee59ff6cb3582b35133d5060001b620003e260201b620000871760201c565b60000160006101000a81548173ffffffffffffffffffffffffffffffffffffffff021916908373ffffffffffffffffffffffffffffffffffffffff16021790555050565b6060620003b783836040518060600160405280602781526020016200103660279139620003ec60201b60201c565b905092915050565b6000808273ffffffffffffffffffffffffffffffffffffffff163b119050919050565b6000819050919050565b6060620003ff84620003bf60201b60201c565b62000441576040517f08c379a0000000000000000000000000000000000000000000000000000000008152600401620004389062000797565b60405180910390fd5b6000808573ffffffffffffffffffffffffffffffffffffffff16856040516200046b919062000738565b600060405180830381855af49150503d8060008114620004a8576040519150601f19603f3d011682016040523d82523d6000602084013e620004ad565b606091505b5091509150620004c5828286620004d060201b60201c565b925050509392505050565b60608315620004e25782905062000535565b600083511115620004f65782518084602001fd5b816040517f08c379a00000000000000000000000000000000000000000000000000000000081526004016200052c919062000751565b60405180910390fd5b9392505050565b6000620005536200054d8462000804565b620007db565b9050828152602081018484840111156200056c57600080fd5b62000579848285620008e5565b509392505050565b600081519050620005928162000aad565b92915050565b600082601f830112620005aa57600080fd5b8151620005bc8482602086016200053c565b91505092915050565b600060208284031215620005d857600080fd5b6000620005e88482850162000581565b91505092915050565b600080604083850312156200060557600080fd5b6000620006158582860162000581565b925050602083015167ffffffffffffffff8111156200063357600080fd5b620006418582860162000598565b9150509250929050565b600062000658826200083a565b62000664818562000850565b935062000676818560208601620008e5565b80840191505092915050565b60006200068f8262000845565b6200069b81856200085b565b9350620006ad818560208601620008e5565b620006b881620009af565b840191505092915050565b6000620006d26025836200085b565b9150620006df82620009c0565b604082019050919050565b6000620006f96026836200085b565b9150620007068262000a0f565b604082019050919050565b6000620007206030836200085b565b91506200072d8262000a5e565b604082019050919050565b60006200074682846200064b565b915081905092915050565b600060208201905081810360008301526200076d818462000682565b905092915050565b600060208201905081810360008301526200079081620006c3565b9050919050565b60006020820190508181036000830152620007b281620006ea565b9050919050565b60006020820190508181036000830152620007d48162000711565b9050919050565b6000620007e7620007fa565b9050620007f582826200091b565b919050565b6000604051905090565b600067ffffffffffffffff82111562000822576200082162000980565b5b6200082d82620009af565b9050602081019050919050565b600081519050919050565b600081519050919050565b600081905092915050565b600082825260208201905092915050565b60006200087982620008db565b91506200088683620008db565b9250828210156200089c576200089b62000951565b5b828203905092915050565b6000620008b482620008bb565b9050919050565b600073ffffffffffffffffffffffffffffffffffffffff82169050919050565b6000819050919050565b60005b8381101562000905578082015181840152602081019050620008e8565b8381111562000915576000848401525b50505050565b6200092682620009af565b810181811067ffffffffffffffff8211171562000948576200094762000980565b5b80604052505050565b7f4e487b7100000000000000000000000000000000000000000000000000000000600052601160045260246000fd5b7f4e487b7100000000000000000000000000000000000000000000000000000000600052604160045260246000fd5b6000601f19601f8301169050919050565b7f455243313936373a206e657720626561636f6e206973206e6f74206120636f6e60008201527f7472616374000000000000000000000000000000000000000000000000000000602082015250565b7f416464726573733a2064656c65676174652063616c6c20746f206e6f6e2d636f60008201527f6e74726163740000000000000000000000000000000000000000000000000000602082015250565b7f455243313936373a20626561636f6e20696d706c656d656e746174696f6e206960008201527f73206e6f74206120636f6e747261637400000000000000000000000000000000602082015250565b62000ab881620008a7565b811462000ac457600080fd5b50565b61055f8062000ad76000396000f3fe6080604052366100135761001161001d565b005b61001b61001d565b005b610025610091565b610035610030610093565b61011f565b565b606061005c838360405180606001604052806027815260200161050360279139610145565b905092915050565b6000808273ffffffffffffffffffffffffffffffffffffffff163b119050919050565b6000819050919050565b565b600061009d610212565b73ffffffffffffffffffffffffffffffffffffffff16635c60da1b6040518163ffffffff1660e01b815260040160206040518083038186803b1580156100e257600080fd5b505afa1580156100f6573d6000803e3d6000fd5b505050506040513d601f19601f8201168201806040525081019061011a91906102e5565b905090565b3660008037600080366000845af43d6000803e8060008114610140573d6000f35b3d6000fd5b606061015084610064565b61018f576040517f08c379a0000000000000000000000000000000000000000000000000000000008152600401610186906103d4565b60405180910390fd5b6000808573ffffffffffffffffffffffffffffffffffffffff16856040516101b7919061039b565b600060405180830381855af49150503d80600081146101f2576040519150601f19603f3d011682016040523d82523d6000602084013e6101f7565b606091505b5091509150610207828286610269565b925050509392505050565b60006102407fa3f0ad74e5423aebfd80d3ef4346578335a9a72aeaee59ff6cb3582b35133d5060001b610087565b60000160009054906101000a900473ffffffffffffffffffffffffffffffffffffffff16905090565b60608315610279578290506102c9565b60008351111561028c5782518084602001fd5b816040517f08c379a00000000000000000000000000000000000000000000000000000000081526004016102c091906103b2565b60405180910390fd5b9392505050565b6000815190506102df816104eb565b92915050565b6000602082840312156102f757600080fd5b6000610305848285016102d0565b91505092915050565b6000610319826103f4565b610323818561040a565b9350610333818560208601610458565b80840191505092915050565b600061034a826103ff565b6103548185610415565b9350610364818560208601610458565b61036d8161048b565b840191505092915050565b6000610385602683610415565b91506103908261049c565b604082019050919050565b60006103a7828461030e565b915081905092915050565b600060208201905081810360008301526103cc818461033f565b905092915050565b600060208201905081810360008301526103ed81610378565b9050919050565b600081519050919050565b600081519050919050565b600081905092915050565b600082825260208201905092915050565b600061043182610438565b9050919050565b600073ffffffffffffffffffffffffffffffffffffffff82169050919050565b60005b8381101561047657808201518184015260208101905061045b565b83811115610485576000848401525b50505050565b6000601f19601f8301169050919050565b7f416464726573733a2064656c65676174652063616c6c20746f206e6f6e2d636f60008201527f6e74726163740000000000000000000000000000000000000000000000000000602082015250565b6104f481610426565b81146104ff57600080fd5b5056fe416464726573733a206c6f772d6c6576656c2064656c65676174652063616c6c206661696c6564a2646970667358221220f215e2fe661ee10e74cfd40da8d1ba25c1eca3fb1758c303c782d3a40851be8864736f6c63430008020033416464726573733a206c6f772d6c6576656c2064656c65676174652063616c6c206661696c6564416464726573733a206c6f772d6c6576656c2064656c65676174652063616c6c206661696c6564a26469706673582212203d3357b413d6eb5fe9b0e86064b217ebcbe2881e64b6ea13db7cee50b357afeb64736f6c63430008020033",
  "immutableReferences": {
    "685": [
      {
        "length": 32,
        "start": 1910
      },
      {
        "length": 32,
        "start": 2056
      },
      {
        "length": 32,
        "start": 2599
      },
      {
        "length": 32,
        "start": 2745
      },
      {
        "length": 32,
        "start": 2930
      }
    ]
  },
  "source": "// SPDX-License-Identifier: MIT\r\npragma solidity 0.8.2;\r\n\r\nimport \"./RegistryStorage.sol\";\r\nimport \"@openzeppelin/contracts/proxy/beacon/BeaconProxy.sol\";\r\nimport \"@openzeppelin/contracts/proxy/beacon/UpgradeableBeacon.sol\";\r\n\r\n/// @title Registry Contract for Portfolios of NFTs\r\n/// @author D Collette\r\n/// @notice You can use this contract to manage standardize Portfolios (Create/Locate portfolio contracts: Factory and Registry patterns) compliant with Verifiable credentials: Certificate of Authenticity, Certificate of Ownership, etc. )\r\n/// @dev Need to expand the Portfolio interface (and abstract contract) and move it out in a seperate file. Verify Interface/Methods of abstract contract implemented for each Portfolio supported.\r\n\r\ninterface IPortfolio {\r\n    function transferOwnership(address newOwner) external;\r\n    function owner() external view returns (address);\r\n    function initialize(string memory name_, string memory symbol_, string memory portfolioURI_) external;\r\n}\r\n\r\ncontract Registry is RegistryStorage {\r\n\r\n    /// @notice Emitted when a Portfolio instance is created.\r\n    /// @dev Emitted when a Portfolio instance is deployed with createPortfolio method.\r\n    event portfolioDeployed(string contractName, address indexed implementationAddress, address indexed portfolioAddress, address indexed owner);\r\n\r\n    /// @notice Emitted when a Portfolio instance is registered.\r\n    /// @dev Emitted when a Portfolio instance is added to the Portfolios Registered array.\r\n    event portfolioRegistered(string contractName, address indexed implementationAddress, address indexed portfolioAddress, address indexed owner);\r\n\r\n    /// @notice Emitted when a Portfolio instance is unregistered.\r\n    /// @dev Emitted when a Portfolio instance is removed from the Portfolios Registered array.\r\n    event portfolioUnregistered(address indexed portfolioAddress, address indexed owner);\r\n\r\n    /// @notice Emitted when a Portfolio Support is added.\r\n    /// @dev Emitted when a Portfolio Support is added to the map of Portfolios Supported.\r\n    event portfolioSupportAdded(string contractName, address indexed beaconAddress, address indexed implementationAddress);\r\n\r\n    /// @notice Emitted when a Portfolio Support is deleted.\r\n    /// @dev Emitted when a Portfolio Support is deleted from the map of Portfolios Supported.\r\n    event portfolioSupportDeleted(string contractName, address indexed beaconAddress, address indexed implementationAddress);\r\n\r\n    /// @dev Called after creation of contract dues to the requirements of a proxy-based upgradeability pattern: delegateCalls using proxy storage  - no contructor can be used\r\n    function initialize() public initializer {\r\n        __RegistryUpgradeable_init();\r\n    }\r\n\r\n    /// @notice Create a Portfolio with information provided.\r\n    /// @dev Create a Portfolio instance (Beacon proxy) using the provided contractName and register it (Factory and Registry patterns). \r\n    /// @dev Requirements: whenNotPaused and portfolio byte code is supported.\r\n    /// @param contractName_ Name of Portfolio contract supported to be used to create a new instance of a portfolio.\r\n    /// @param owner_ Address of owner of portfolio - Transfer ownership of Portfolio created to owner_.\r\n    /// @param name_ Name of Portfolio instance.\r\n    /// @param symbol_ Symbol of Portfolio instance.\r\n    /// @param portfolioURI_ URI of Portfolio instance (Current Client implementation: IPFS CID of image file).\r\n    /// @return address of created/deployed Portfolio Contract instance: BeaconProxy address.\r\n    function createPortfolio(string memory contractName_, address owner_, string memory name_, string memory symbol_, string memory portfolioURI_)\r\n     external whenNotPaused returns (address) {\r\n         require(isPortoflioSupported(contractName_), \"Registry: createPorfolio => Portfolio not supported\");\r\n        address addressDeployed = address(new BeaconProxy(_portfoliosSupported[contractName_].beacon, bytes(\"\")));\r\n        IPortfolio(addressDeployed).initialize(name_, symbol_, portfolioURI_);\r\n        IPortfolio(addressDeployed).transferOwnership(owner_);\r\n        _portfoliosRegistered.push(addressDeployed);\r\n        _portfoliosRegisteredIndex[addressDeployed] = _portfoliosRegistered.length;\r\n        emit portfolioDeployed(contractName_, _portfoliosSupported[contractName_].implementation, addressDeployed, owner_);\r\n        emit portfolioRegistered(contractName_, _portfoliosSupported[contractName_].implementation, addressDeployed, owner_);\r\n        return addressDeployed;\r\n    }\r\n\r\n    /// @notice Verify if Portfolio instance registered.\r\n    /// @dev Verify if Portfolio rinstance egistred by checking the '_portfoliosRegisteredIndex'.\r\n    /// @param portfolioAddress address of Portfolio instance to be verified.\r\n    /// @return boolean - False if Portfolio instance not registered.\r\n    function isPortoflioRegistered(address portfolioAddress) external view returns (bool) {\r\n        uint256 idx = _portfoliosRegisteredIndex[portfolioAddress];\r\n        if ( idx == uint256(0x0)) {\r\n            return false;\r\n        }\r\n        return true;\r\n    }\r\n\r\n    /// @notice Unregister a Portfolio instance.\r\n    /// @dev Unregister a Portfolio instance at address specified.\r\n    /// @dev Requirements: whenNotPaused and called by owner of Portfolio instance or Registry only.\r\n    /// @param portfolioAddress address of Portfolio instance to be unregistered.\r\n    /// @return bool.\r\n    function unregisterPortfolio(address portfolioAddress) external whenNotPaused returns (bool) {\r\n        uint256 idx = _portfoliosRegisteredIndex[portfolioAddress];\r\n        if ( idx == uint256(0x0)) {\r\n            return false;\r\n        }\r\n        address _owner = IPortfolio(portfolioAddress).owner();\r\n        require(_owner == _msgSender() || owner() == _msgSender(), \"Registry: unregisterPortfolio => caller is not the owner of Portfolio or Registry\");\r\n        delete _portfoliosRegistered[idx-1];\r\n        _portfoliosRegisteredIndex[portfolioAddress] = 0;\r\n        emit portfolioUnregistered(portfolioAddress, _owner);\r\n        return true;\r\n    }\r\n\r\n    /// @notice Get addresses of registered Portfolio instances.\r\n    /// @dev Get registered Portfolios' addresses (array). \r\n    /// @dev Requirements: whenNotPaused.\r\n    /// @return array of addresses.\r\n    function getAllPortofliosRegistered() external view whenNotPaused returns (address[] memory) {\r\n        return _portfoliosRegistered;\r\n    }\r\n\r\n    /// @notice Compute Hash of Portfolio bytecode.\r\n    /// @dev Compute keccak256 Hash of bytecode provided. \r\n    /// @param byteCode_ creation byte code of Portfolio contract to be created.\r\n    /// @return bytes32:keccak256 hash.\r\n    function getHashByteCode(bytes calldata byteCode_) external pure returns (bytes32) {\r\n        return keccak256(byteCode_);\r\n    }\r\n\r\n    /// @notice Upgrade implementation of Portfolio support.\r\n    /// @dev Upgrade implementation of Portfolio support: Beacon proxy pattern -> upgrade all instances using this beacon. \r\n    /// @param contractName_ Name of Portoflio support to upgrade.\r\n    /// @param newImplementation_ Address of new implementation.\r\n    /// @return bool\r\n    function upgradePortfolioSupport(string memory contractName_, address newImplementation_) external onlyOwner returns (bool) {\r\n        if (isPortoflioSupported(contractName_)) {\r\n            UpgradeableBeacon(_portfoliosSupported[contractName_].beacon).upgradeTo(newImplementation_);\r\n            return true;\r\n        }\r\n        return false;\r\n    }\r\n    \r\n    /// @notice Get Beacon instance for a Portfolio supported.\r\n    /// @dev Get Beacon instance for a Portfolio supported. \r\n    /// @param contractName_ Name of Portoflio support.\r\n    /// @return address:Beacon instance\r\n        function getBeaconPortoflioSupported(string memory contractName_) public view returns (address) {\r\n        return _portfoliosSupported[contractName_].beacon;\r\n    }\r\n\r\n    /// @notice Add support of a Portfolio.\r\n    /// @dev Add support of a Portfolio. \r\n    /// @dev Requirements: onlyOwner.\r\n    /// @param contractName_ Name of Portfolio Contract.\r\n    /// @param implementation_ creation byte code Hash of Portfolio contract to be added.\r\n    /// @return bytes32:hashCreationCode_.\r\n    function addPortfolioSupport(string memory contractName_, address implementation_) external onlyOwner returns (address) {\r\n        require(!isPortoflioSupported(contractName_), \"addPortfolioSupport: Portfolio already supported\");\r\n        address beacon = address(new UpgradeableBeacon(implementation_));\r\n        _portfoliosSupported[contractName_] = Portfolio(beacon, implementation_);\r\n        emit portfolioSupportAdded(contractName_, beacon, implementation_);\r\n        return beacon;\r\n    }\r\n\r\n    /// @notice Delete support of a Portfolio.\r\n    /// @dev Delete support of a Portfolio and emits event 'portfolioSupportDeleted' if successful.\r\n    /// @dev Requirements: onlyOwner.\r\n    /// @param contractName_ Name of Portfolio Contract to be deleted.\r\n    /// @return boolean - False if Portfolio hash not in the list of supported Portfolios.\r\n    function delPortfolioSupport(string memory contractName_) external onlyOwner returns (bool) {\r\n        if (isPortoflioSupported(contractName_)) {\r\n            emit portfolioSupportDeleted(contractName_, _portfoliosSupported[contractName_].beacon, _portfoliosSupported[contractName_].implementation);\r\n            delete _portfoliosSupported[contractName_];\r\n            return true;\r\n        }\r\n        return false;\r\n    }\r\n\r\n    /// @notice Verify if Portfolio supported.\r\n    /// @dev Verify if Portfolio supported by checking the name of Protfolio contract in the mapping '_portfoliosSupported'.\r\n    /// @param contractName_ Name of Portfolio Contract to be verified.\r\n    /// @return boolean - False if Portfolio not in the list of supported Portfolios.\r\n    function isPortoflioSupported(string memory contractName_) public view returns (bool) {\r\n        if (_portfoliosSupported[contractName_].beacon != address(0)) {\r\n            return true;\r\n        }\r\n        return false;\r\n    }\r\n\r\n    /// @notice Verify if Portfolio supported.\r\n    /// @dev Verify if Portfolio supported by checking the checking the name and implementation of Protfolio contract in the mapping '_portfoliosSupported'.\r\n    /// @param contractName_ Name of Portfolio Contract to be verified.\r\n    /// @return boolean - False if Portfolio Name and Implementation not in the list of supported Portfolios.\r\n    function isPortoflioImplementationSupported(string memory contractName_, address implementation_) public view returns (bool) {\r\n        if (_portfoliosSupported[contractName_].implementation == implementation_) {\r\n            return true;\r\n        }\r\n        return false;\r\n    }\r\n\r\n    /// @notice Pause Registry Contract.\r\n    /// @dev Pause 'createPortfolio', 'unregisterPortfolio' and 'getAllPortofliosRegistered'.\r\n    /// @dev Requirements: whenNotPaused and onlyOwner.\r\n    function pause() external virtual onlyOwner {\r\n        _pause();\r\n    }\r\n\r\n    /// @notice Unpause Registry Contract.\r\n    /// @dev Unpause 'createPortfolio', 'unregisterPortfolio' and 'getAllPortofliosRegistered'.\r\n    /// @dev Requirements: whenPaused and onlyOwner.\r\n    function unpause() external virtual onlyOwner {\r\n        _unpause();\r\n    }\r\n\r\n    /// @dev Internal helper: compare two strings.\r\n    function _equalStrings(string memory a, string memory b) internal pure returns( bool ) {\r\n        return keccak256(bytes(a)) == keccak256(bytes(b));\r\n    }\r\n\r\n}\r\n",
  "sourcePath": "C:\\Users\\didier.collette\\git\\blockchain-developer-bootcamp-final-project\\chain\\contracts\\Registry.sol",
  "compiler": {
    "name": "solc",
    "version": "0.8.2+commit.661d1103.Emscripten.clang"
  },
  "schemaVersion": "3.4.3",
  "updatedAt": "2022-06-07T19:30:05.470Z",
  "networkType": "ethereum",
  "devdoc": {
    "events": {
      "portfolioDeployed(string,address,address,address)": {
        "details": "Emitted when a Portfolio instance is deployed with createPortfolio method."
      },
      "portfolioRegistered(string,address,address,address)": {
        "details": "Emitted when a Portfolio instance is added to the Portfolios Registered array."
      },
      "portfolioSupportAdded(string,address,address)": {
        "details": "Emitted when a Portfolio Support is added to the map of Portfolios Supported."
      },
      "portfolioSupportDeleted(string,address,address)": {
        "details": "Emitted when a Portfolio Support is deleted from the map of Portfolios Supported."
      },
      "portfolioUnregistered(address,address)": {
        "details": "Emitted when a Portfolio instance is removed from the Portfolios Registered array."
      }
    },
    "kind": "dev",
    "methods": {
      "addPortfolioSupport(string,address)": {
        "details": "Add support of a Portfolio. Requirements: onlyOwner.",
        "params": {
          "contractName_": "Name of Portfolio Contract.",
          "implementation_": "creation byte code Hash of Portfolio contract to be added."
        },
        "returns": {
          "_0": "bytes32:hashCreationCode_."
        }
      },
      "changeAdmin(address)": {
        "details": "Change Admin's address: authorized account to upgrade contract implementation.Requirements: onlyAdmin.",
        "params": {
          "newAdmin": "address of new Admin."
        }
      },
      "createPortfolio(string,address,string,string,string)": {
        "details": "Create a Portfolio instance (Beacon proxy) using the provided contractName and register it (Factory and Registry patterns). Requirements: whenNotPaused and portfolio byte code is supported.",
        "params": {
          "contractName_": "Name of Portfolio contract supported to be used to create a new instance of a portfolio.",
          "name_": "Name of Portfolio instance.",
          "owner_": "Address of owner of portfolio - Transfer ownership of Portfolio created to owner_.",
          "portfolioURI_": "URI of Portfolio instance (Current Client implementation: IPFS CID of image file).",
          "symbol_": "Symbol of Portfolio instance."
        },
        "returns": {
          "_0": "address of created/deployed Portfolio Contract instance: BeaconProxy address."
        }
      },
      "delPortfolioSupport(string)": {
        "details": "Delete support of a Portfolio and emits event 'portfolioSupportDeleted' if successful.Requirements: onlyOwner.",
        "params": {
          "contractName_": "Name of Portfolio Contract to be deleted."
        },
        "returns": {
          "_0": "boolean - False if Portfolio hash not in the list of supported Portfolios."
        }
      },
      "getAdmin()": {
        "details": "Returns Admin's address: authorized account to upgrade contract implementation.",
        "returns": {
          "_0": "address - Admin's address."
        }
      },
      "getAllPortofliosRegistered()": {
        "details": "Get registered Portfolios' addresses (array). Requirements: whenNotPaused.",
        "returns": {
          "_0": "array of addresses."
        }
      },
      "getBeaconPortoflioSupported(string)": {
        "details": "Get Beacon instance for a Portfolio supported. ",
        "params": {
          "contractName_": "Name of Portoflio support."
        },
        "returns": {
          "_0": "address:Beacon instance"
        }
      },
      "getHashByteCode(bytes)": {
        "details": "Compute keccak256 Hash of bytecode provided. ",
        "params": {
          "byteCode_": "creation byte code of Portfolio contract to be created."
        },
        "returns": {
          "_0": "bytes32:keccak256 hash."
        }
      },
      "getImplementation()": {
        "details": "Returns address of contract implementation: Implementation slot value (used by proxy to delegate calls).",
        "returns": {
          "_0": "address - implementation address."
        }
      },
      "initialize()": {
        "details": "Called after creation of contract dues to the requirements of a proxy-based upgradeability pattern: delegateCalls using proxy storage  - no contructor can be used"
      },
      "isPortoflioImplementationSupported(string,address)": {
        "details": "Verify if Portfolio supported by checking the checking the name and implementation of Protfolio contract in the mapping '_portfoliosSupported'.",
        "params": {
          "contractName_": "Name of Portfolio Contract to be verified."
        },
        "returns": {
          "_0": "boolean - False if Portfolio Name and Implementation not in the list of supported Portfolios."
        }
      },
      "isPortoflioRegistered(address)": {
        "details": "Verify if Portfolio rinstance egistred by checking the '_portfoliosRegisteredIndex'.",
        "params": {
          "portfolioAddress": "address of Portfolio instance to be verified."
        },
        "returns": {
          "_0": "boolean - False if Portfolio instance not registered."
        }
      },
      "isPortoflioSupported(string)": {
        "details": "Verify if Portfolio supported by checking the name of Protfolio contract in the mapping '_portfoliosSupported'.",
        "params": {
          "contractName_": "Name of Portfolio Contract to be verified."
        },
        "returns": {
          "_0": "boolean - False if Portfolio not in the list of supported Portfolios."
        }
      },
      "owner()": {
        "details": "Returns the address of the current owner."
      },
      "pause()": {
        "details": "Pause 'createPortfolio', 'unregisterPortfolio' and 'getAllPortofliosRegistered'.Requirements: whenNotPaused and onlyOwner."
      },
      "paused()": {
        "details": "Returns true if the contract is paused, and false otherwise."
      },
      "proxiableUUID()": {
        "details": "Implementation of the ERC1822 {proxiableUUID} function. This returns the storage slot used by the implementation. It is used to validate that the this implementation remains valid after an upgrade. IMPORTANT: A proxy pointing at a proxiable contract should not be considered proxiable itself, because this risks bricking a proxy that upgrades to it, by delegating to itself until out of gas. Thus it is critical that this function revert if invoked through a proxy. This is guaranteed by the `notDelegated` modifier."
      },
      "renounceOwnership()": {
        "details": "Leaves the contract without owner. It will not be possible to call `onlyOwner` functions anymore. Can only be called by the current owner. NOTE: Renouncing ownership will leave the contract without an owner, thereby removing any functionality that is only available to the owner."
      },
      "transferOwnership(address)": {
        "details": "Transfers ownership of the contract to a new account (`newOwner`). Can only be called by the current owner."
      },
      "unpause()": {
        "details": "Unpause 'createPortfolio', 'unregisterPortfolio' and 'getAllPortofliosRegistered'.Requirements: whenPaused and onlyOwner."
      },
      "unregisterPortfolio(address)": {
        "details": "Unregister a Portfolio instance at address specified.Requirements: whenNotPaused and called by owner of Portfolio instance or Registry only.",
        "params": {
          "portfolioAddress": "address of Portfolio instance to be unregistered."
        },
        "returns": {
          "_0": "bool."
        }
      },
      "upgradePortfolioSupport(string,address)": {
        "details": "Upgrade implementation of Portfolio support: Beacon proxy pattern -> upgrade all instances using this beacon. ",
        "params": {
          "contractName_": "Name of Portoflio support to upgrade.",
          "newImplementation_": "Address of new implementation."
        },
        "returns": {
          "_0": "bool"
        }
      },
      "upgradeTo(address)": {
        "details": "Upgrade the implementation of the proxy to `newImplementation`. Calls {_authorizeUpgrade}. Emits an {Upgraded} event."
      },
      "upgradeToAndCall(address,bytes)": {
        "details": "Upgrade the implementation of the proxy to `newImplementation`, and subsequently execute the function call encoded in `data`. Calls {_authorizeUpgrade}. Emits an {Upgraded} event."
      },
      "version()": {
        "details": "Returns Version of Registry contract (implementation version).",
        "returns": {
          "_0": "uint - version."
        }
      }
    },
    "version": 1
  },
  "userdoc": {
    "events": {
      "portfolioDeployed(string,address,address,address)": {
        "notice": "Emitted when a Portfolio instance is created."
      },
      "portfolioRegistered(string,address,address,address)": {
        "notice": "Emitted when a Portfolio instance is registered."
      },
      "portfolioSupportAdded(string,address,address)": {
        "notice": "Emitted when a Portfolio Support is added."
      },
      "portfolioSupportDeleted(string,address,address)": {
        "notice": "Emitted when a Portfolio Support is deleted."
      },
      "portfolioUnregistered(address,address)": {
        "notice": "Emitted when a Portfolio instance is unregistered."
      }
    },
    "kind": "user",
    "methods": {
      "addPortfolioSupport(string,address)": {
        "notice": "Add support of a Portfolio."
      },
      "changeAdmin(address)": {
        "notice": "Change Admin role's account: change authorized account to upgrade contract implementation"
      },
      "createPortfolio(string,address,string,string,string)": {
        "notice": "Create a Portfolio with information provided."
      },
      "delPortfolioSupport(string)": {
        "notice": "Delete support of a Portfolio."
      },
      "getAdmin()": {
        "notice": "Get Admin role's account: authorized account to upgrade contract implementation"
      },
      "getAllPortofliosRegistered()": {
        "notice": "Get addresses of registered Portfolio instances."
      },
      "getBeaconPortoflioSupported(string)": {
        "notice": "Get Beacon instance for a Portfolio supported."
      },
      "getHashByteCode(bytes)": {
        "notice": "Compute Hash of Portfolio bytecode."
      },
      "isPortoflioImplementationSupported(string,address)": {
        "notice": "Verify if Portfolio supported."
      },
      "isPortoflioRegistered(address)": {
        "notice": "Verify if Portfolio instance registered."
      },
      "isPortoflioSupported(string)": {
        "notice": "Verify if Portfolio supported."
      },
      "pause()": {
        "notice": "Pause Registry Contract."
      },
      "unpause()": {
        "notice": "Unpause Registry Contract."
      },
      "unregisterPortfolio(address)": {
        "notice": "Unregister a Portfolio instance."
      },
      "upgradePortfolioSupport(string,address)": {
        "notice": "Upgrade implementation of Portfolio support."
      },
      "version()": {
        "notice": "Returns Version of Registry contract (implementation version)."
      }
    },
    "version": 1
  }
}