{
  "contractName": "vcNFTStorage",
  "abi": [
    {
      "anonymous": false,
      "inputs": [
        {
          "indexed": true,
          "internalType": "address",
          "name": "owner",
          "type": "address"
        },
        {
          "indexed": true,
          "internalType": "address",
          "name": "approved",
          "type": "address"
        },
        {
          "indexed": true,
          "internalType": "uint256",
          "name": "tokenId",
          "type": "uint256"
        }
      ],
      "name": "Approval",
      "type": "event"
    },
    {
      "anonymous": false,
      "inputs": [
        {
          "indexed": true,
          "internalType": "address",
          "name": "owner",
          "type": "address"
        },
        {
          "indexed": true,
          "internalType": "address",
          "name": "operator",
          "type": "address"
        },
        {
          "indexed": false,
          "internalType": "bool",
          "name": "approved",
          "type": "bool"
        }
      ],
      "name": "ApprovalForAll",
      "type": "event"
    },
    {
      "anonymous": false,
      "inputs": [
        {
          "indexed": false,
          "internalType": "uint8",
          "name": "version",
          "type": "uint8"
        }
      ],
      "name": "Initialized",
      "type": "event"
    },
    {
      "anonymous": false,
      "inputs": [
        {
          "indexed": true,
          "internalType": "address",
          "name": "previousOwner",
          "type": "address"
        },
        {
          "indexed": true,
          "internalType": "address",
          "name": "newOwner",
          "type": "address"
        }
      ],
      "name": "OwnershipTransferred",
      "type": "event"
    },
    {
      "anonymous": false,
      "inputs": [
        {
          "indexed": false,
          "internalType": "address",
          "name": "account",
          "type": "address"
        }
      ],
      "name": "Paused",
      "type": "event"
    },
    {
      "anonymous": false,
      "inputs": [
        {
          "indexed": true,
          "internalType": "address",
          "name": "from",
          "type": "address"
        },
        {
          "indexed": true,
          "internalType": "address",
          "name": "to",
          "type": "address"
        },
        {
          "indexed": true,
          "internalType": "uint256",
          "name": "tokenId",
          "type": "uint256"
        }
      ],
      "name": "Transfer",
      "type": "event"
    },
    {
      "anonymous": false,
      "inputs": [
        {
          "indexed": false,
          "internalType": "address",
          "name": "account",
          "type": "address"
        }
      ],
      "name": "Unpaused",
      "type": "event"
    },
    {
      "inputs": [],
      "name": "allTokens",
      "outputs": [
        {
          "internalType": "uint256[]",
          "name": "",
          "type": "uint256[]"
        }
      ],
      "stateMutability": "view",
      "type": "function"
    },
    {
      "inputs": [
        {
          "internalType": "address",
          "name": "to",
          "type": "address"
        },
        {
          "internalType": "uint256",
          "name": "tokenId",
          "type": "uint256"
        }
      ],
      "name": "approve",
      "outputs": [],
      "stateMutability": "nonpayable",
      "type": "function"
    },
    {
      "inputs": [
        {
          "internalType": "address",
          "name": "owner",
          "type": "address"
        }
      ],
      "name": "balanceOf",
      "outputs": [
        {
          "internalType": "uint256",
          "name": "",
          "type": "uint256"
        }
      ],
      "stateMutability": "view",
      "type": "function"
    },
    {
      "inputs": [
        {
          "internalType": "uint256",
          "name": "tokenId",
          "type": "uint256"
        }
      ],
      "name": "getApproved",
      "outputs": [
        {
          "internalType": "address",
          "name": "",
          "type": "address"
        }
      ],
      "stateMutability": "view",
      "type": "function"
    },
    {
      "inputs": [
        {
          "internalType": "address",
          "name": "owner",
          "type": "address"
        },
        {
          "internalType": "address",
          "name": "operator",
          "type": "address"
        }
      ],
      "name": "isApprovedForAll",
      "outputs": [
        {
          "internalType": "bool",
          "name": "",
          "type": "bool"
        }
      ],
      "stateMutability": "view",
      "type": "function"
    },
    {
      "inputs": [],
      "name": "name",
      "outputs": [
        {
          "internalType": "string",
          "name": "",
          "type": "string"
        }
      ],
      "stateMutability": "view",
      "type": "function"
    },
    {
      "inputs": [],
      "name": "owner",
      "outputs": [
        {
          "internalType": "address",
          "name": "",
          "type": "address"
        }
      ],
      "stateMutability": "view",
      "type": "function"
    },
    {
      "inputs": [
        {
          "internalType": "uint256",
          "name": "tokenId",
          "type": "uint256"
        }
      ],
      "name": "ownerOf",
      "outputs": [
        {
          "internalType": "address",
          "name": "",
          "type": "address"
        }
      ],
      "stateMutability": "view",
      "type": "function"
    },
    {
      "inputs": [],
      "name": "paused",
      "outputs": [
        {
          "internalType": "bool",
          "name": "",
          "type": "bool"
        }
      ],
      "stateMutability": "view",
      "type": "function"
    },
    {
      "inputs": [],
      "name": "renounceOwnership",
      "outputs": [],
      "stateMutability": "nonpayable",
      "type": "function"
    },
    {
      "inputs": [
        {
          "internalType": "address",
          "name": "from",
          "type": "address"
        },
        {
          "internalType": "address",
          "name": "to",
          "type": "address"
        },
        {
          "internalType": "uint256",
          "name": "tokenId",
          "type": "uint256"
        }
      ],
      "name": "safeTransferFrom",
      "outputs": [],
      "stateMutability": "nonpayable",
      "type": "function"
    },
    {
      "inputs": [
        {
          "internalType": "address",
          "name": "from",
          "type": "address"
        },
        {
          "internalType": "address",
          "name": "to",
          "type": "address"
        },
        {
          "internalType": "uint256",
          "name": "tokenId",
          "type": "uint256"
        },
        {
          "internalType": "bytes",
          "name": "_data",
          "type": "bytes"
        }
      ],
      "name": "safeTransferFrom",
      "outputs": [],
      "stateMutability": "nonpayable",
      "type": "function"
    },
    {
      "inputs": [
        {
          "internalType": "address",
          "name": "operator",
          "type": "address"
        },
        {
          "internalType": "bool",
          "name": "approved",
          "type": "bool"
        }
      ],
      "name": "setApprovalForAll",
      "outputs": [],
      "stateMutability": "nonpayable",
      "type": "function"
    },
    {
      "inputs": [
        {
          "internalType": "bytes4",
          "name": "interfaceId",
          "type": "bytes4"
        }
      ],
      "name": "supportsInterface",
      "outputs": [
        {
          "internalType": "bool",
          "name": "",
          "type": "bool"
        }
      ],
      "stateMutability": "view",
      "type": "function"
    },
    {
      "inputs": [],
      "name": "symbol",
      "outputs": [
        {
          "internalType": "string",
          "name": "",
          "type": "string"
        }
      ],
      "stateMutability": "view",
      "type": "function"
    },
    {
      "inputs": [
        {
          "internalType": "uint256",
          "name": "index",
          "type": "uint256"
        }
      ],
      "name": "tokenByIndex",
      "outputs": [
        {
          "internalType": "uint256",
          "name": "",
          "type": "uint256"
        }
      ],
      "stateMutability": "view",
      "type": "function"
    },
    {
      "inputs": [
        {
          "internalType": "address",
          "name": "owner",
          "type": "address"
        },
        {
          "internalType": "uint256",
          "name": "index",
          "type": "uint256"
        }
      ],
      "name": "tokenOfOwnerByIndex",
      "outputs": [
        {
          "internalType": "uint256",
          "name": "",
          "type": "uint256"
        }
      ],
      "stateMutability": "view",
      "type": "function"
    },
    {
      "inputs": [
        {
          "internalType": "uint256",
          "name": "tokenId",
          "type": "uint256"
        }
      ],
      "name": "tokenURI",
      "outputs": [
        {
          "internalType": "string",
          "name": "",
          "type": "string"
        }
      ],
      "stateMutability": "view",
      "type": "function"
    },
    {
      "inputs": [],
      "name": "totalSupply",
      "outputs": [
        {
          "internalType": "uint256",
          "name": "",
          "type": "uint256"
        }
      ],
      "stateMutability": "view",
      "type": "function"
    },
    {
      "inputs": [
        {
          "internalType": "address",
          "name": "from",
          "type": "address"
        },
        {
          "internalType": "address",
          "name": "to",
          "type": "address"
        },
        {
          "internalType": "uint256",
          "name": "tokenId",
          "type": "uint256"
        }
      ],
      "name": "transferFrom",
      "outputs": [],
      "stateMutability": "nonpayable",
      "type": "function"
    },
    {
      "inputs": [
        {
          "internalType": "address",
          "name": "newOwner",
          "type": "address"
        }
      ],
      "name": "transferOwnership",
      "outputs": [],
      "stateMutability": "nonpayable",
      "type": "function"
    }
  ],
  "bytecode": "0x608060405234801561001057600080fd5b5061315d806100206000396000f3fe608060405234801561001057600080fd5b50600436106101375760003560e01c80636352211e116100b857806395d89b411161007c57806395d89b4114610350578063a22cb4651461036e578063b88d4fde1461038a578063c87b56dd146103a6578063e985e9c5146103d6578063f2fde38b1461040657610137565b80636352211e146102aa5780636ff97f1d146102da57806370a08231146102f8578063715018a6146103285780638da5cb5b1461033257610137565b806323b872dd116100ff57806323b872dd146101f45780632f745c591461021057806342842e0e146102405780634f6ccce71461025c5780635c975abb1461028c57610137565b806301ffc9a71461013c57806306fdde031461016c578063081812fc1461018a578063095ea7b3146101ba57806318160ddd146101d6575b600080fd5b61015660048036038101906101519190612135565b610422565b60405161016391906125e2565b60405180910390f35b61017461049c565b60405161018191906125fd565b60405180910390f35b6101a4600480360381019061019f9190612187565b61052e565b6040516101b19190612559565b60405180910390f35b6101d460048036038101906101cf91906120f9565b6105b3565b005b6101de6106cb565b6040516101eb919061281f565b60405180910390f35b61020e60048036038101906102099190611ff3565b6106d8565b005b61022a600480360381019061022591906120f9565b610738565b604051610237919061281f565b60405180910390f35b61025a60048036038101906102559190611ff3565b6107dd565b005b61027660048036038101906102719190612187565b6107fd565b604051610283919061281f565b60405180910390f35b610294610894565b6040516102a191906125e2565b60405180910390f35b6102c460048036038101906102bf9190612187565b6108ab565b6040516102d19190612559565b60405180910390f35b6102e261095d565b6040516102ef91906125c0565b60405180910390f35b610312600480360381019061030d9190611f8e565b6109b5565b60405161031f919061281f565b60405180910390f35b610330610a6d565b005b61033a610af5565b6040516103479190612559565b60405180910390f35b610358610b1f565b60405161036591906125fd565b60405180910390f35b610388600480360381019061038391906120bd565b610bb1565b005b6103a4600480360381019061039f9190612042565b610bc7565b005b6103c060048036038101906103bb9190612187565b610c29565b6040516103cd91906125fd565b60405180910390f35b6103f060048036038101906103eb9190611fb7565b610cd0565b6040516103fd91906125e2565b60405180910390f35b610420600480360381019061041b9190611f8e565b610d64565b005b60007f780e9d63000000000000000000000000000000000000000000000000000000007bffffffffffffffffffffffffffffffffffffffffffffffffffffffff1916827bffffffffffffffffffffffffffffffffffffffffffffffffffffffff19161480610495575061049482610e5c565b5b9050919050565b606060c980546104ab90612a7d565b80601f01602080910402602001604051908101604052809291908181526020018280546104d790612a7d565b80156105245780601f106104f957610100808354040283529160200191610524565b820191906000526020600020905b81548152906001019060200180831161050757829003601f168201915b5050505050905090565b600061053982610f3e565b610578576040517f08c379a000000000000000000000000000000000000000000000000000000000815260040161056f9061275f565b60405180910390fd5b60cd600083815260200190815260200160002060009054906101000a900473ffffffffffffffffffffffffffffffffffffffff169050919050565b60006105be826108ab565b90508073ffffffffffffffffffffffffffffffffffffffff168373ffffffffffffffffffffffffffffffffffffffff16141561062f576040517f08c379a0000000000000000000000000000000000000000000000000000000008152600401610626906127bf565b60405180910390fd5b8073ffffffffffffffffffffffffffffffffffffffff1661064e610faa565b73ffffffffffffffffffffffffffffffffffffffff16148061067d575061067c81610677610faa565b610cd0565b5b6106bc576040517f08c379a00000000000000000000000000000000000000000000000000000000081526004016106b3906126ff565b60405180910390fd5b6106c68383610fb2565b505050565b600060fd80549050905090565b6106e96106e3610faa565b8261106b565b610728576040517f08c379a000000000000000000000000000000000000000000000000000000000815260040161071f906127df565b60405180910390fd5b610733838383611149565b505050565b6000610743836109b5565b8210610784576040517f08c379a000000000000000000000000000000000000000000000000000000000815260040161077b9061261f565b60405180910390fd5b60fb60008473ffffffffffffffffffffffffffffffffffffffff1673ffffffffffffffffffffffffffffffffffffffff168152602001908152602001600020600083815260200190815260200160002054905092915050565b6107f883838360405180602001604052806000815250610bc7565b505050565b60006108076106cb565b8210610848576040517f08c379a000000000000000000000000000000000000000000000000000000000815260040161083f906127ff565b60405180910390fd5b60fd8281548110610882577f4e487b7100000000000000000000000000000000000000000000000000000000600052603260045260246000fd5b90600052602060002001549050919050565b6000606560009054906101000a900460ff16905090565b60008060cb600084815260200190815260200160002060009054906101000a900473ffffffffffffffffffffffffffffffffffffffff169050600073ffffffffffffffffffffffffffffffffffffffff168173ffffffffffffffffffffffffffffffffffffffff161415610954576040517f08c379a000000000000000000000000000000000000000000000000000000000815260040161094b9061273f565b60405180910390fd5b80915050919050565b606060fd8054806020026020016040519081016040528092919081815260200182805480156109ab57602002820191906000526020600020905b815481526020019060010190808311610997575b5050505050905090565b60008073ffffffffffffffffffffffffffffffffffffffff168273ffffffffffffffffffffffffffffffffffffffff161415610a26576040517f08c379a0000000000000000000000000000000000000000000000000000000008152600401610a1d9061271f565b60405180910390fd5b60cc60008373ffffffffffffffffffffffffffffffffffffffff1673ffffffffffffffffffffffffffffffffffffffff168152602001908152602001600020549050919050565b610a75610faa565b73ffffffffffffffffffffffffffffffffffffffff16610a93610af5565b73ffffffffffffffffffffffffffffffffffffffff1614610ae9576040517f08c379a0000000000000000000000000000000000000000000000000000000008152600401610ae09061277f565b60405180910390fd5b610af360006113b0565b565b6000603360009054906101000a900473ffffffffffffffffffffffffffffffffffffffff16905090565b606060ca8054610b2e90612a7d565b80601f0160208091040260200160405190810160405280929190818152602001828054610b5a90612a7d565b8015610ba75780601f10610b7c57610100808354040283529160200191610ba7565b820191906000526020600020905b815481529060010190602001808311610b8a57829003601f168201915b5050505050905090565b610bc3610bbc610faa565b8383611476565b5050565b610bd8610bd2610faa565b8361106b565b610c17576040517f08c379a0000000000000000000000000000000000000000000000000000000008152600401610c0e906127df565b60405180910390fd5b610c23848484846115e3565b50505050565b6060610c3482610f3e565b610c73576040517f08c379a0000000000000000000000000000000000000000000000000000000008152600401610c6a9061279f565b60405180910390fd5b6000610c7d61163f565b90506000815111610c9d5760405180602001604052806000815250610cc8565b80610ca784611656565b604051602001610cb8929190612535565b6040516020818303038152906040525b915050919050565b600060ce60008473ffffffffffffffffffffffffffffffffffffffff1673ffffffffffffffffffffffffffffffffffffffff16815260200190815260200160002060008373ffffffffffffffffffffffffffffffffffffffff1673ffffffffffffffffffffffffffffffffffffffff16815260200190815260200160002060009054906101000a900460ff16905092915050565b610d6c610faa565b73ffffffffffffffffffffffffffffffffffffffff16610d8a610af5565b73ffffffffffffffffffffffffffffffffffffffff1614610de0576040517f08c379a0000000000000000000000000000000000000000000000000000000008152600401610dd79061277f565b60405180910390fd5b600073ffffffffffffffffffffffffffffffffffffffff168173ffffffffffffffffffffffffffffffffffffffff161415610e50576040517f08c379a0000000000000000000000000000000000000000000000000000000008152600401610e479061265f565b60405180910390fd5b610e59816113b0565b50565b60007f80ac58cd000000000000000000000000000000000000000000000000000000007bffffffffffffffffffffffffffffffffffffffffffffffffffffffff1916827bffffffffffffffffffffffffffffffffffffffffffffffffffffffff19161480610f2757507f5b5e139f000000000000000000000000000000000000000000000000000000007bffffffffffffffffffffffffffffffffffffffffffffffffffffffff1916827bffffffffffffffffffffffffffffffffffffffffffffffffffffffff1916145b80610f375750610f3682611803565b5b9050919050565b60008073ffffffffffffffffffffffffffffffffffffffff1660cb600084815260200190815260200160002060009054906101000a900473ffffffffffffffffffffffffffffffffffffffff1673ffffffffffffffffffffffffffffffffffffffff1614159050919050565b600033905090565b8160cd600083815260200190815260200160002060006101000a81548173ffffffffffffffffffffffffffffffffffffffff021916908373ffffffffffffffffffffffffffffffffffffffff160217905550808273ffffffffffffffffffffffffffffffffffffffff16611025836108ab565b73ffffffffffffffffffffffffffffffffffffffff167f8c5be1e5ebec7d5bd14f71427d1e84f3dd0314c0f7b2291e5b200ac8c7c3b92560405160405180910390a45050565b600061107682610f3e565b6110b5576040517f08c379a00000000000000000000000000000000000000000000000000000000081526004016110ac906126df565b60405180910390fd5b60006110c0836108ab565b90508073ffffffffffffffffffffffffffffffffffffffff168473ffffffffffffffffffffffffffffffffffffffff16148061110257506111018185610cd0565b5b8061114057508373ffffffffffffffffffffffffffffffffffffffff166111288461052e565b73ffffffffffffffffffffffffffffffffffffffff16145b91505092915050565b8273ffffffffffffffffffffffffffffffffffffffff16611169826108ab565b73ffffffffffffffffffffffffffffffffffffffff16146111bf576040517f08c379a00000000000000000000000000000000000000000000000000000000081526004016111b69061267f565b60405180910390fd5b600073ffffffffffffffffffffffffffffffffffffffff168273ffffffffffffffffffffffffffffffffffffffff16141561122f576040517f08c379a00000000000000000000000000000000000000000000000000000000081526004016112269061269f565b60405180910390fd5b61123a83838361186d565b611245600082610fb2565b600160cc60008573ffffffffffffffffffffffffffffffffffffffff1673ffffffffffffffffffffffffffffffffffffffff16815260200190815260200160002060008282546112959190612993565b92505081905550600160cc60008473ffffffffffffffffffffffffffffffffffffffff1673ffffffffffffffffffffffffffffffffffffffff16815260200190815260200160002060008282546112ec919061290c565b925050819055508160cb600083815260200190815260200160002060006101000a81548173ffffffffffffffffffffffffffffffffffffffff021916908373ffffffffffffffffffffffffffffffffffffffff160217905550808273ffffffffffffffffffffffffffffffffffffffff168473ffffffffffffffffffffffffffffffffffffffff167fddf252ad1be2c89b69c2b068fc378daa952ba7f163c4a11628f55a4df523b3ef60405160405180910390a46113ab838383611981565b505050565b6000603360009054906101000a900473ffffffffffffffffffffffffffffffffffffffff16905081603360006101000a81548173ffffffffffffffffffffffffffffffffffffffff021916908373ffffffffffffffffffffffffffffffffffffffff1602179055508173ffffffffffffffffffffffffffffffffffffffff168173ffffffffffffffffffffffffffffffffffffffff167f8be0079c531659141344cd1fd0a4f28419497f9722a3daafe3b4186f6b6457e060405160405180910390a35050565b8173ffffffffffffffffffffffffffffffffffffffff168373ffffffffffffffffffffffffffffffffffffffff1614156114e5576040517f08c379a00000000000000000000000000000000000000000000000000000000081526004016114dc906126bf565b60405180910390fd5b8060ce60008573ffffffffffffffffffffffffffffffffffffffff1673ffffffffffffffffffffffffffffffffffffffff16815260200190815260200160002060008473ffffffffffffffffffffffffffffffffffffffff1673ffffffffffffffffffffffffffffffffffffffff16815260200190815260200160002060006101000a81548160ff0219169083151502179055508173ffffffffffffffffffffffffffffffffffffffff168373ffffffffffffffffffffffffffffffffffffffff167f17307eab39ab6107e8899845ad3d59bd9653f200f220920489ca2b5937696c31836040516115d691906125e2565b60405180910390a3505050565b6115ee848484611149565b6115fa84848484611986565b611639576040517f08c379a00000000000000000000000000000000000000000000000000000000081526004016116309061263f565b60405180910390fd5b50505050565b606060405180602001604052806000815250905090565b6060600082141561169e576040518060400160405280600181526020017f300000000000000000000000000000000000000000000000000000000000000081525090506117fe565b600082905060005b600082146116d05780806116b990612ae0565b915050600a826116c99190612962565b91506116a6565b60008167ffffffffffffffff811115611712577f4e487b7100000000000000000000000000000000000000000000000000000000600052604160045260246000fd5b6040519080825280601f01601f1916602001820160405280156117445781602001600182028036833780820191505090505b5090505b600085146117f75760018261175d9190612993565b9150600a8561176c9190612b29565b6030611778919061290c565b60f81b8183815181106117b4577f4e487b7100000000000000000000000000000000000000000000000000000000600052603260045260246000fd5b60200101907effffffffffffffffffffffffffffffffffffffffffffffffffffffffffffff1916908160001a905350600a856117f09190612962565b9450611748565b8093505050505b919050565b60007f01ffc9a7000000000000000000000000000000000000000000000000000000007bffffffffffffffffffffffffffffffffffffffffffffffffffffffff1916827bffffffffffffffffffffffffffffffffffffffffffffffffffffffff1916149050919050565b611878838383611b1d565b600073ffffffffffffffffffffffffffffffffffffffff168373ffffffffffffffffffffffffffffffffffffffff1614156118bb576118b681611b22565b6118fa565b8173ffffffffffffffffffffffffffffffffffffffff168373ffffffffffffffffffffffffffffffffffffffff16146118f9576118f88382611b6b565b5b5b600073ffffffffffffffffffffffffffffffffffffffff168273ffffffffffffffffffffffffffffffffffffffff16141561193d5761193881611cd8565b61197c565b8273ffffffffffffffffffffffffffffffffffffffff168273ffffffffffffffffffffffffffffffffffffffff161461197b5761197a8282611e1b565b5b5b505050565b505050565b60006119a78473ffffffffffffffffffffffffffffffffffffffff16611e9a565b15611b10578373ffffffffffffffffffffffffffffffffffffffff1663150b7a026119d0610faa565b8786866040518563ffffffff1660e01b81526004016119f29493929190612574565b602060405180830381600087803b158015611a0c57600080fd5b505af1925050508015611a3d57506040513d601f19601f82011682018060405250810190611a3a919061215e565b60015b611ac0573d8060008114611a6d576040519150601f19603f3d011682016040523d82523d6000602084013e611a72565b606091505b50600081511415611ab8576040517f08c379a0000000000000000000000000000000000000000000000000000000008152600401611aaf9061263f565b60405180910390fd5b805181602001fd5b63150b7a0260e01b7bffffffffffffffffffffffffffffffffffffffffffffffffffffffff1916817bffffffffffffffffffffffffffffffffffffffffffffffffffffffff191614915050611b15565b600190505b949350505050565b505050565b60fd8054905060fe60008381526020019081526020016000208190555060fd81908060018154018082558091505060019003906000526020600020016000909190919091505550565b60006001611b78846109b5565b611b829190612993565b9050600060fc6000848152602001908152602001600020549050818114611c6757600060fb60008673ffffffffffffffffffffffffffffffffffffffff1673ffffffffffffffffffffffffffffffffffffffff16815260200190815260200160002060008481526020019081526020016000205490508060fb60008773ffffffffffffffffffffffffffffffffffffffff1673ffffffffffffffffffffffffffffffffffffffff1681526020019081526020016000206000848152602001908152602001600020819055508160fc600083815260200190815260200160002081905550505b60fc60008481526020019081526020016000206000905560fb60008573ffffffffffffffffffffffffffffffffffffffff1673ffffffffffffffffffffffffffffffffffffffff16815260200190815260200160002060008381526020019081526020016000206000905550505050565b6000600160fd80549050611cec9190612993565b9050600060fe6000848152602001908152602001600020549050600060fd8381548110611d42577f4e487b7100000000000000000000000000000000000000000000000000000000600052603260045260246000fd5b906000526020600020015490508060fd8381548110611d8a577f4e487b7100000000000000000000000000000000000000000000000000000000600052603260045260246000fd5b90600052602060002001819055508160fe60008381526020019081526020016000208190555060fe60008581526020019081526020016000206000905560fd805480611dff577f4e487b7100000000000000000000000000000000000000000000000000000000600052603160045260246000fd5b6001900381819060005260206000200160009055905550505050565b6000611e26836109b5565b90508160fb60008573ffffffffffffffffffffffffffffffffffffffff1673ffffffffffffffffffffffffffffffffffffffff1681526020019081526020016000206000838152602001908152602001600020819055508060fc600084815260200190815260200160002081905550505050565b6000808273ffffffffffffffffffffffffffffffffffffffff163b119050919050565b6000611ed0611ecb8461285f565b61283a565b905082815260208101848484011115611ee857600080fd5b611ef3848285612a3b565b509392505050565b600081359050611f0a816130cb565b92915050565b600081359050611f1f816130e2565b92915050565b600081359050611f34816130f9565b92915050565b600081519050611f49816130f9565b92915050565b600082601f830112611f6057600080fd5b8135611f70848260208601611ebd565b91505092915050565b600081359050611f8881613110565b92915050565b600060208284031215611fa057600080fd5b6000611fae84828501611efb565b91505092915050565b60008060408385031215611fca57600080fd5b6000611fd885828601611efb565b9250506020611fe985828601611efb565b9150509250929050565b60008060006060848603121561200857600080fd5b600061201686828701611efb565b935050602061202786828701611efb565b925050604061203886828701611f79565b9150509250925092565b6000806000806080858703121561205857600080fd5b600061206687828801611efb565b945050602061207787828801611efb565b935050604061208887828801611f79565b925050606085013567ffffffffffffffff8111156120a557600080fd5b6120b187828801611f4f565b91505092959194509250565b600080604083850312156120d057600080fd5b60006120de85828601611efb565b92505060206120ef85828601611f10565b9150509250929050565b6000806040838503121561210c57600080fd5b600061211a85828601611efb565b925050602061212b85828601611f79565b9150509250929050565b60006020828403121561214757600080fd5b600061215584828501611f25565b91505092915050565b60006020828403121561217057600080fd5b600061217e84828501611f3a565b91505092915050565b60006020828403121561219957600080fd5b60006121a784828501611f79565b91505092915050565b60006121bc8383612517565b60208301905092915050565b6121d1816129c7565b82525050565b60006121e2826128a0565b6121ec81856128ce565b93506121f783612890565b8060005b8381101561222857815161220f88826121b0565b975061221a836128c1565b9250506001810190506121fb565b5085935050505092915050565b61223e816129d9565b82525050565b600061224f826128ab565b61225981856128df565b9350612269818560208601612a4a565b61227281612c16565b840191505092915050565b6000612288826128b6565b61229281856128f0565b93506122a2818560208601612a4a565b6122ab81612c16565b840191505092915050565b60006122c1826128b6565b6122cb8185612901565b93506122db818560208601612a4a565b80840191505092915050565b60006122f4602b836128f0565b91506122ff82612c27565b604082019050919050565b60006123176032836128f0565b915061232282612c76565b604082019050919050565b600061233a6026836128f0565b915061234582612cc5565b604082019050919050565b600061235d6025836128f0565b915061236882612d14565b604082019050919050565b60006123806024836128f0565b915061238b82612d63565b604082019050919050565b60006123a36019836128f0565b91506123ae82612db2565b602082019050919050565b60006123c6602c836128f0565b91506123d182612ddb565b604082019050919050565b60006123e96038836128f0565b91506123f482612e2a565b604082019050919050565b600061240c602a836128f0565b915061241782612e79565b604082019050919050565b600061242f6029836128f0565b915061243a82612ec8565b604082019050919050565b6000612452602c836128f0565b915061245d82612f17565b604082019050919050565b60006124756020836128f0565b915061248082612f66565b602082019050919050565b6000612498602f836128f0565b91506124a382612f8f565b604082019050919050565b60006124bb6021836128f0565b91506124c682612fde565b604082019050919050565b60006124de6031836128f0565b91506124e98261302d565b604082019050919050565b6000612501602c836128f0565b915061250c8261307c565b604082019050919050565b61252081612a31565b82525050565b61252f81612a31565b82525050565b600061254182856122b6565b915061254d82846122b6565b91508190509392505050565b600060208201905061256e60008301846121c8565b92915050565b600060808201905061258960008301876121c8565b61259660208301866121c8565b6125a36040830185612526565b81810360608301526125b58184612244565b905095945050505050565b600060208201905081810360008301526125da81846121d7565b905092915050565b60006020820190506125f76000830184612235565b92915050565b60006020820190508181036000830152612617818461227d565b905092915050565b60006020820190508181036000830152612638816122e7565b9050919050565b600060208201905081810360008301526126588161230a565b9050919050565b600060208201905081810360008301526126788161232d565b9050919050565b6000602082019050818103600083015261269881612350565b9050919050565b600060208201905081810360008301526126b881612373565b9050919050565b600060208201905081810360008301526126d881612396565b9050919050565b600060208201905081810360008301526126f8816123b9565b9050919050565b60006020820190508181036000830152612718816123dc565b9050919050565b60006020820190508181036000830152612738816123ff565b9050919050565b6000602082019050818103600083015261275881612422565b9050919050565b6000602082019050818103600083015261277881612445565b9050919050565b6000602082019050818103600083015261279881612468565b9050919050565b600060208201905081810360008301526127b88161248b565b9050919050565b600060208201905081810360008301526127d8816124ae565b9050919050565b600060208201905081810360008301526127f8816124d1565b9050919050565b60006020820190508181036000830152612818816124f4565b9050919050565b60006020820190506128346000830184612526565b92915050565b6000612844612855565b90506128508282612aaf565b919050565b6000604051905090565b600067ffffffffffffffff82111561287a57612879612be7565b5b61288382612c16565b9050602081019050919050565b6000819050602082019050919050565b600081519050919050565b600081519050919050565b600081519050919050565b6000602082019050919050565b600082825260208201905092915050565b600082825260208201905092915050565b600082825260208201905092915050565b600081905092915050565b600061291782612a31565b915061292283612a31565b9250827fffffffffffffffffffffffffffffffffffffffffffffffffffffffffffffffff0382111561295757612956612b5a565b5b828201905092915050565b600061296d82612a31565b915061297883612a31565b92508261298857612987612b89565b5b828204905092915050565b600061299e82612a31565b91506129a983612a31565b9250828210156129bc576129bb612b5a565b5b828203905092915050565b60006129d282612a11565b9050919050565b60008115159050919050565b60007fffffffff0000000000000000000000000000000000000000000000000000000082169050919050565b600073ffffffffffffffffffffffffffffffffffffffff82169050919050565b6000819050919050565b82818337600083830152505050565b60005b83811015612a68578082015181840152602081019050612a4d565b83811115612a77576000848401525b50505050565b60006002820490506001821680612a9557607f821691505b60208210811415612aa957612aa8612bb8565b5b50919050565b612ab882612c16565b810181811067ffffffffffffffff82111715612ad757612ad6612be7565b5b80604052505050565b6000612aeb82612a31565b91507fffffffffffffffffffffffffffffffffffffffffffffffffffffffffffffffff821415612b1e57612b1d612b5a565b5b600182019050919050565b6000612b3482612a31565b9150612b3f83612a31565b925082612b4f57612b4e612b89565b5b828206905092915050565b7f4e487b7100000000000000000000000000000000000000000000000000000000600052601160045260246000fd5b7f4e487b7100000000000000000000000000000000000000000000000000000000600052601260045260246000fd5b7f4e487b7100000000000000000000000000000000000000000000000000000000600052602260045260246000fd5b7f4e487b7100000000000000000000000000000000000000000000000000000000600052604160045260246000fd5b6000601f19601f8301169050919050565b7f455243373231456e756d657261626c653a206f776e657220696e646578206f7560008201527f74206f6620626f756e6473000000000000000000000000000000000000000000602082015250565b7f4552433732313a207472616e7366657220746f206e6f6e20455243373231526560008201527f63656976657220696d706c656d656e7465720000000000000000000000000000602082015250565b7f4f776e61626c653a206e6577206f776e657220697320746865207a65726f206160008201527f6464726573730000000000000000000000000000000000000000000000000000602082015250565b7f4552433732313a207472616e736665722066726f6d20696e636f72726563742060008201527f6f776e6572000000000000000000000000000000000000000000000000000000602082015250565b7f4552433732313a207472616e7366657220746f20746865207a65726f2061646460008201527f7265737300000000000000000000000000000000000000000000000000000000602082015250565b7f4552433732313a20617070726f766520746f2063616c6c657200000000000000600082015250565b7f4552433732313a206f70657261746f7220717565727920666f72206e6f6e657860008201527f697374656e7420746f6b656e0000000000000000000000000000000000000000602082015250565b7f4552433732313a20617070726f76652063616c6c6572206973206e6f74206f7760008201527f6e6572206e6f7220617070726f76656420666f7220616c6c0000000000000000602082015250565b7f4552433732313a2062616c616e636520717565727920666f7220746865207a6560008201527f726f206164647265737300000000000000000000000000000000000000000000602082015250565b7f4552433732313a206f776e657220717565727920666f72206e6f6e657869737460008201527f656e7420746f6b656e0000000000000000000000000000000000000000000000602082015250565b7f4552433732313a20617070726f76656420717565727920666f72206e6f6e657860008201527f697374656e7420746f6b656e0000000000000000000000000000000000000000602082015250565b7f4f776e61626c653a2063616c6c6572206973206e6f7420746865206f776e6572600082015250565b7f4552433732314d657461646174613a2055524920717565727920666f72206e6f60008201527f6e6578697374656e7420746f6b656e0000000000000000000000000000000000602082015250565b7f4552433732313a20617070726f76616c20746f2063757272656e74206f776e6560008201527f7200000000000000000000000000000000000000000000000000000000000000602082015250565b7f4552433732313a207472616e736665722063616c6c6572206973206e6f74206f60008201527f776e6572206e6f7220617070726f766564000000000000000000000000000000602082015250565b7f455243373231456e756d657261626c653a20676c6f62616c20696e646578206f60008201527f7574206f6620626f756e64730000000000000000000000000000000000000000602082015250565b6130d4816129c7565b81146130df57600080fd5b50565b6130eb816129d9565b81146130f657600080fd5b50565b613102816129e5565b811461310d57600080fd5b50565b61311981612a31565b811461312457600080fd5b5056fea26469706673582212206b4c2f7aff7324513cbee591a73bc30802d1e3d6b8d2433a88a6dd4cae4c3a6a64736f6c63430008020033",
  "immutableReferences": {},
  "source": "// SPDX-License-Identifier: MIT\r\npragma solidity 0.8.2;\r\n\r\nimport \"@openzeppelin/contracts-upgradeable/proxy/utils/Initializable.sol\";\r\nimport \"@openzeppelin/contracts-upgradeable/utils/CountersUpgradeable.sol\";\r\nimport \"@openzeppelin/contracts-upgradeable/access/OwnableUpgradeable.sol\";\r\nimport \"@openzeppelin/contracts-upgradeable/security/PausableUpgradeable.sol\";\r\nimport \"./ERC721EnumerableUpgradeable2.sol\";\r\n\r\n/// @title Abstract Storage of Portfolio Contract (Baacon Upgradeable Proxy pattern)\r\n/// @author D Collette\r\n/// @dev Always add new state variables at the end. Don't remove or change the type of an existing states variables.\r\n/// @dev See details here: https://docs.openzeppelin.com/upgrades-plugins/1.x/writing-upgradeable#modifying-your-contracts\r\n\r\ncontract vcNFTStorage is Initializable, OwnableUpgradeable, PausableUpgradeable, ERC721EnumerableUpgradeable  {\r\n  using CountersUpgradeable for CountersUpgradeable.Counter;\r\n\r\n  /// @dev Counter used to count the number of 'tokenId' minted.  \r\n  CountersUpgradeable.Counter internal _tokenIds;\r\n  \r\n  /// @dev Counter used to count the number of 'tokenId' minted.  \r\n  string internal _portfolioURI;\r\n\r\n  /// @dev Structure to store the Verifiable credentials of one NFT: Certificate Of Authenticity and Certificate Of Ownership.  \r\n  struct VerifiableCredentials {\r\n    // string issuerDid; // DID of Author/Artist can be extracted from COA.\r\n    // string subjectDid; // NFT is subject and holder at the same time - DID of NFT: can be extracted from COA.\r\n    string coaURI; //Current implementation: IPFS-CID of Certificate Of Authenticity (Verifiable Credentials in JSON format).\r\n    string cooURI; ///Current implementation : IPFS-CID of Certificate Of Onwership  (Verifiable Credential).\r\n  }\r\n\r\n  /// @dev Verifiabl Credentials for NFTs: mapping between a TokenID (location) and its asscoiated VerifiableCredentials.\r\n  mapping(uint256 => VerifiableCredentials) internal _vcs; // Verifiabl Credentials of NFTs.\r\n\r\n}\r\n",
  "sourcePath": "C:\\Users\\didier.collette\\git\\blockchain-developer-bootcamp-final-project\\chain\\contracts\\vcNFTStorage.sol",
  "compiler": {
    "name": "solc",
    "version": "0.8.2+commit.661d1103.Emscripten.clang"
  },
  "schemaVersion": "3.4.3",
  "updatedAt": "2022-06-07T19:28:07.888Z",
  "devdoc": {
    "author": "D Collette",
    "details": "Always add new state variables at the end. Don't remove or change the type of an existing states variables.See details here: https://docs.openzeppelin.com/upgrades-plugins/1.x/writing-upgradeable#modifying-your-contracts",
    "kind": "dev",
    "methods": {
      "allTokens()": {
        "details": "Get _allTokens array with tokenIds used in Portfolio. ",
        "returns": {
          "_0": "uint256[]:array."
        }
      },
      "approve(address,uint256)": {
        "details": "See {IERC721-approve}."
      },
      "balanceOf(address)": {
        "details": "See {IERC721-balanceOf}."
      },
      "getApproved(uint256)": {
        "details": "See {IERC721-getApproved}."
      },
      "isApprovedForAll(address,address)": {
        "details": "See {IERC721-isApprovedForAll}."
      },
      "name()": {
        "details": "See {IERC721Metadata-name}."
      },
      "owner()": {
        "details": "Returns the address of the current owner."
      },
      "ownerOf(uint256)": {
        "details": "See {IERC721-ownerOf}."
      },
      "paused()": {
        "details": "Returns true if the contract is paused, and false otherwise."
      },
      "renounceOwnership()": {
        "details": "Leaves the contract without owner. It will not be possible to call `onlyOwner` functions anymore. Can only be called by the current owner. NOTE: Renouncing ownership will leave the contract without an owner, thereby removing any functionality that is only available to the owner."
      },
      "safeTransferFrom(address,address,uint256)": {
        "details": "See {IERC721-safeTransferFrom}."
      },
      "safeTransferFrom(address,address,uint256,bytes)": {
        "details": "See {IERC721-safeTransferFrom}."
      },
      "setApprovalForAll(address,bool)": {
        "details": "See {IERC721-setApprovalForAll}."
      },
      "supportsInterface(bytes4)": {
        "details": "See {IERC165-supportsInterface}."
      },
      "symbol()": {
        "details": "See {IERC721Metadata-symbol}."
      },
      "tokenByIndex(uint256)": {
        "details": "See {IERC721Enumerable-tokenByIndex}."
      },
      "tokenOfOwnerByIndex(address,uint256)": {
        "details": "See {IERC721Enumerable-tokenOfOwnerByIndex}."
      },
      "tokenURI(uint256)": {
        "details": "See {IERC721Metadata-tokenURI}."
      },
      "totalSupply()": {
        "details": "See {IERC721Enumerable-totalSupply}."
      },
      "transferFrom(address,address,uint256)": {
        "details": "See {IERC721-transferFrom}."
      },
      "transferOwnership(address)": {
        "details": "Transfers ownership of the contract to a new account (`newOwner`). Can only be called by the current owner."
      }
    },
    "stateVariables": {
      "_portfolioURI": {
        "details": "Counter used to count the number of 'tokenId' minted.  "
      },
      "_tokenIds": {
        "details": "Counter used to count the number of 'tokenId' minted.  "
      },
      "_vcs": {
        "details": "Verifiabl Credentials for NFTs: mapping between a TokenID (location) and its asscoiated VerifiableCredentials."
      }
    },
    "title": "Abstract Storage of Portfolio Contract (Baacon Upgradeable Proxy pattern)",
    "version": 1
  },
  "userdoc": {
    "kind": "user",
    "methods": {
      "allTokens()": {
        "notice": "Get all tokenIds used in Portfolio."
      }
    },
    "version": 1
  }
}