{
  "contractName": "Registry",
  "abi": [
    {
      "inputs": [],
      "stateMutability": "nonpayable",
      "type": "constructor"
    },
    {
      "anonymous": false,
      "inputs": [
        {
          "indexed": true,
          "internalType": "address",
          "name": "previousOwner",
          "type": "address"
        },
        {
          "indexed": true,
          "internalType": "address",
          "name": "newOwner",
          "type": "address"
        }
      ],
      "name": "OwnershipTransferred",
      "type": "event"
    },
    {
      "anonymous": false,
      "inputs": [
        {
          "indexed": false,
          "internalType": "address",
          "name": "account",
          "type": "address"
        }
      ],
      "name": "Paused",
      "type": "event"
    },
    {
      "anonymous": false,
      "inputs": [
        {
          "indexed": false,
          "internalType": "address",
          "name": "account",
          "type": "address"
        }
      ],
      "name": "Unpaused",
      "type": "event"
    },
    {
      "anonymous": false,
      "inputs": [
        {
          "indexed": false,
          "internalType": "string",
          "name": "contractName",
          "type": "string"
        },
        {
          "indexed": true,
          "internalType": "bytes32",
          "name": "hashCreationCode",
          "type": "bytes32"
        },
        {
          "indexed": true,
          "internalType": "address",
          "name": "portfolioAddress",
          "type": "address"
        },
        {
          "indexed": false,
          "internalType": "bytes32",
          "name": "salt",
          "type": "bytes32"
        },
        {
          "indexed": true,
          "internalType": "address",
          "name": "owner",
          "type": "address"
        }
      ],
      "name": "portfolioDeployed",
      "type": "event"
    },
    {
      "anonymous": false,
      "inputs": [
        {
          "indexed": false,
          "internalType": "string",
          "name": "contractName",
          "type": "string"
        },
        {
          "indexed": true,
          "internalType": "bytes32",
          "name": "hashCreationCode",
          "type": "bytes32"
        },
        {
          "indexed": true,
          "internalType": "address",
          "name": "portfolioAddress",
          "type": "address"
        },
        {
          "indexed": true,
          "internalType": "address",
          "name": "owner",
          "type": "address"
        }
      ],
      "name": "portfolioRegistered",
      "type": "event"
    },
    {
      "anonymous": false,
      "inputs": [
        {
          "indexed": false,
          "internalType": "string",
          "name": "contractName",
          "type": "string"
        },
        {
          "indexed": true,
          "internalType": "bytes32",
          "name": "hashCreationCode",
          "type": "bytes32"
        }
      ],
      "name": "portfolioSupportAdded",
      "type": "event"
    },
    {
      "anonymous": false,
      "inputs": [
        {
          "indexed": false,
          "internalType": "string",
          "name": "contractName",
          "type": "string"
        },
        {
          "indexed": true,
          "internalType": "bytes32",
          "name": "hashCreationCode",
          "type": "bytes32"
        }
      ],
      "name": "portfolioSupportDeleted",
      "type": "event"
    },
    {
      "anonymous": false,
      "inputs": [
        {
          "indexed": true,
          "internalType": "address",
          "name": "portfolioAddress",
          "type": "address"
        },
        {
          "indexed": true,
          "internalType": "address",
          "name": "owner",
          "type": "address"
        }
      ],
      "name": "portfolioUnregistered",
      "type": "event"
    },
    {
      "inputs": [],
      "name": "owner",
      "outputs": [
        {
          "internalType": "address",
          "name": "",
          "type": "address"
        }
      ],
      "stateMutability": "view",
      "type": "function",
      "constant": true
    },
    {
      "inputs": [],
      "name": "paused",
      "outputs": [
        {
          "internalType": "bool",
          "name": "",
          "type": "bool"
        }
      ],
      "stateMutability": "view",
      "type": "function",
      "constant": true
    },
    {
      "inputs": [],
      "name": "renounceOwnership",
      "outputs": [],
      "stateMutability": "nonpayable",
      "type": "function"
    },
    {
      "inputs": [
        {
          "internalType": "address",
          "name": "newOwner",
          "type": "address"
        }
      ],
      "name": "transferOwnership",
      "outputs": [],
      "stateMutability": "nonpayable",
      "type": "function"
    },
    {
      "inputs": [
        {
          "internalType": "bytes",
          "name": "portfolioByteCode_",
          "type": "bytes"
        },
        {
          "internalType": "address",
          "name": "owner_",
          "type": "address"
        },
        {
          "internalType": "string",
          "name": "name_",
          "type": "string"
        },
        {
          "internalType": "string",
          "name": "symbol_",
          "type": "string"
        },
        {
          "internalType": "string",
          "name": "portoflioURI_",
          "type": "string"
        }
      ],
      "name": "createPortfolio",
      "outputs": [
        {
          "internalType": "address",
          "name": "",
          "type": "address"
        }
      ],
      "stateMutability": "nonpayable",
      "type": "function"
    },
    {
      "inputs": [
        {
          "internalType": "address",
          "name": "portfolioAddress",
          "type": "address"
        }
      ],
      "name": "isPortoflioRegistered",
      "outputs": [
        {
          "internalType": "bool",
          "name": "",
          "type": "bool"
        }
      ],
      "stateMutability": "view",
      "type": "function",
      "constant": true
    },
    {
      "inputs": [
        {
          "internalType": "address",
          "name": "portfolioAddress",
          "type": "address"
        }
      ],
      "name": "unregisterPortfolio",
      "outputs": [
        {
          "internalType": "bool",
          "name": "",
          "type": "bool"
        }
      ],
      "stateMutability": "nonpayable",
      "type": "function"
    },
    {
      "inputs": [],
      "name": "getAllPortofliosRegistered",
      "outputs": [
        {
          "internalType": "address[]",
          "name": "",
          "type": "address[]"
        }
      ],
      "stateMutability": "view",
      "type": "function",
      "constant": true
    },
    {
      "inputs": [
        {
          "internalType": "bytes",
          "name": "byteCode_",
          "type": "bytes"
        }
      ],
      "name": "getHashByteCode",
      "outputs": [
        {
          "internalType": "bytes32",
          "name": "",
          "type": "bytes32"
        }
      ],
      "stateMutability": "pure",
      "type": "function",
      "constant": true
    },
    {
      "inputs": [
        {
          "internalType": "string",
          "name": "contractName_",
          "type": "string"
        },
        {
          "internalType": "bytes32",
          "name": "hashCreationCode_",
          "type": "bytes32"
        }
      ],
      "name": "addPortfolioSupport",
      "outputs": [
        {
          "internalType": "bytes32",
          "name": "",
          "type": "bytes32"
        }
      ],
      "stateMutability": "nonpayable",
      "type": "function"
    },
    {
      "inputs": [
        {
          "internalType": "string",
          "name": "contractName_",
          "type": "string"
        },
        {
          "internalType": "bytes32",
          "name": "hashCreationCode_",
          "type": "bytes32"
        }
      ],
      "name": "delPortfolioSupport",
      "outputs": [
        {
          "internalType": "bool",
          "name": "",
          "type": "bool"
        }
      ],
      "stateMutability": "nonpayable",
      "type": "function"
    },
    {
      "inputs": [
        {
          "internalType": "string",
          "name": "contractName_",
          "type": "string"
        },
        {
          "internalType": "bytes32",
          "name": "hashCreationCode_",
          "type": "bytes32"
        }
      ],
      "name": "isPortoflioSupported",
      "outputs": [
        {
          "internalType": "bool",
          "name": "",
          "type": "bool"
        }
      ],
      "stateMutability": "view",
      "type": "function",
      "constant": true
    },
    {
      "inputs": [],
      "name": "pause",
      "outputs": [],
      "stateMutability": "nonpayable",
      "type": "function"
    },
    {
      "inputs": [],
      "name": "unpause",
      "outputs": [],
      "stateMutability": "nonpayable",
      "type": "function"
    }
  ],
  "bytecode": "0x608060405234801561001057600080fd5b5061002d61002261004c60201b60201c565b61005460201b60201c565b60008060146101000a81548160ff021916908315150217905550610118565b600033905090565b60008060009054906101000a900473ffffffffffffffffffffffffffffffffffffffff169050816000806101000a81548173ffffffffffffffffffffffffffffffffffffffff021916908373ffffffffffffffffffffffffffffffffffffffff1602179055508173ffffffffffffffffffffffffffffffffffffffff168173ffffffffffffffffffffffffffffffffffffffff167f8be0079c531659141344cd1fd0a4f28419497f9722a3daafe3b4186f6b6457e060405160405180910390a35050565b61229380620001286000396000f3fe608060405234801561001057600080fd5b50600436106100ea5760003560e01c80638da5cb5b1161008c578063e605212411610066578063e605212414610227578063eeb565af14610257578063f009014314610287578063f2fde38b146102b7576100ea565b80638da5cb5b146101a957806392f4b152146101c7578063e18ad66d146101f7576100ea565b806355ee93c2116100c857806355ee93c2146101475780635c975abb14610177578063715018a6146101955780638456cb591461019f576100ea565b80631aa90f10146100ef5780633db9bcdb1461010d5780633f4ba83a1461013d575b600080fd5b6100f76102d3565b6040516101049190611d7c565b60405180910390f35b6101276004803603810190610122919061163f565b6103a9565b6040516101349190611d9e565b60405180910390f35b61014561040c565b005b610161600480360381019061015c9190611691565b610492565b60405161016e9190611db9565b60405180910390f35b61017f6104b4565b60405161018c9190611d9e565b60405180910390f35b61019d6104ca565b005b6101a7610552565b005b6101b16105d8565b6040516101be9190611d61565b60405180910390f35b6101e160048036038101906101dc91906117b0565b610601565b6040516101ee9190611db9565b60405180910390f35b610211600480360381019061020c91906116d6565b6106e6565b60405161021e9190611d61565b60405180910390f35b610241600480360381019061023c9190611808565b610ad0565b60405161024e9190611d9e565b60405180910390f35b610271600480360381019061026c91906117b0565b610b90565b60405161027e9190611d9e565b60405180910390f35b6102a1600480360381019061029c919061163f565b610ccf565b6040516102ae9190611d9e565b60405180910390f35b6102d160048036038101906102cc919061163f565b610fc9565b005b60606102dd6104b4565b1561031d576040517f08c379a000000000000000000000000000000000000000000000000000000000815260040161031490611f16565b60405180910390fd5b600280548060200260200160405190810160405280929190818152602001828054801561039f57602002820191906000526020600020905b8160009054906101000a900473ffffffffffffffffffffffffffffffffffffffff1673ffffffffffffffffffffffffffffffffffffffff1681526020019060010190808311610355575b5050505050905090565b600080600360008473ffffffffffffffffffffffffffffffffffffffff1673ffffffffffffffffffffffffffffffffffffffff1681526020019081526020016000205490506000811415610401576000915050610407565b60019150505b919050565b6104146110c1565b73ffffffffffffffffffffffffffffffffffffffff166104326105d8565b73ffffffffffffffffffffffffffffffffffffffff1614610488576040517f08c379a000000000000000000000000000000000000000000000000000000000815260040161047f90611f56565b60405180910390fd5b6104906110c9565b565b600082826040516104a4929190611d22565b6040518091039020905092915050565b60008060149054906101000a900460ff16905090565b6104d26110c1565b73ffffffffffffffffffffffffffffffffffffffff166104f06105d8565b73ffffffffffffffffffffffffffffffffffffffff1614610546576040517f08c379a000000000000000000000000000000000000000000000000000000000815260040161053d90611f56565b60405180910390fd5b610550600061116a565b565b61055a6110c1565b73ffffffffffffffffffffffffffffffffffffffff166105786105d8565b73ffffffffffffffffffffffffffffffffffffffff16146105ce576040517f08c379a00000000000000000000000000000000000000000000000000000000081526004016105c590611f56565b60405180910390fd5b6105d661122e565b565b60008060009054906101000a900473ffffffffffffffffffffffffffffffffffffffff16905090565b600061060b6110c1565b73ffffffffffffffffffffffffffffffffffffffff166106296105d8565b73ffffffffffffffffffffffffffffffffffffffff161461067f576040517f08c379a000000000000000000000000000000000000000000000000000000000815260040161067690611f56565b60405180910390fd5b83836004600085815260200190815260200160002091906106a1929190611421565b50817fc790bff0bb0ce2934478292e2b0f935de037288b78b4f5cf335c1af03aacc8fe85856040516106d4929190611dd4565b60405180910390a28190509392505050565b60006106f06104b4565b15610730576040517f08c379a000000000000000000000000000000000000000000000000000000000815260040161072790611f16565b60405180910390fd5b60008787604051610742929190611d22565b6040518091039020905061080060046000838152602001908152602001600020805461076d9061215f565b80601f01602080910402602001604051908101604052809291908181526020018280546107999061215f565b80156107e65780601f106107bb576101008083540402835291602001916107e6565b820191906000526020600020905b8154815290600101906020018083116107c957829003601f168201915b5050505050604051806020016040528060008152506112d1565b15610840576040517f08c379a000000000000000000000000000000000000000000000000000000000815260040161083790611f76565b60405180910390fd5b61084a60016112ec565b6000888887878760405160200161086393929190611df8565b60405160208183030381529060405260405160200161088493929190611d3b565b604051602081830303815290604052905060006108a16001611302565b60001b905060006108b460008385611310565b90506002819080600181540180825580915050600190039060005260206000200160009091909190916101000a81548173ffffffffffffffffffffffffffffffffffffffff021916908373ffffffffffffffffffffffffffffffffffffffff160217905550600280549050600360008373ffffffffffffffffffffffffffffffffffffffff1673ffffffffffffffffffffffffffffffffffffffff168152602001908152602001600020819055508073ffffffffffffffffffffffffffffffffffffffff1663f2fde38b8a6040518263ffffffff1660e01b815260040161099b9190611d61565b600060405180830381600087803b1580156109b557600080fd5b505af11580156109c9573d6000803e3d6000fd5b505050508873ffffffffffffffffffffffffffffffffffffffff168173ffffffffffffffffffffffffffffffffffffffff16857fd0cfd1d56e37feb9f56552ecad404f37a7f70103fd39933995636105848db0f66004600089815260200190815260200160002086604051610a3f929190611e66565b60405180910390a48873ffffffffffffffffffffffffffffffffffffffff168173ffffffffffffffffffffffffffffffffffffffff16857f1f05f81426da1197e8b4b5c51955b4f575b6560b8d926cc1d69c0c40cfe3e2e560046000898152602001908152602001600020604051610ab79190611e44565b60405180910390a4809450505050509695505050505050565b6000610b77600460008481526020019081526020016000208054610af39061215f565b80601f0160208091040260200160405190810160405280929190818152602001828054610b1f9061215f565b8015610b6c5780601f10610b4157610100808354040283529160200191610b6c565b820191906000526020600020905b815481529060010190602001808311610b4f57829003601f168201915b5050505050846112d1565b15610b855760019050610b8a565b600090505b92915050565b6000610b9a6110c1565b73ffffffffffffffffffffffffffffffffffffffff16610bb86105d8565b73ffffffffffffffffffffffffffffffffffffffff1614610c0e576040517f08c379a0000000000000000000000000000000000000000000000000000000008152600401610c0590611f56565b60405180910390fd5b610c5c84848080601f016020809104026020016040519081016040528093929190818152602001838380828437600081840152601f19601f8201169050808301925050505050505083610ad0565b15610cc357600460008381526020019081526020016000206000610c8091906114a7565b817f9ad1c4250ceac8b2007843da2d092ac8d90ad4bb933d0f9fd97c5989dd2c27ba8585604051610cb2929190611dd4565b60405180910390a260019050610cc8565b600090505b9392505050565b6000610cd96104b4565b15610d19576040517f08c379a0000000000000000000000000000000000000000000000000000000008152600401610d1090611f16565b60405180910390fd5b6000600360008473ffffffffffffffffffffffffffffffffffffffff1673ffffffffffffffffffffffffffffffffffffffff1681526020019081526020016000205490506000811415610d70576000915050610fc4565b60008373ffffffffffffffffffffffffffffffffffffffff16638da5cb5b6040518163ffffffff1660e01b815260040160206040518083038186803b158015610db857600080fd5b505afa158015610dcc573d6000803e3d6000fd5b505050506040513d601f19601f82011682018060405250810190610df09190611668565b9050610dfa6110c1565b73ffffffffffffffffffffffffffffffffffffffff168173ffffffffffffffffffffffffffffffffffffffff161480610e6c5750610e366110c1565b73ffffffffffffffffffffffffffffffffffffffff16610e546105d8565b73ffffffffffffffffffffffffffffffffffffffff16145b610eab576040517f08c379a0000000000000000000000000000000000000000000000000000000008152600401610ea290611ef6565b60405180910390fd5b6002600183610eba9190612097565b81548110610ef1577f4e487b7100000000000000000000000000000000000000000000000000000000600052603260045260246000fd5b9060005260206000200160006101000a81549073ffffffffffffffffffffffffffffffffffffffff02191690556000600360008673ffffffffffffffffffffffffffffffffffffffff1673ffffffffffffffffffffffffffffffffffffffff168152602001908152602001600020819055508073ffffffffffffffffffffffffffffffffffffffff168473ffffffffffffffffffffffffffffffffffffffff167f4bca1ac1ce7e7e8525b3cf4338d084b0c829c52d8562079b4730a67dc6c3be8360405160405180910390a36001925050505b919050565b610fd16110c1565b73ffffffffffffffffffffffffffffffffffffffff16610fef6105d8565b73ffffffffffffffffffffffffffffffffffffffff1614611045576040517f08c379a000000000000000000000000000000000000000000000000000000000815260040161103c90611f56565b60405180910390fd5b600073ffffffffffffffffffffffffffffffffffffffff168173ffffffffffffffffffffffffffffffffffffffff1614156110b5576040517f08c379a00000000000000000000000000000000000000000000000000000000081526004016110ac90611ed6565b60405180910390fd5b6110be8161116a565b50565b600033905090565b6110d16104b4565b611110576040517f08c379a000000000000000000000000000000000000000000000000000000000815260040161110790611e96565b60405180910390fd5b60008060146101000a81548160ff0219169083151502179055507f5db9ee0a495bf2e6ff9c91a7834c1ba4fdd244a5e8aa4e537bd38aeae4b073aa6111536110c1565b6040516111609190611d61565b60405180910390a1565b60008060009054906101000a900473ffffffffffffffffffffffffffffffffffffffff169050816000806101000a81548173ffffffffffffffffffffffffffffffffffffffff021916908373ffffffffffffffffffffffffffffffffffffffff1602179055508173ffffffffffffffffffffffffffffffffffffffff168173ffffffffffffffffffffffffffffffffffffffff167f8be0079c531659141344cd1fd0a4f28419497f9722a3daafe3b4186f6b6457e060405160405180910390a35050565b6112366104b4565b15611276576040517f08c379a000000000000000000000000000000000000000000000000000000000815260040161126d90611f16565b60405180910390fd5b6001600060146101000a81548160ff0219169083151502179055507f62e78cea01bee320cd4e420270b5ea74000d11b0c9f74754ebdbfc544b05a2586112ba6110c1565b6040516112c79190611d61565b60405180910390a1565b60008180519060200120838051906020012014905092915050565b6001816000016000828254019250508190555050565b600081600001549050919050565b60008084471015611356576040517f08c379a000000000000000000000000000000000000000000000000000000000815260040161134d90611f96565b60405180910390fd5b60008351141561139b576040517f08c379a000000000000000000000000000000000000000000000000000000000815260040161139290611eb6565b60405180910390fd5b8383516020850187f59050600073ffffffffffffffffffffffffffffffffffffffff168173ffffffffffffffffffffffffffffffffffffffff161415611416576040517f08c379a000000000000000000000000000000000000000000000000000000000815260040161140d90611f36565b60405180910390fd5b809150509392505050565b82805461142d9061215f565b90600052602060002090601f01602090048101928261144f5760008555611496565b82601f1061146857803560ff1916838001178555611496565b82800160010185558215611496579182015b8281111561149557823582559160200191906001019061147a565b5b5090506114a391906114e7565b5090565b5080546114b39061215f565b6000825580601f106114c557506114e4565b601f0160209004906000526020600020908101906114e391906114e7565b5b50565b5b808211156115005760008160009055506001016114e8565b5090565b600061151761151284611fe7565b611fb6565b90508281526020810184848401111561152f57600080fd5b61153a84828561211d565b509392505050565b6000813590506115518161222f565b92915050565b6000815190506115668161222f565b92915050565b60008135905061157b81612246565b92915050565b60008083601f84011261159357600080fd5b8235905067ffffffffffffffff8111156115ac57600080fd5b6020830191508360018202830111156115c457600080fd5b9250929050565b60008083601f8401126115dd57600080fd5b8235905067ffffffffffffffff8111156115f657600080fd5b60208301915083600182028301111561160e57600080fd5b9250929050565b600082601f83011261162657600080fd5b8135611636848260208601611504565b91505092915050565b60006020828403121561165157600080fd5b600061165f84828501611542565b91505092915050565b60006020828403121561167a57600080fd5b600061168884828501611557565b91505092915050565b600080602083850312156116a457600080fd5b600083013567ffffffffffffffff8111156116be57600080fd5b6116ca85828601611581565b92509250509250929050565b60008060008060008060a087890312156116ef57600080fd5b600087013567ffffffffffffffff81111561170957600080fd5b61171589828a01611581565b9650965050602061172889828a01611542565b945050604087013567ffffffffffffffff81111561174557600080fd5b61175189828a01611615565b935050606087013567ffffffffffffffff81111561176e57600080fd5b61177a89828a01611615565b925050608087013567ffffffffffffffff81111561179757600080fd5b6117a389828a01611615565b9150509295509295509295565b6000806000604084860312156117c557600080fd5b600084013567ffffffffffffffff8111156117df57600080fd5b6117eb868287016115cb565b935093505060206117fe8682870161156c565b9150509250925092565b6000806040838503121561181b57600080fd5b600083013567ffffffffffffffff81111561183557600080fd5b61184185828601611615565b92505060206118528582860161156c565b9150509250929050565b60006118688383611874565b60208301905092915050565b61187d816120cb565b82525050565b61188c816120cb565b82525050565b600061189d8261203c565b6118a7818561206a565b93506118b283612017565b8060005b838110156118e35781516118ca888261185c565b97506118d58361205d565b9250506001810190506118b6565b5085935050505092915050565b6118f9816120dd565b82525050565b611908816120e9565b82525050565b600061191a838561207b565b935061192783858461211d565b82840190509392505050565b600061193e82612047565b611948818561207b565b935061195881856020860161212c565b80840191505092915050565b60006119708385612086565b935061197d83858461211d565b6119868361221e565b840190509392505050565b600061199c82612052565b6119a68185612086565b93506119b681856020860161212c565b6119bf8161221e565b840191505092915050565b600081546119d78161215f565b6119e18186612086565b945060018216600081146119fc5760018114611a0e57611a41565b60ff1983168652602086019350611a41565b611a1785612027565b60005b83811015611a3957815481890152600182019150602081019050611a1a565b808801955050505b50505092915050565b6000611a57601483612086565b91507f5061757361626c653a206e6f74207061757365640000000000000000000000006000830152602082019050919050565b6000611a97602083612086565b91507f437265617465323a2062797465636f6465206c656e677468206973207a65726f6000830152602082019050919050565b6000611ad7602683612086565b91507f4f776e61626c653a206e6577206f776e657220697320746865207a65726f206160008301527f64647265737300000000000000000000000000000000000000000000000000006020830152604082019050919050565b6000611b3d605183612086565b91507f52656769737472793a20756e7265676973746572506f7274666f6c696f203d3e60008301527f2063616c6c6572206973206e6f7420746865206f776e6572206f6620506f727460208301527f666f6c696f206f722052656769737472790000000000000000000000000000006040830152606082019050919050565b6000611bc9601083612086565b91507f5061757361626c653a20706175736564000000000000000000000000000000006000830152602082019050919050565b6000611c09601983612086565b91507f437265617465323a204661696c6564206f6e206465706c6f79000000000000006000830152602082019050919050565b6000611c49602083612086565b91507f4f776e61626c653a2063616c6c6572206973206e6f7420746865206f776e65726000830152602082019050919050565b6000611c89603e83612086565b91507f52656769737472793a20637265617465506f72666f6c696f203d3e20506f727460008301527f666f6c696f202862797465436f646529206e6f7420737570706f7274656400006020830152604082019050919050565b6000611cef601d83612086565b91507f437265617465323a20696e73756666696369656e742062616c616e63650000006000830152602082019050919050565b6000611d2f82848661190e565b91508190509392505050565b6000611d4882858761190e565b9150611d548284611933565b9150819050949350505050565b6000602082019050611d766000830184611883565b92915050565b60006020820190508181036000830152611d968184611892565b905092915050565b6000602082019050611db360008301846118f0565b92915050565b6000602082019050611dce60008301846118ff565b92915050565b60006020820190508181036000830152611def818486611964565b90509392505050565b60006060820190508181036000830152611e128186611991565b90508181036020830152611e268185611991565b90508181036040830152611e3a8184611991565b9050949350505050565b60006020820190508181036000830152611e5e81846119ca565b905092915050565b60006040820190508181036000830152611e8081856119ca565b9050611e8f60208301846118ff565b9392505050565b60006020820190508181036000830152611eaf81611a4a565b9050919050565b60006020820190508181036000830152611ecf81611a8a565b9050919050565b60006020820190508181036000830152611eef81611aca565b9050919050565b60006020820190508181036000830152611f0f81611b30565b9050919050565b60006020820190508181036000830152611f2f81611bbc565b9050919050565b60006020820190508181036000830152611f4f81611bfc565b9050919050565b60006020820190508181036000830152611f6f81611c3c565b9050919050565b60006020820190508181036000830152611f8f81611c7c565b9050919050565b60006020820190508181036000830152611faf81611ce2565b9050919050565b6000604051905081810181811067ffffffffffffffff82111715611fdd57611fdc6121ef565b5b8060405250919050565b600067ffffffffffffffff821115612002576120016121ef565b5b601f19601f8301169050602081019050919050565b6000819050602082019050919050565b60008190508160005260206000209050919050565b600081519050919050565b600081519050919050565b600081519050919050565b6000602082019050919050565b600082825260208201905092915050565b600081905092915050565b600082825260208201905092915050565b60006120a282612113565b91506120ad83612113565b9250828210156120c0576120bf612191565b5b828203905092915050565b60006120d6826120f3565b9050919050565b60008115159050919050565b6000819050919050565b600073ffffffffffffffffffffffffffffffffffffffff82169050919050565b6000819050919050565b82818337600083830152505050565b60005b8381101561214a57808201518184015260208101905061212f565b83811115612159576000848401525b50505050565b6000600282049050600182168061217757607f821691505b6020821081141561218b5761218a6121c0565b5b50919050565b7f4e487b7100000000000000000000000000000000000000000000000000000000600052601160045260246000fd5b7f4e487b7100000000000000000000000000000000000000000000000000000000600052602260045260246000fd5b7f4e487b7100000000000000000000000000000000000000000000000000000000600052604160045260246000fd5b6000601f19601f8301169050919050565b612238816120cb565b811461224357600080fd5b50565b61224f816120e9565b811461225a57600080fd5b5056fea26469706673582212200918f074b0574d8c1518b0f5fef522396cd99ab13f32c3c492119f57f86e5e6164736f6c63430008000033",
  "immutableReferences": {},
  "source": "// SPDX-License-Identifier: MIT\r\npragma solidity 0.8.0;\r\n\r\nimport \"@openzeppelin/contracts/utils/Counters.sol\";\r\nimport \"@openzeppelin/contracts/utils/Create2.sol\";\r\nimport \"@openzeppelin/contracts/access/Ownable.sol\";\r\nimport \"@openzeppelin/contracts/security/Pausable.sol\";\r\n\r\n/// @title Registry Contract for Portfolios of NFTs\r\n/// @author D Collette\r\n/// @notice You can use this contract to manage standardize Portfolios (Create/Locate portfolio contracts: Factory and Registry patterns) compliant with Verifiable credentials: Certificate of Authenticity, Certificate of Ownership, etc. )\r\n/// @dev Need to expand the Portfolio interface (and abstract contract) and move it out in a seperate file. Verify Interface/Methods of abstract contract implemented for each Portfolio supported.\r\n\r\ninterface IPortfolio {\r\n    function transferOwnership(address newOwner) external;\r\n    function owner() external view returns (address);\r\n}\r\n\r\ncontract Registry is Ownable, Pausable {\r\n    using Counters for Counters.Counter;\r\n\r\n    /// @dev Counter used as Salt for create2\r\n    Counters.Counter private _nbDeployed;\r\n  \r\n    /// @dev Portfolios (contracts) registered (from creation or addition)\r\n    address[] private _portfoliosRegistered; \r\n    mapping(address => uint256) private _portfoliosRegisteredIndex;\r\n\r\n    /// @dev CodeHash of supported Portfolios (contracts)\r\n    mapping(bytes32 => string) private _portfoliosSupported; \r\n\r\n    /// @notice Emitted when a Portfolio contract is created.\r\n    /// @dev Emitted when a Portfolio (contract) is deployed with createPortfolio method and create2.\r\n    event portfolioDeployed(string contractName, bytes32 indexed hashCreationCode, address indexed portfolioAddress, bytes32 salt, address indexed owner);\r\n\r\n    /// @notice Emitted when a Portfolio contract is registered.\r\n    /// @dev Emitted when a Portfolio (contract address) is added to the Portfolios Registered array.\r\n    event portfolioRegistered(string contractName, bytes32 indexed hashCreationCode, address indexed portfolioAddress, address indexed owner);\r\n\r\n    /// @notice Emitted when a Portfolio contract is unregistered.\r\n    /// @dev Emitted when a Portfolio (contract address) is removed from the Portfolios Registered array.\r\n    event portfolioUnregistered(address indexed portfolioAddress, address indexed owner);\r\n\r\n    /// @notice Emitted when a Portfolio Support is added.\r\n    /// @dev Emitted when a Portfolio (bytecode hash) is added to the map of Portfolios Supported.\r\n    event portfolioSupportAdded(string contractName, bytes32 indexed hashCreationCode);\r\n\r\n    /// @notice Emitted when a Portfolio Support is deleted.\r\n    /// @dev Emitted when a Portfolio (bytecode hash) is deleted from the map of Portfolios Supported.\r\n    event portfolioSupportDeleted(string contractName, bytes32 indexed hashCreationCode);\r\n\r\n    constructor() {\r\n    }\r\n\r\n    /// @notice Create a Portfolio with information provided.\r\n    /// @dev Create a Portfolio using the provided byte code (create2) and regiter it (Factory and Registry patterns). \r\n    /// @dev Requirements: whenNotPaused and portfolio byte code is supported.\r\n    /// @param portfolioByteCode_ creation byte code of Portfolio contract to be created. Hash of byte code must be supported by Registry.\r\n    /// @param owner_ address of owner of portfolio - Transfer ownership of Portfolio created to owner_.\r\n    /// @param name_ Name of Portfolio.\r\n    /// @param symbol_ Symbol of Portfolio.\r\n    /// @param portoflioURI_ URI of Portfolio (Current Client implementation: IPFS CID of image file).\r\n    /// @return address of created/deployed Portfolio Contract.\r\n    function createPortfolio(bytes calldata portfolioByteCode_, address owner_, string memory name_, string memory symbol_, string memory portoflioURI_)\r\n     external whenNotPaused returns (address) {\r\n         bytes32 hashCreationCode = keccak256(portfolioByteCode_);\r\n         require(!_equalStrings(_portfoliosSupported[hashCreationCode], ''), \"Registry: createPorfolio => Portfolio (byteCode) not supported\");\r\n        _nbDeployed.increment();\r\n        bytes memory byteCreationCode = abi.encodePacked(portfolioByteCode_, abi.encode(name_, symbol_,  portoflioURI_));\r\n        bytes32 salt = bytes32(_nbDeployed.current());\r\n        address addressDeployed = Create2.deploy(0, salt, byteCreationCode);\r\n        _portfoliosRegistered.push(addressDeployed);\r\n        _portfoliosRegisteredIndex[addressDeployed] = _portfoliosRegistered.length;\r\n        IPortfolio(addressDeployed).transferOwnership(owner_);\r\n        emit portfolioDeployed(_portfoliosSupported[hashCreationCode], hashCreationCode, addressDeployed, salt, owner_);\r\n        emit portfolioRegistered(_portfoliosSupported[hashCreationCode], hashCreationCode, addressDeployed, owner_);\r\n        return addressDeployed;\r\n    }\r\n\r\n    /// @notice Verify if Portfolio registered.\r\n    /// @dev Verify if Portfolio registred by checking the '_portfoliosRegisteredIndex'.\r\n    /// @param portfolioAddress address of Portfolio to be verified.\r\n    /// @return boolean - False if Portfolio not registered.\r\n    function isPortoflioRegistered(address portfolioAddress) external view returns (bool) {\r\n        uint256 idx = _portfoliosRegisteredIndex[portfolioAddress];\r\n        if ( idx == uint256(0x0)) {\r\n            return false;\r\n        }\r\n        return true;\r\n    }\r\n\r\n    /// @notice Unregister a Portfolio.\r\n    /// @dev Unregister a Portfolio at address specified.\r\n    /// @dev Requirements: whenNotPaused and called by owner of Portfolio or Registry only.\r\n    /// @param portfolioAddress address of Portfolio to be unregistered.\r\n    /// @return bool.\r\n    function unregisterPortfolio(address portfolioAddress) external whenNotPaused returns (bool) {\r\n        uint256 idx = _portfoliosRegisteredIndex[portfolioAddress];\r\n        if ( idx == uint256(0x0)) {\r\n            return false;\r\n        }\r\n        address _owner = IPortfolio(portfolioAddress).owner();\r\n        require(_owner == _msgSender() || owner() == _msgSender(), \"Registry: unregisterPortfolio => caller is not the owner of Portfolio or Registry\");\r\n        delete _portfoliosRegistered[idx-1];\r\n        _portfoliosRegisteredIndex[portfolioAddress] = 0;\r\n        emit portfolioUnregistered(portfolioAddress, _owner);\r\n        return true;\r\n    }\r\n\r\n    /// @notice Get addresses of registered Portfolios.\r\n    /// @dev Get registered Portfolios' addresses (array). \r\n    /// @dev Requirements: whenNotPaused.\r\n    /// @return array of addresses.\r\n    function getAllPortofliosRegistered() external view whenNotPaused returns (address[] memory) {\r\n        return _portfoliosRegistered;\r\n    }\r\n\r\n    /// @notice Compute Hash of Portfolio bytecode.\r\n    /// @dev Compute keccak256 Hash of bytecode provided. \r\n    /// @param byteCode_ creation byte code of Portfolio contract to be created.\r\n    /// @return bytes32:keccak256 hash.\r\n    function getHashByteCode(bytes calldata byteCode_) external pure returns (bytes32) {\r\n        return keccak256(byteCode_);\r\n    }\r\n\r\n    /// @notice Add support of a Portfolio.\r\n    /// @dev Add support of a Portfolio. \r\n    /// @dev Requirements: onlyOwner.\r\n    /// @param contractName_ Name of Portfolio Contract.\r\n    /// @param hashCreationCode_ creation byte code Hash of Portfolio contract to be added.\r\n    /// @return bytes32:hashCreationCode_.\r\n    function addPortfolioSupport(string calldata contractName_, bytes32 hashCreationCode_) external onlyOwner returns (bytes32) {\r\n        _portfoliosSupported[hashCreationCode_] = contractName_;\r\n        emit portfolioSupportAdded(contractName_, hashCreationCode_);\r\n        return hashCreationCode_;\r\n    }\r\n\r\n    /// @notice Delete support of a Portfolio.\r\n    /// @dev Delete support of a Portfolio and emits event 'portfolioSupportDeleted' if successful.\r\n    /// @dev Requirements: onlyOwner.\r\n    /// @param contractName_ Name of Portfolio Contract to be deleted.\r\n    /// @param hashCreationCode_ creation byte code Hash of Portfolio contract to be deleted.\r\n    /// @return boolean - False if Portfolio hash not in the list of supported Portfolios.\r\n    function delPortfolioSupport(string calldata contractName_, bytes32 hashCreationCode_) external onlyOwner returns (bool) {\r\n        if (isPortoflioSupported(contractName_, hashCreationCode_)) {\r\n            delete _portfoliosSupported[hashCreationCode_];\r\n            emit portfolioSupportDeleted(contractName_, hashCreationCode_);\r\n            return true;\r\n        }\r\n        return false;\r\n    }\r\n\r\n    /// @notice Verify if Portfolio supported.\r\n    /// @dev Verify if Portfolio supported by checking the hash and name of creationCode in the mapping '_portfoliosSupported'.\r\n    /// @param contractName_ Name of Portfolio Contract to be verified.\r\n    /// @param hashCreationCode_ creation byte code Hash of Portfolio contract to be verified.\r\n    /// @return boolean - False if Portfolio hash not in the list of supported Portfolios.\r\n    function isPortoflioSupported(string memory contractName_, bytes32 hashCreationCode_) public view returns (bool) {\r\n        if (_equalStrings(_portfoliosSupported[hashCreationCode_], contractName_)) {\r\n            return true;\r\n        }\r\n        return false;\r\n    }\r\n\r\n    /// @notice Pause Registry Contract.\r\n    /// @dev Pause 'createPortfolio', 'unregisterPortfolio' and 'getAllPortofliosRegistered'.\r\n    /// @dev Requirements: whenNotPaused and onlyOwner.\r\n    function pause() external virtual onlyOwner {\r\n        _pause();\r\n    }\r\n\r\n    /// @notice Unpause Registry Contract.\r\n    /// @dev Unpause 'createPortfolio', 'unregisterPortfolio' and 'getAllPortofliosRegistered'.\r\n    /// @dev Requirements: whenPaused and onlyOwner.\r\n    function unpause() external virtual onlyOwner {\r\n        _unpause();\r\n    }\r\n\r\n    /// @dev Internal helper: compare two strings.\r\n    function _equalStrings(string memory a, string memory b) internal pure returns( bool ) {\r\n        return keccak256(bytes(a)) == keccak256(bytes(b));\r\n    }\r\n\r\n}",
  "sourcePath": "C:\\Users\\didier.collette\\git\\blockchain-developer-bootcamp-final-project\\contracts\\Registry.sol",
  "compiler": {
    "name": "solc",
    "version": "0.8.0+commit.c7dfd78e.Emscripten.clang"
  },
  "schemaVersion": "3.4.3",
  "updatedAt": "2022-01-15T19:58:28.389Z",
  "networkType": "ethereum",
  "devdoc": {
    "events": {
      "portfolioDeployed(string,bytes32,address,bytes32,address)": {
        "details": "Emitted when a Portfolio (contract) is deployed with createPortfolio method and create2."
      },
      "portfolioRegistered(string,bytes32,address,address)": {
        "details": "Emitted when a Portfolio (contract address) is added to the Portfolios Registered array."
      },
      "portfolioSupportAdded(string,bytes32)": {
        "details": "Emitted when a Portfolio (bytecode hash) is added to the map of Portfolios Supported."
      },
      "portfolioSupportDeleted(string,bytes32)": {
        "details": "Emitted when a Portfolio (bytecode hash) is deleted from the map of Portfolios Supported."
      },
      "portfolioUnregistered(address,address)": {
        "details": "Emitted when a Portfolio (contract address) is removed from the Portfolios Registered array."
      }
    },
    "kind": "dev",
    "methods": {
      "addPortfolioSupport(string,bytes32)": {
        "details": "Add support of a Portfolio. Requirements: onlyOwner.",
        "params": {
          "contractName_": "Name of Portfolio Contract.",
          "hashCreationCode_": "creation byte code Hash of Portfolio contract to be added."
        },
        "returns": {
          "_0": "bytes32:hashCreationCode_."
        }
      },
      "createPortfolio(bytes,address,string,string,string)": {
        "details": "Create a Portfolio using the provided byte code (create2) and regiter it (Factory and Registry patterns). Requirements: whenNotPaused and portfolio byte code is supported.",
        "params": {
          "name_": "Name of Portfolio.",
          "owner_": "address of owner of portfolio - Transfer ownership of Portfolio created to owner_.",
          "portfolioByteCode_": "creation byte code of Portfolio contract to be created. Hash of byte code must be supported by Registry.",
          "portoflioURI_": "URI of Portfolio (Current Client implementation: IPFS CID of image file).",
          "symbol_": "Symbol of Portfolio."
        },
        "returns": {
          "_0": "address of created/deployed Portfolio Contract."
        }
      },
      "delPortfolioSupport(string,bytes32)": {
        "details": "Delete support of a Portfolio and emits event 'portfolioSupportDeleted' if successful.Requirements: onlyOwner.",
        "params": {
          "contractName_": "Name of Portfolio Contract to be deleted.",
          "hashCreationCode_": "creation byte code Hash of Portfolio contract to be deleted."
        },
        "returns": {
          "_0": "boolean - False if Portfolio hash not in the list of supported Portfolios."
        }
      },
      "getAllPortofliosRegistered()": {
        "details": "Get registered Portfolios' addresses (array). Requirements: whenNotPaused.",
        "returns": {
          "_0": "array of addresses."
        }
      },
      "getHashByteCode(bytes)": {
        "details": "Compute keccak256 Hash of bytecode provided. ",
        "params": {
          "byteCode_": "creation byte code of Portfolio contract to be created."
        },
        "returns": {
          "_0": "bytes32:keccak256 hash."
        }
      },
      "isPortoflioRegistered(address)": {
        "details": "Verify if Portfolio registred by checking the '_portfoliosRegisteredIndex'.",
        "params": {
          "portfolioAddress": "address of Portfolio to be verified."
        },
        "returns": {
          "_0": "boolean - False if Portfolio not registered."
        }
      },
      "isPortoflioSupported(string,bytes32)": {
        "details": "Verify if Portfolio supported by checking the hash and name of creationCode in the mapping '_portfoliosSupported'.",
        "params": {
          "contractName_": "Name of Portfolio Contract to be verified.",
          "hashCreationCode_": "creation byte code Hash of Portfolio contract to be verified."
        },
        "returns": {
          "_0": "boolean - False if Portfolio hash not in the list of supported Portfolios."
        }
      },
      "owner()": {
        "details": "Returns the address of the current owner."
      },
      "pause()": {
        "details": "Pause 'createPortfolio', 'unregisterPortfolio' and 'getAllPortofliosRegistered'.Requirements: whenNotPaused and onlyOwner."
      },
      "paused()": {
        "details": "Returns true if the contract is paused, and false otherwise."
      },
      "renounceOwnership()": {
        "details": "Leaves the contract without owner. It will not be possible to call `onlyOwner` functions anymore. Can only be called by the current owner. NOTE: Renouncing ownership will leave the contract without an owner, thereby removing any functionality that is only available to the owner."
      },
      "transferOwnership(address)": {
        "details": "Transfers ownership of the contract to a new account (`newOwner`). Can only be called by the current owner."
      },
      "unpause()": {
        "details": "Unpause 'createPortfolio', 'unregisterPortfolio' and 'getAllPortofliosRegistered'.Requirements: whenPaused and onlyOwner."
      },
      "unregisterPortfolio(address)": {
        "details": "Unregister a Portfolio at address specified.Requirements: whenNotPaused and called by owner of Portfolio or Registry only.",
        "params": {
          "portfolioAddress": "address of Portfolio to be unregistered."
        },
        "returns": {
          "_0": "bool."
        }
      }
    },
    "stateVariables": {
      "_nbDeployed": {
        "details": "Counter used as Salt for create2"
      },
      "_portfoliosRegistered": {
        "details": "Portfolios (contracts) registered (from creation or addition)"
      },
      "_portfoliosSupported": {
        "details": "CodeHash of supported Portfolios (contracts)"
      }
    },
    "version": 1
  },
  "userdoc": {
    "events": {
      "portfolioDeployed(string,bytes32,address,bytes32,address)": {
        "notice": "Emitted when a Portfolio contract is created."
      },
      "portfolioRegistered(string,bytes32,address,address)": {
        "notice": "Emitted when a Portfolio contract is registered."
      },
      "portfolioSupportAdded(string,bytes32)": {
        "notice": "Emitted when a Portfolio Support is added."
      },
      "portfolioSupportDeleted(string,bytes32)": {
        "notice": "Emitted when a Portfolio Support is deleted."
      },
      "portfolioUnregistered(address,address)": {
        "notice": "Emitted when a Portfolio contract is unregistered."
      }
    },
    "kind": "user",
    "methods": {
      "addPortfolioSupport(string,bytes32)": {
        "notice": "Add support of a Portfolio."
      },
      "createPortfolio(bytes,address,string,string,string)": {
        "notice": "Create a Portfolio with information provided."
      },
      "delPortfolioSupport(string,bytes32)": {
        "notice": "Delete support of a Portfolio."
      },
      "getAllPortofliosRegistered()": {
        "notice": "Get addresses of registered Portfolios."
      },
      "getHashByteCode(bytes)": {
        "notice": "Compute Hash of Portfolio bytecode."
      },
      "isPortoflioRegistered(address)": {
        "notice": "Verify if Portfolio registered."
      },
      "isPortoflioSupported(string,bytes32)": {
        "notice": "Verify if Portfolio supported."
      },
      "pause()": {
        "notice": "Pause Registry Contract."
      },
      "unpause()": {
        "notice": "Unpause Registry Contract."
      },
      "unregisterPortfolio(address)": {
        "notice": "Unregister a Portfolio."
      }
    },
    "version": 1
  }
}